:020000040800F2
:1000000008210020E9000008770B00080D0B00080C
:10001000750B0008090B000811190008000000000A
:10002000000000000000000000000000190C0008A3
:10003000FD000008000000007B0B0008DD17000831
:100040000301000803010008030100080301000880
:1000500003010008030100080B1900080F1900082C
:100060000301000803010008030100080301000860
:100070000301000803010008030100080301000850
:10008000690A0008030100080301000803010008D1
:1000900003010008310B000803010008D51800080F
:1000A0000301000803010008030100080301000820
:1000B0000301000803010008030100080301000810
:1000C0000301000803010008790B00080301000880
:1000D00003010008DFF80CD000F070FC0048004776
:1000E000C943000808210020064880470648004709
:1000F000FEE7FEE7FEE7FEE7FEE7FEE7FEE7FEE7D8
:10010000FEE7FEE77D180008D500000810B5431A89
:10011000934209D28318881803E010F8011D03F8F0
:10012000011D521EF9D210BD40EA01039B0703D006
:1001300009E008C9121F08C0042AFAD203E011F826
:10014000013B00F8013B521EF9D210BDCAB2401E5D
:1001500010F8011F8A4202D00029F9D1002070470F
:10016000421C10F8011B0029FBD1801A704710B502
:10017000002200E0521C835C8C5CA34201D1002B66
:10018000F8D1D8B2E1B2401A10BD30B503461D789F
:100190003DB10A4612F8014B1CB1AC42FAD15B1CCE
:1001A000F5E7181A30BD30B50546002008E00A46CC
:1001B00002E0A34207D0521C1378002BF9D1401C57
:1001C0002C5C002CF3D130BD2DE9F0410E460546E4
:1001D000002400E0641C285D00F0D6FA0746305D7C
:1001E00000F0D2FA381A02D1295D0029F2D1BDE817
:1001F000F0812DE9F04791460F46804604460026DF
:1002000014F8015B2DB100F0BBFA0068405DC00737
:10021000F6D12B2D02D02D2D18D0641E4A4639461A
:10022000204600F0B7FA27B13968A14201D1C7F8DA
:10023000008071054FF002040BD54042002803DD19
:1002400005F0DCF90460A007BDE8F08746F480669D
:10025000E4E70028F8DA05F0D1F904606FF0004017
:10026000F2E72DE9F05F93460F46804604460026EC
:1002700005F0C4F9D0F80090824614F8015B2DB166
:1002800000F07EFA0068405DC007F6D12B2D02D049
:100290002D2D1AD0641E0021CAF800105A46394686
:1002A000204600F077FA014627B13868A04201D114
:1002B000C7F80080DAF80000022809D0CAF80090D8
:1002C000700505D54842BDE8F09F46F48066E2E738
:1002D0000846F8E72DE9FE4F804681EA0300C00F8B
:1002E0000C46009021F0004123F00045B8EB0200DD
:1002F000A94105D24046214690461C460B4602467F
:1003000023F00040104347D0270DC7F30A00C3F382
:100310000A510290401A019040286BDAC3F313008F
:1003200040F4801B0098924620B10023D2EB030AD0
:1003300063EB0B0B01985946C0F14002504600F0A8
:10034000EDF906460D4650465946019A00F005FA69
:1003500010EB08006141002487EA115284EAE77338
:100360001A4340D0009A62B3019A012A4FEA075219
:1003700015DC001B61EB02014FF0004202EA07525C
:10038000CDE90042001C41F5801132462B4600F0B9
:1003900096FA03B0BDE8F08F40462146F9E7001B0E
:1003A00061EB0201001C41F5801300185B4120182D
:1003B000A2F5001747EB030140EAD570B6196D416D
:1003C00011E06D084FEA360645EAC0754FEA07525C
:1003D000001B61EB0201001C41F5801149084FEA46
:1003E00030000019514132462B4603B0BDE8F04FB2
:1003F00000F056BA0098012240000023D0EB020220
:1004000063EBE073009821464FEAE074B8EB00001C
:1004100061EB0401E9E783F000435BE781F0004111
:1004200058E72DE9FE4F81EA030404F0004421F06F
:10043000004100944FF0000B23F0004350EA010408
:100440005ED052EA03045BD0C3F30A54C1F30A55E9
:100450002C44A4F2F3340194A0FB0254C1F3130121
:1004600041F48011C3F3130343F4801301FB0244EE
:1004700000FB034E840A970A44EA815447EA8357F3
:10048000A4FB076802958D0A05FB07854FEA932CAC
:1004900004FB0C542705029D4FEA065847EA16371D
:1004A000B5EB08056EEB070C870E920E47EA811735
:1004B00042EA8312A7FB0201B6EB0B0164EB0004D6
:1004C0002B0D43EA0C335E1844EB1C50DA465146C0
:1004D000E7FB0201C5F313044FEA0B3343EA14535D
:1004E0004FEA0432019C43EA0603A4F10C0402948F
:1004F000009CCDE900B400F0E2F903B0BDE8F08F54
:1005000000200146F9E72DE9F04D81EA030404F0EB
:10051000004B21F0004514464FF0000A23F0004143
:1005200050EA050220D054EA01021DD0C5F30A5753
:100530000246C5F31303C1F31300C1F30A5640F496
:10054000801543F48013A7EB0608101BD64608F26B
:10055000FD3873EB050002D308F1010801E09218A1
:100560005B41B8F1000F03DA00200146BDE8F08DD1
:1005700000204FF48011064684460EE0171B73EBF3
:10058000050705D3121B63EB050306434CEA010C78
:1005900049084FEA300092185B4150EA0107EDD15B
:1005A00052EA030012D082EA040083EA05010843FC
:1005B00005D0101BAB4106D20122002306E0002229
:1005C0004FF0004302E06FF0010253101AEB0600F7
:1005D0004CEB085110EB0A0041EB0B01BDE8F04D6C
:1005E00000F05EB90EB540F2334102910021CDE931
:1005F00000110A460B4600F062F903B000BDC1F3DA
:100600000A5210B5C1F3130140F2FF3341F48011D7
:100610009A4201DA002010BD40F233439A42A2F21E
:10062000334203DC524200F088F810BD904010BD08
:1006300000F0004230F000400AD0C10D01F56071B9
:10064000C0F3160042EA0151C20840071143704747
:1006500000200146704701F0004330B421F0004112
:1006600050EA010206D00A0DA2F56072C1F313012F
:10067000002A02DC30BC00207047440F44EAC10469
:10068000C100E01830BC00EBC25000F0D2B830B569
:100690000B46014600202022012409E021FA02F540
:1006A0009D4205D303FA02F5491B04FA02F52844DA
:1006B000151EA2F10102F1DC30BD2DE9F05F054607
:1006C000002092469B4688460646814640241BE011
:1006D000284641464746224600F02FF853465A46E0
:1006E000C01A914110D311461846224600F016F860
:1006F0002D1A67EB01084F4622460120002100F029
:100700000DF817EB00094E41201EA4F10104DFDCB7
:10071000484631462A464346BDE8F09F202A04DB7E
:10072000203A00FA02F1002070479140C2F1200304
:1007300020FA03F3194390407047202A04DB203A43
:1007400021FA02F00021704721FA02F3D040C2F1F1
:1007500020029140084319467047202A06DBCB1738
:10076000203A41FA02F043EAE07306E041FA02F36C
:10077000D040C2F120029140084319467047000062
:1007800000487047805F0008A0F14101192900D896
:10079000203070472DE9F05F82460078002715462B
:1007A0008B460AF10104B946302801D09DB113E00F
:1007B00014F8010B0127782803D0582801D045B13F
:1007C0000AE00DB1102D07D10027102514F8010BF8
:1007D00002E0082500E00A250026B0460EE005FBF1
:1007E000080005FB06F1012701EB10461FFA80F80F
:1007F000B6F5803F00D3B94614F8010B294600F046
:10080000F5F80028EBDABBF1000F05D00FB1641E3C
:1008100000E05446CBF80040B9F1000F06D004F0D8
:10082000EDFE02210160C81EBDE8F09F48EA0640C7
:10083000FAE70029A8BF7047401C490008BF20F014
:100840000100704710B4B0FA80FC00FA0CF050EAD6
:10085000010404BF10BC704749B1CCF1200421FA57
:1008600004F411FA0CF118BF012121430843A3EB52
:100870000C01CB1D4FEA00614FEA102042BF00205F
:1008800010BC704700EBC35010440029A4BF10BC3B
:100890007047401C490008BF20F0010010BC7047A1
:1008A00010B5141E73F1000408DA401C41F1000178
:1008B00092185B411A4301D120F0010010BD2DE9CF
:1008C000F04D92469B4611B1B1FA81F202E0B0FAC6
:1008D00080F220329046FFF721FF04460F4640EA9F
:1008E0000A0041EA0B0153465A46084313D0114609
:1008F00053EA010019D0C8F140025046FFF71DFF2E
:1009000005460E46504659464246FFF707FF084344
:1009100005D0012004E020463946BDE8F08D0020D6
:10092000054346EAE0762C4337430A986305E40A18
:10093000A0EB08000022FD0A44EA47540A3002D521
:1009400000200146E9E7010510196941DDE9084584
:1009500000196941BDE8F04DA2E7C1F30A52C1F3A5
:10096000130140F2FF3341F480119A4202DA002071
:100970000146704740F233439A42A2F2334202DC0E
:100980005242FFF7DABEFFF7C9BE000030B5041EC1
:1009900071F1000404DB4FF00044404264EB0101BC
:1009A000141E73F1000405DB1C464FF00043524255
:1009B00063EB0403994208BF904230BD1CB509485F
:1009C0000090094801900546009C06E0E06840F070
:1009D000010394E8070098471034AC42F6D3FFF7C0
:1009E0007DFB0000286B0008486B00083A2800D205
:1009F000303820F02002412A01D3A2F1370088428A
:100A000001D34FF0FF30704770B58D1810F8014BCF
:100A100014F0030201D110F8012B231106D110F8B4
:100A2000013B03E010F8016B01F8016B521EF9D194
:100A3000ABB110F8012B04F00C048A1A0C2C03D073
:100A4000A2EB84129B1C08E010F8014BA2EB0422DD
:100A5000F8E712F8014B01F8014B5B1EF9D5A942EA
:100A6000D4D3002070BD0000F0B581B0012001F0AA
:100A70005FF8002842D0012000F070FF002001F054
:100A80006DF801F04DF8FFF7ADFD044640F2D0508F
:100A9000C2F2000000680D46FFF7CAFD9FED180B7B
:100AA00006460F4653EC102B20462946FFF7B9FCAB
:100AB00032463B46FFF7AFFC044641F2D850C2F243
:100AC000000000680D46FFF7B3FD02460B462046C6
:100AD0002946FFF718FDFFF7BEFD40F2C447034665
:100AE000C2F200074FF20000C4F201000821002208
:100AF0003B6001B0BDE8F04003F056BB01B0F0BD73
:100B00000000000000C0D23FFEE7000003A005F097
:100B1000E3F9642003F07EF900F0FCFE48617264A2
:100B2000204661756C74206F63637572730D0000ED
:100B300010B500F0EDF8044647F6FF7000F07BF8C2
:100B4000E00705D041F2E450C2F20000012101703B
:100B5000A00705D541F2E350C2F200000121017067
:100B6000600658BF10BD40F2CD50C2F20000012116
:100B7000017010BDFEE770477047704710B541F235
:100B8000DC54C2F20004207878B940F20000C2F2CE
:100B9000000000214FF4806200234FF0FF304FF43B
:100BA000E13003F096FC0120207041F68401C2F28E
:100BB00000010868012816DB41F68802C2F2000233
:100BC000106841F28163C2F20003185C13680133BC
:100BD00013601368B3F5007F04BF002313600A6835
:100BE000013A0A6010BD4FF0FF3010BD80B540F2F1
:100BF0000000C2F2000000214FF4806200234FF099
:100C0000FF304FF4E13003F064FC41F2DC50C2F2FB
:100C100000000121017080BD704780B582B08DF861
:100C200006008DF807100DF106019820022200F051
:100C300059FD02B080BD80B582B00DF106010220E1
:100C4000022200F04FFD02B080BD70B586B00020DA
:100C500000F068FA41F2E854C2F20004207D40F24C
:100C60003041C2F20001088000F0E2F8002080214B
:100C700000F0C3F8206B94F8341094F83520A36B7F
:100C800000F063F9A08F94F83E1094F83F2094F898
:100C9000483094F84BC094F84CE094F84D5094F8D8
:100CA0005260CDE900CECDE9025600F092F9D4E9C8
:100CB0001001CDE9040104A800F0BEF994F8490040
:100CC00094F84A1000F007F9B4F84E00B4F8501048
:100CD000B4F8542000F00DF9002006B070BDF0B556
:100CE00081B015460E4607466946142004221C466C
:100CF00000F0FAFB9DF800009DF801109DF802201D
:100D00009DF80330387031702A70237001B0F0BD47
:100D100080B582B00DF105011220032200F0E4FB42
:100D2000BDF8060000BA000C02B080BDF0B581B07D
:100D300015460E4607466946142004221C4600F05C
:100D4000D3FB9DF800009DF801109DF802209DF84E
:100D50000330387031702A80237001B0F0BD80B547
:100D600082B00DF106011520022200F0BDFB9DF8B6
:100D7000070002B080BD80B582B00DF10701C02030
:100D8000012200F0B1FB9DF8070002B080BD10B554
:100D900082B0012000F0C6F941F2E854C2F200042A
:100DA000207D40F23041C2F20001088000F040F89E
:100DB0000020802100F021F8A07EE17E227F00F05B
:100DC00049F9E08B94F8201094F8242094F8253009
:100DD00094F826C0CDF800C000F067F994F823100D
:100DE0004FF4E86000F0B3FC94F8221040F2417038
:100DF00000F0ADFC002002B010BD80B582B08DF8CF
:100E000006008DF807100DF106018F20022200F078
:100E100069FC02B080BD80B500F0E0FBD12000216C
:100E20000022BDE8804000F05DBC00000000000032
:100E300080B541F2E85040F23041C2F20000C2F207
:100E40000001B1F90010D0E9030202FB0100FFF735
:100E5000C9FB9FED070B53EC102BFFF754FBFFF77B
:100E6000CEFBBDE8804000F078B900BF00BF00BFF6
:100E7000000000008084EE3F80B582B08DF807004E
:100E80000DF107019D20012200F02CFC02B080BD75
:100E900080B582B04FEA102C8DF80100080A8DF859
:100EA0000200100A8DF80400180A8DF803108DF85E
:100EB00005208DF806006946082008228DF800C03C
:100EC0008DF8073000F00EFC02B080BDC12000217B
:100ED000002200F007BC10B50C46014640F2CD6080
:100EE00000F035FC40F2CE602146BDE8104000F035
:100EF0002EBC70B50D460646010A40F2BC60144691
:100F000000F025FCF1B240F2BD6000F020FC290A9F
:100F100040F2BE6000F01BFCE9B240F2BF6000F09E
:100F200016FC4FF4D76000F012FB00F0FE00C4F393
:100F3000002101444FF4D76000F009FCE1B240F217
:100F4000B960BDE8704000F002BCB0B582B04DF6AB
:100F5000836CC4F21B3CA3FB0CE44FEA143E43F643
:100F600009540EFB143341F6846444EA8333A3FB33
:100F70000C3440F2000CC3F6095CBCFBF0F36FF0DC
:100F80007F45AB4228BF2B4660454FEA143000EB4B
:100F90008E3088BF0123A84238BF0546180C8DF853
:100FA0000000180A8DF80100280C8DF80500280AA9
:100FB0008DF803108DF804208DF8060069468B200B
:100FC00008228DF802308DF8075000F08BFB02B03C
:100FD000B0BD70B584B0012898BF0120060A8DF815
:100FE0000800481EC0B207298DF8076028BF0721F6
:100FF0000328DDE90AECDDE9085438BF04218DF847
:101000000910402A28BF40228DF80A200DF107015F
:101010008C200922022B28BF02238DF80B308DF87B
:101020000C508DF80D408DF80EE08DF80FC000F0DB
:1010300059FB04B070BD0000B0B50446002500BFE8
:10104000615D45F4D86080B200F081FB0135082D68
:10105000F6D1B0BD10B582B08C1F034618BF012475
:10106000052898BF05230C2B28BF0C238DF80510ED
:1010700000218DF804308DF806200A2888BF012150
:101080008DF8071001A98B20042200F02BFB40F6FD
:10109000890000F05CFA00F0FB0040EA840140F6B1
:1010A000890000F054FB02B010BDB0B582B0069DBF
:1010B000012898BF0120040A8DF803008DF8041060
:1010C0008DF805200DF102018C2006228DF80240DA
:1010D0008DF806308DF8075000F004FB40F23670B2
:1010E00000F035FA00F0FB0140F23670002D08BF29
:1010F000043100F02CFB02B0B0BD80B582B08DF899
:101100000400072928BF072101208DF805108DF85C
:1011100006208DF8070001A99520042200F0E2FACC
:1011200002B080BD80B582B08DF807000DF10701D7
:101130008A20012200F0D6FA02B080BD80B582B0CC
:10114000002818BF01208DF807000DF10701962037
:10115000012200F0C7FA02B080BD80B582B000BAAB
:10116000019001A98620042200F0BCFA02B080BDE3
:1011700010B582B0044600F02FFA6FF07F40844231
:1011800038BF2046010C8DF80510010A8DF80610B5
:101190008DF807000DF105018220032200F0A2FA6C
:1011A00002B010BD80B582B061F382008DF80700F7
:1011B0000DF107018420012200F094FA02B080BDF5
:1011C00080B582B0002818BF01208DF807000DF10E
:1011D00007018020012200F085FA02B080BD10B521
:1011E00082B0044600F0FAF96FF07F40844238BFC5
:1011F0002046010C8DF80510010A8DF806108DF8B7
:1012000007000DF105018320032200F06BFA02B004
:1012100010BD80B500F0E2F9D22000210022BDE827
:10122000804000F05FBA80B582B040F20470C0F236
:101230000010019001A99520042200F053FA40F615
:10124000E700382100F083FA41F2E850C2F20000D2
:10125000417DC08A8DF8021014380021142838BF4F
:1012600001218DF803100DF102018E20022200F001
:1012700039FA40F6D80000F06AF940F01E0140F655
:10128000D80000F064FA02B080BD10B549F20C1429
:10129000C4F2000400202060142002F0DBFDC02016
:1012A00003F078F8002003F075F801202060BDE815
:1012B000104003F07DB8B0B503F03AF8FFF7E5FF52
:1012C0000A2002F0A7FD41F2E254C2F2000401201C
:1012D00020700020FFF774FF0120FFF72FFF41F27D
:1012E000E855C2F20005A87A20B101283ED1FFF7E7
:1012F0004EFD01E0FFF7A9FCE86AFFF739FF022085
:1013000020700120FFF75CFFE8684DF68361C4F2AE
:101310001B31A0FB0101880C4FF47F73B0F57F7F78
:1013200038BF8B0C03EB43014FF47F7298084B08D6
:10133000B3F57F7F38BF4A089108FFF76EFCFFF7CF
:1013400072FF40F6AC00962100F001FA0120FFF791
:1013500093FD4F200F21002200230025FFF798FD69
:10136000052020700020FFF703FF00E0FF2568B292
:10137000B0BD000010B541F2E85040F6002240F246
:10138000000EC2F20000C0F20A02C0F6082EC0E948
:10139000052E4CF66C12C0F22012C0F822204CF23E
:1013A0005032026341F20932828646F2A812826309
:1013B000202242F26B31828741F20402CCF66C119A
:1013C000C6F6C94201604FF0FF31C0F83E2046F634
:1013D000233281804FF4C851C6F6C942018145F2DB
:1013E000007148F2A063C0F8422046F62332C1F2F1
:1013F000A661C0F20103A0F846202022C0E9031331
:101400000021C1F60F52C0E9121241F22102A0F8E8
:1014100050204FF4807240F20114A0F8542041F2A1
:1014200088324FF0010CC0F24004CFF6FF7280F812
:101430000AC0C46180F8201080F82610C0E90A11A3
:1014400080F852C0C0E91611026680F8641000BF2F
:10145000421882F8651001312029F9D104F0A2F870
:1014600002A004F039FD002010BD00BF436F6E667E
:10147000696720696E6974204F4B2E0D00000000D3
:101480002DE9F0414BF6BF57CFF6F07749F2081639
:1014900014460D468046C4F200063846013002D29A
:1014A0003168C905FAD4002070601E2002F072FF76
:1014B000404602F06FFFFF2002F06CFF3CB100BF1E
:1014C000FF2002F067FF013C05F8010BF8D1012075
:1014D000706000BF013728BFBDE8F0813068C005EB
:1014E000F8D4BDE8F08100002DE9F04381B04BF65F
:1014F000BF56CFF6F07649F2081814468946C4F272
:1015000000083146013103D2D8F80020D205F9D4C1
:101510000021C8F8041002F03DFF5CB1002700BFB5
:10152000FF20FDB202F036FF0137F9B2A14209F8FF
:101530000500F5D30120C8F8040000BF013603D22E
:10154000D8F80000C005F9D401B0BDE8F08380B53B
:1015500082B00DF10701012200F004F89DF80700A8
:1015600002B080BD2DE9F04381B04BF6BF57CFF6F6
:10157000F07749F2081614460D468146C4F200067B
:101580004FEA1028384600BF013002D23168C90541
:10159000FAD4002070601D2002F0FCFE404602F0EC
:1015A000F9FE5FFA89F002F0F5FEFF2002F0F2FE8C
:1015B0003CB100BFFF2002F0EDFE013C05F8010B3D
:1015C000F8D10120706000BF013702D23068C00539
:1015D000FAD401B0BDE8F08302F0CCBE02F0D2BE76
:1015E000072813D8DFE800F00423323B43121B2AFC
:1015F00041F2E851C2F2000141F2E252087E497E16
:10160000C2F2000200231370FFF7CCBD41F2E25199
:10161000C2F20001052200200A70FFF7A9BD41F2C5
:10162000E250C2F2000006210170FFF7F4BB41F264
:10163000E251C2F20001012200200DE041F2E2502D
:10164000C2F2000007210170FFF7E3BD41F2E25151
:10165000C2F20001022201200A70FFF7B1BD41F27F
:10166000E250C2F2000003210170FFF72FBC41F2EB
:10167000E850C2F2000041F2E251806AC2F2000179
:1016800004220A70FFF7ABBD2DE9F0414BF6BF57BE
:10169000CFF6F07749F2081614460D468046C4F29C
:1016A00000063846013002D23168C905FAD400205C
:1016B00070600E2002F06EFE404602F06BFE2CB110
:1016C00015F8010B02F066FE013CF9D101207060B3
:1016D000013728BFBDE8F0813068C005F8D4BDE807
:1016E000F08100002DE9F04381B04BF6BF57CFF6F3
:1016F000F07749F2081915460E468046C4F20009F3
:10170000384600BF013003D2D9F80010C905F9D41A
:101710000020C9F80400404602F03CFE45B1002418
:10172000E0B2305C02F036FE0134E0B2A842F7D3FA
:101730000120B8F1840FC9F8040005D0013703D2A5
:10174000D9F80000C005F9D401B0BDE8F08380B538
:1017500082B08DF807100DF10701012200F002F8A8
:1017600002B080BD2DE9F0474BF6BF57CFF6F077BA
:1017700049F2081A14460D468146C4F2000A4FEA9F
:1017800010283846013003D2DAF80010C905F9D420
:101790000020CAF804000D2002F0FCFD404602F0D3
:1017A000F9FD5FFA89F002F0F5FD4CB1002600BFAB
:1017B000F0B2285C02F0EEFD0136F0B2A042F7D3A1
:1017C0000120CAF8040000BF013728BFBDE8F08738
:1017D000DAF80000C005F7D4BDE8F08740F2C84051
:1017E000C2F20000016801310A29016006D180B50A
:1017F0000021016002F05EFDBDE8804041F2DD5154
:10180000C2F20001087868B341F6D400C2F20000C9
:1018100040F228430268C2F200031B8801329A4258
:1018200002601FD30022026041F60210C2F20000E3
:1018300003880133038041F60013C2F200030088DD
:101840001B88984208D941F6D300C2F2000002700A
:1018500005A00A7004F040BB41F6D300C2F20000BC
:1018600001210170704700BF53454E445F50414312
:101870004B45543A20444F4E450D00004EF6225041
:10188000CEF20000D0F866100C2241F47001C0F8CE
:101890006610C4F200021368082143F08003C4F20A
:1018A00002011360CA68012363F31342CA6000BFD8
:1018B0000A689207FCD5E02101704EF20041002039
:1018C000CEF20001C02200BF425401302528FBD1D6
:1018D00002F06EBAB0B582B04AF20004C4F200045D
:1018E0000DF1070220460121012503F0E6FC9DF8D9
:1018F000070040B12046012103F0C4FC41F6D000AE
:10190000C2F20000057002B0B0BD00F0F1B970473E
:10191000FEE700004EF60C50BFF34F8FCEF20000F2
:101920000168042201F4E061C0F2FA52114301603F
:10193000BFF34F8F00BFFDE74EF60C50BFF34F8F44
:10194000CEF200000168042201F4E061C0F2FA5214
:1019500011430160BFF34F8F00BFFDE747F2140151
:10196000C4F201010A680240824218BF70470A6847
:101970001043086070470021B1EB103F18BF70475B
:1019800047F20401C4F201010A6840F6FF739A436A
:101990000A600A6810430860704747F20401C4F205
:1019A00001010A6822F440120A600A6810430860C4
:1019B0007047002947F21801C4F201010A680CBF00
:1019C00022EA000010430860704748F248010128ED
:1019D000C4F2000104D038B9086820F0400002E0E9
:1019E000086840F040000860704780B547F2080280
:1019F000C4F201026FF01F03043203EB80030828D6
:101A00003CBF47F20802C4F2010238BF83004FF026
:101A10000F0CD2F800E00CFA03F02EEA0000994017
:101A20000843106080BD47F20001C4F201010A685A
:101A300008B142B17047D007FCD00868400748BFE2
:101A40007047022000E001200A68104308607047D8
:101A500048F2B001C4F200010A6822F0007260F39B
:101A600059620A60704700002DE9F04381B0894651
:101A700042F23001C1F20001D1E900149046052282
:101A8000002818BF0D2221FA02F04FF00405C0B261
:101A900018BF0D25FEF7A6FD9FED190B53EC102B7B
:101AA000FEF7BFFC9FED180B53EC102BFEF712FC5A
:101AB000064624FA05F06FF35F200F46FEF792FD0D
:101AC0009FED130B53EC102BFEF7ABFC9FED120BAD
:101AD00053EC102BFEF7FEFB04460D46304639460C
:101AE000FEF7B9FDC9F8000020462946FEF7B3FD10
:101AF000C8F8000001B0BDE8F08300BF00BF00BF20
:101B0000FCA9F1D24D62603F000000000000F03FF0
:101B1000FCA9F1D24D62503FFCA9F1D24D62D0BF79
:101B200047F21C00C4F2010000686FF31F307047D9
:101B300047F21401C4F2010109680140081AB0FA21
:101B400080F04009704748F24401C4F2000108687F
:101B500020F4707264200A6002F07CB947F2000140
:101B6000C4F201010A6830B1D0070BD008688007C1
:101B700008D4042003E0500758BF704708200A68C3
:101B800010430860704700002DE9F04381B042F235
:101B90000C07C4F203070D4639681C46064621F0BF
:101BA0000300012A386003D1386840F00100386032
:101BB00005B341F2000841F22009C4F20308C4F25F
:101BC000030900BF404631461022FEF79FFA3868ED
:101BD00040F08000386000BF38680006FCD4204622
:101BE00049461022FEF792FA103D1036280404F1FF
:101BF0001004E7D1002001B0BDE8F08301220346C4
:101C0000FFF7C2BF00220346FFF7BEBFF0B581B0A9
:101C100014460A461D46A2F110030146102B4FF050
:101C2000060052D8012707FA03F340F20117C0F269
:101C300001073B4249D042F20407C4F20307386867
:101C400041F2006640F00900C4F203063860322019
:101C5000C6F8000A44F01000202A786107D0182A3C
:101C600003D0102A06D1002002E0042000E0082062
:101C7000B86000BF3868C007FCD141F24060C4F2D0
:101C80000300FEF743FAB86840F08200B86000BF76
:101C9000B8680006FCD4B868611E20F00300022971
:101CA000B86011D841F21060C4F203002946102236
:101CB000FEF72CFA0020032C02BF4FF08071C6E91A
:101CC0000000C6E9020100E0002001B0F0BD80B5CF
:101CD0000020012102F066FF41F2E850C2F200004C
:101CE0006530202100220023BDE88040FFF78EBF31
:101CF00010B543F20004C4F200042046102103F0A2
:101D000020FB00B110BD204603F0C2FB41F68C0160
:101D1000C2F200010A6841F28163C2F200039854E2
:101D200008680130086041F68400C2F200000268D1
:101D3000013202600A68B2F5007F04BF00220A6027
:101D40000268B2F5007FDDDD00220A60026041F624
:101D50008800C2F20000026010BD0000022988BFA6
:101D6000704702A050F8210004F0B6B8F6610008F0
:101D70002B6300085363000800210022FEF739BAE4
:101D800000210022FEF76DBA844600284FF00100C2
:101D900018BF002900D17047CCF8001000200CF1CA
:101DA00008010DC18CF80400704700002DE9F04FC8
:101DB00081B0804620B3D8F8000008B308F10804C9
:101DC00000260027FEF7CCF954F8041C054629B17B
:101DD0000846FEF7C5F9014601E000BF0021AF4209
:101DE000C8BF3D468E42C8BF31462268A068002A5F
:101DF0001CBF0E462F46002804F11004E2D101E07A
:101E00000026002728A004F067F846F6CD20C0F68B
:101E1000000004F061F8B8F1000F3AD0D8F80020C3
:101E2000BAB37D4246F6203746F6C62A764208F116
:101E300008040FF2A408C0F600070FF28C09C0F6E0
:101E4000000A0FF2880B00BF206858B148462946A7
:101E500003F0C4FB54F8042C42B11078002808BFEA
:101E6000524604E0404611460AE000BF524658463A
:101E7000314603F0B3FB616821B1087810B115A0B9
:101E800003F0ACFB384604F027F8A2681034002AAF
:101E9000DAD146F62030C0F6000004F01DF801202B
:101EA00001B0BDE8F08F00BF3C636F6D6D616E6483
:101EB0003E203C617267733E203C68656C70207404
:101EC0006578743E0D000000252A730020252A73D2
:101ED0000000000020257300202D2D2D20257320CB
:101EE0002D2D2D002DE9F04F9BB000284FF0FF095C
:101EF00000F05081002900F04D810446D0E902A095
:101F000015465244824280F03B8120682A46504464
:101F1000FEF7FCF8A0684FF00008284482454FF017
:101F20000009A06080F036810AA946F62236043105
:101F3000C0F6000600230691216811F80AB0BBF133
:101F40000A0F02D0BBF10D0F3AD19A4501F80A8071
:101F500051D020682169C518CDE9081328462946C3
:101F60000A78082A04D04AB100F8012B03E000BF28
:101F7000A84288BF01380131F2E700BF80F8008035
:101F8000284631461AAA03F061F998B30746089823
:101F9000C8B10668CEB100F1080800BFD8F800004B
:101FA00020B138463146FEF70FF9D8B3D8F80860AB
:101FB00008F11008002EF1D100264FF0000805E0CE
:101FC0000AF1010A2AE0002609E00026284675A148
:101FD000FEF7FAF818B90898FFF7E8FE0646002E53
:101FE00046F62236C0F6000604D11FB1384600215D
:101FF000FFF7B4FE099BBBF10A0F08BF9A4502D058
:1020000009F1010904E020790D2818BF09F101093F
:102010000AF1010AA068534684F804B08245FFF42F
:102020008BAFB0E00A9646F62236C0F600060020D6
:1020300031461AAACDF8149003F008F94FF00109BF
:1020400068B1B9F10F0F0AA941F8290027D0002083
:1020500031461AAA09F1010903F0F8F8F0E758F837
:10206000047C002F00F0768038464DA1FEF77FF803
:1020700000286FD03846FEF773F8049038462A21BE
:10208000FEF764F8A0B1049AB918013988424FF0FC
:10209000020105D1012A03D0901E00900AE001211F
:1020A0002846FFF75BFEDDF814904FF00008A1E72B
:1020B000049A0092B9F1010003903FD00297B8183A
:1020C0002E23002600270190974205DA0298C05D72
:1020D0002A2818BF034604E0019810F8010C2A28AA
:1020E0002DD1A3F1730004280BD80793DFE800F08B
:1020F0000327120F0C000698042150F82700012234
:102100000DE0622B10D01AE00698042104E0069836
:10211000022101E00698012150F82700002203F077
:1021200015FA079B049A50B10398013787424FF084
:10213000000628BF0126B842C6D100E00126F007FC
:102140004FF0020117D0009846F622364845C0F6F7
:102150000006A5DAD8F8002048460AA9904758F8A2
:10216000080CDDF8149000284FF000087FF442AF0F
:10217000002701262AE746F62236C0F600068FE73A
:102180004FF0FE0906E02BB1C21A2068A260C11808
:10219000FDF7BCFF4FFA89F01BB0BDE8F08F00BF20
:1021A0003F00000068656C700000000080B5486862
:1021B000FFF7E6FDC0B20028014618BF012107A2C3
:1021C000002809A018BF104641F2E852C2F20002EE
:1021D00082F86410BDE8804003F07EBE4145533A6A
:1021E000204F4E0D000000004145535F454E3A2000
:1021F0004F46460D00000000F0B581B048680C461F
:10220000FFF7BEFDA16804460846FFF7B9FD054685
:102210000AA003F061FEAFB2A5B2AF420CD30AA68A
:10222000A0B2FFF794F902463046294603F0D6F9EA
:102230000134A5B2BD42F3D901B0F0BD44554D50B3
:102240005F524547533A0D003078253034582C30D2
:1022500078253032580D0A0041F2E850C2F20000F1
:1022600090F8491090F84A2001A003F0B7B900BFD8
:1022700046535F4745545F414444523A20307825E5
:102280003032582C3078253032580D0A00000000CA
:1022900041F2E850C2F20000B0F84E10B0F8502001
:1022A000B0F8543046F2D500C0F6000003F096B9FD
:1022B00041F2E850C2F2000090F835100939C9B275
:1022C000162908D845F68872C0F6000202EBC10153
:1022D00091ED000B01E09FED080B80B584B0016B20
:1022E00090F83420806B8DED000B029004A003F079
:1022F00075F904B080BD00BF000000000000F0BF11
:1023000046535F4745544D4F44504152414D533A17
:102310000D0A42523D25640D0A53483D25640D0ABD
:1023200042573D252E31660D0A4445563D25640D24
:102330000A00000010B541F2E854C2F20004A18F77
:1023400094F83E2094F83F302AA003F047F994F81F
:10235000481046F2072046F2FB22C0F60000C0F605
:102360000002012908BF024646F28D20C0F6000097
:10237000002918BF104603F0AFFD94F84B1046F249
:10238000F22046F2DE12C0F60000C0F6000200297C
:1023900008BF104603F0A0FD94F84C1046F2591007
:1023A000C0F6000003F01AF994F84D00062806D88C
:1023B00046F24001C0F6000151F8200003E046F269
:1023C000E910C0F6000003F087FD94F8521046F2C1
:1023D000C22046F28222C0F60000C0F600020029A8
:1023E00008BF104603F078FD11A0BDE8104003F0CF
:1023F00073BD00BF46535F4745545F5041434B4553
:1024000054504152414D533A0D0A5052455F4C458C
:102410004E3D25640D0A5052455F4445543D2564A8
:102420000D0A53594E435F4C454E3D25640D0A003D
:1024300046535F4745545F5041434B4554504152CA
:10244000414D533A20544F444F0D000070B510A039
:1024500003F0C4F841F2E85646F2F9340025C2F21E
:102460000006C0F6000400BF701990F84010204626
:1024700003F0B4F80135072DF6D196F8471046F26F
:10248000CC00C0F60000BDE8704003F0A7B800BF64
:1024900046535F4745545F53594E433A200000006E
:1024A000B0B541F2E855C2F20005A87A20B10EA0FD
:1024B000BDE8B04003F010BD48680C46FFF760FC73
:1024C000A16804460846FFF75BFC85F8494085F89B
:1024D0004A00FEF7F0FE95F8491095F84A2007A04B
:1024E000BDE8B04003F07AB846535F5345545F41AE
:1024F0004444523A204552524F520D0046535F53C6
:1025000045545F414444523A203078253032582CAB
:102510003078253032580D0A0000000070B541F2C5
:10252000E856C2F20006B07A20B114A0BDE87040AF
:1025300003F0D2BC48680C46FFF722FCA1680546B0
:102540000846FFF71DFCE16804460846FFF718FC43
:10255000A6F84E50A6F85040A6F85400FEF7ABFE81
:10256000B6F84E10B6F85020B6F8543046F21710B0
:10257000C0F60000BDE8704003F030B846535F532A
:1025800045545F43524357483A204552524F520DEB
:1025900000000000000000002DE9F04381B02DEDA7
:1025A000028B84B041F2E857C2F20007B87A18B142
:1025B00097A003F091FCCBE048680D46FFF7E0FBE5
:1025C00004464FF41676B0F5167F98BF344649F2AC
:1025D000E031A868C0F204018C4228BF0C46FFF726
:1025E000CFFBE96880460846FFF7CAFB062804D2FD
:1025F0009FED5D8B4FF01F098AE0062804D19FED07
:102600005C8B4FF0170983E0092804D29FED5A8BA9
:102610004FF00F097CE00B2804D29FED598B4FF04F
:102620001E0975E00D2804D29FED578B4FF0160957
:102630006EE0102804D29FED568B4FF00E0967E034
:10264000152804D29FED548B4FF01D0960E0192826
:1026500004D29FED538B4FF0150959E01F2804D287
:102660009FED518B4FF00D0952E0282804D29FEDC9
:10267000508B4FF01C094BE0302804D29FED4E8B5D
:102680004FF0140944E03C2804D29FED4D8B4FF0ED
:102690000C093DE0502804D29FED4B8B4FF01B09F5
:1026A00036E05F2804D29FED4A8B4FF013092FE0EC
:1026B000772804D29FED488B4FF00B0928E09E2825
:1026C00004D29FED478B4FF01A0921E0BD2804D2B8
:1026D0009FED458B4FF012091AE0EC2804D29FEDD4
:1026E000448B4FF00A0913E0B0F59C7F04D89FEDAE
:1026F000428B4FF019090BE041A1B0F5BB7F98BFA9
:10270000083191ED008B4FF0090998BF4FF0110986
:102710002869FFF735FBB0F5167F88BF064640F6FF
:102720004050C0F20300864228BF06463C6387F84B
:10273000348087F83590BE63FEF7BDFDB86B396B0A
:1027400097F83420029039A08DED008B02F046FFFF
:1027500043A004B0BDEC028B01B0BDE8F04303F030
:10276000BBBB00BF00BF00BF0000004033331340BD
:1027700000000040333317400000004033331D4059
:102780000000006066662340000000606666274027
:102790000000004033332D40000000000080334033
:1027A0000000006066663740000000C0CC4C3D4031
:1027B00000000000008043400000004033734740A9
:1027C000000000C0CC4C4D40000000C0CC8C5340F9
:1027D00000000040337357400000004033535D4019
:1027E0000000006066866340000000606666674027
:1027F000000000A099496D40000000000080734077
:102800000000000000307D40000000A09959774092
:1028100046535F5345545F4D4F44504152414D53D1
:102820003A204552524F520D0000000046535F536C
:1028300045544D4F44504152414D533A0D0A425276
:102840003D25640D0A53483D25640D0A42573D2538
:102850002E31660D0A4445563D25640D0A000000E0
:1028600046535F5345545F4D4F44504152414D5381
:102870003A20544F444F0D002DE9F04F81B041F202
:10288000E855C2F20005A87A08B14DA090E048686A
:102890000C46FFF775FAA16880460846FFF770FA04
:1028A000E16881460846FFF76BFA216982460846CF
:1028B000FFF766FA616983460846FFF761FA064644
:1028C0000028A06918BF0126FFF75AFAE1690746F8
:1028D0000846FFF755FA216A04460846FFF750FA02
:1028E000002818BF0120A5F83C8085F83E9085F8A7
:1028F0003FA085F848B085F84B6085F84C7085F8A6
:102900004D4085F85200FEF7D6FCA98F95F83E2081
:1029100095F83F3031A002F061FE95F8481046F27C
:10292000072046F2FB22C0F60000C0F60002012993
:1029300008BF024646F28D20C0F60000002918BFED
:10294000104603F0C9FA95F84B1046F2F22046F211
:10295000DE12C0F60000C0F60002002908BF1046D3
:1029600003F0BAFA95F84C1046F25910C0F6000080
:1029700002F034FE95F84D00062806D846F24001D4
:10298000C0F6000151F8200003E046F2E910C0F65D
:10299000000003F0A1FA95F8521046F2C22046F268
:1029A0008222C0F60000C0F60002002908BF1046CF
:1029B00003F092FA18A001B0BDE8F04F03F08CBA12
:1029C00046535F5345545F5041434B455450415229
:1029D000414D533A204552524F520D0046535F53DA
:1029E00045545F5041434B4554504152414D533A39
:1029F0000D0A5052455F4C454E3D25640D0A50521C
:102A0000455F4445543D25640D0A53594E435F4C80
:102A1000454E3D25640D0A0046535F5345545F50B3
:102A200041434B4554504152414D533A20544F4439
:102A30004F0D0000F0B583B041F2E855C2F2000539
:102A4000A87A28B119A003B0BDE8F04003F044BA59
:102A50000C1D00266F4600BF54F82600FFF790F9C2
:102A6000B8550136082EF7D1DDE90001C5E910019E
:102A7000FEF721FC12A002F0B1FD46F2F934002667
:102A8000C0F60004A81990F84010204602F0A6FDF8
:102A90000136072EF6D195F8471046F2CC00C0F665
:102AA000000003B0BDE8F04002F098BD46535F530C
:102AB00045545F53594E433A204552524F520D00F0
:102AC00046535F5345545F53594E433A200000002C
:102AD00080B5FEF744F900EE100AB8EE400ABEEEEB
:102AE000001A20EE010A10EE100AFDF7A1FD0246C1
:102AF00002A00B46BDE8804002F070BD4745545F20
:102B0000525353493A20252E31662064426D0D0AF6
:102B10000000000070B51FA002F060FD41F2E85512
:102B2000C2F2000595F8641021A01EA2002908BF7A
:102B3000104602F053FD21A002F050FD46F2F93498
:102B40000026C0F6000400BFA81990F865102046C2
:102B500002F044FD0136202EF6D11AA002F03EFD0F
:102B600046F2F9340026C0F6000400BFA81990F818
:102B70008510204602F032FD01360F2EF6D195F871
:102B8000941046F2CC00C0F60000BDE8704002F0A0
:102B900025BD00BF4745545F4145535354415455EB
:102BA000533A20004145533A4F46462C200000003E
:102BB0004145533A4F4E2C20000000004B45593DF3
:102BC0000000000049563D0041F2E850C2F200000A
:102BD000B0F86010B0F8622001A002F0FFBC00BFA6
:102BE0004745545F4155544F53454E443A20256460
:102BF0002C3078253034580D0A00000040F2304067
:102C0000C2F20000B0F9001001A002F0E7BC00BF62
:102C10004745545F4348414E4E454C3A2025640D8C
:102C20000A00000041F2E850C2F20000818801A0D1
:102C300002F0D4BC4745545F44455649443A2030DD
:102C400078253034580D0A0041F2E850C2F20000F5
:102C5000D0E9031201A002F0C1BC00BF4745545F98
:102C6000465245513A2025752C25750D0A00000065
:102C700001A003F031B900BF4745545F474E53539D
:102C80003A20544F444F0D0041F2E850C2F2000088
:102C9000817A08A002A2012908BF104603F01CB9DE
:102CA0004745545F4D4F44454D3A204C4F52410DDE
:102CB000000000004745545F4D4F44454D3A2046C3
:102CC000534B0D0041F2E250C2F200000078072899
:102CD00099BF04A151F8200046F2B930C0F60000B7
:102CE00003F0FAB8CC6200087A610008AA61000813
:102CF0009C620008D9630008B96300089363000868
:102D00002C62000841F2E850C2F2000090F9151060
:102D100001A002F063BC00BF4745545F504F5745C8
:102D2000523A2025642064426D0D0A0041F2E850B9
:102D3000C2F20000C18A01A002F050BC4745545FB6
:102D400052414D5054494D453A2025642075730D2C
:102D50000A00000001A003F0BFB800BF4745545F60
:102D60005258434F554E543A20544F444F0D000093
:102D700001A003F0B1B800BF4745545F534C45452F
:102D800050504152414D533A204552524F520D003E
:102D900080B5FDF7F0FF014602A0BDE8804002F0DB
:102DA0001DBC00BF4745545F5354415455533A200E
:102DB0003078253032580D0A0000000041F2E8500A
:102DC000C2F20000817A00F15802012908BF00F127
:102DD0002802116800F15C0208BF00F12C021268A1
:102DE00001A002F0FBBB00BF4745545F54494D456D
:102DF0004F5554533A2025642C25640D0A000000D9
:102E000002A001210022012302F0E8BB4745545FE4
:102E100056455253494F4E3A2048573D25642C465B
:102E2000573D25642E25640D0A000000B0B582B020
:102E300040F2C040C2F200000068FDF7F9FB044612
:102E400040F2C440C2F2000000680D46FDF7F0FBFE
:102E500041EC100B04A022462B468DED000B02F036
:102E6000BDFB02B0B0BD00BF4745545F56543A2089
:102E7000543D252E33662C563D252E33660D0A0013
:102E80003020C4F2020003682C20C4F20200026861
:102E900001A002F0A3BB00BF4745545F5549443A27
:102EA000203078256C6C580D0A00000041F6B800FF
:102EB00040F2CD4140F20803C2F20000C2F200012C
:102EC000C2F200034FF48072FEF75EBF80B5FEF7DA
:102ED00051FA28B1014605A0BDE8804002F07EBB52
:102EE00008A0BDE8804002F0F7BF00BF494E49543A
:102EF0005F434F4E4649473A204552524F52202594
:102F0000640D0A00494E49545F434F4E4649473AC3
:102F1000204F4B0D0000000010B582B041F2E85484
:102F2000C2F20004E07E0A2808D846F26001C0F62A
:102F3000000101EBC00090ED000B01E09FED1A0BCA
:102F4000A17E53EC102B1AA0009102F047FB46F231
:102F50001040C0F6000002F041FB207F042806D894
:102F600046F2B801C0F6000151F8200003E046F235
:102F7000ED10C0F6000002F0AFFF46F21440C0F6BC
:102F8000000002F02BFB617F46F2C82046F2972238
:102F9000C0F60000C0F60002002908BF104602B0CB
:102FA000BDE8104002F098BF000000000000F0BF34
:102FB0004C525F4745545F4D4F44504152414D5331
:102FC0003A0D0A42573D252E31660D0A53463D25DE
:102FD000640D0A0070B541F2E855C2F20005E98BB4
:102FE00095F824201BA002F0F9FA95F8201046F27B
:102FF0003F3046F24932C0F60000C0F60002002918
:1030000008BF104602F068FF46F20140C0F600001B
:1030100002F0E4FA95F8250046F2C824C0F6000450
:1030200046F2972600282046C0F6000608BF304624
:1030300002F052FF46F20640C0F6000002F0CEFA5F
:1030400095F82600002808BF34462046BDE87040A9
:1030500002F042BF4C525F4745545F5041434B45DD
:1030600054504152414D533A0D0A5052455F4C4520
:103070004E3D25640D0A5041595F4C454E3D256437
:103080000D0A4845414445523A00000001A002F0B3
:1030900023BF00BF4C525F4745545F53594D544FB7
:1030A0003A20494E20444556454C4F504D454E54CC
:1030B0000D00000041F2E850C2F20000418C01A076
:1030C00002F08CBA4C525F4745545F53594E433A15
:1030D000203078253034580D0A0000000000000030
:1030E0002DE9F0412DED028B82B041F2E856C2F29B
:1030F0000006B07A01280BD148680C46FEF740FE66
:1031000080B2092806D29FED4E8B4FF000083DE0BB
:103110005FA08CE00C2804D29FED4B8B4FF0080889
:1031200034E0112804D29FED4A8B4FF001082DE0C6
:10313000162804D29FED488B4FF0090826E020287E
:1031400004D29FED478B4FF002081FE02B2804D2DA
:103150009FED458B4FF00A0818E0402804D29FED00
:10316000448B4FF0030811E07E2804D29FED428B80
:103170004FF004080AE0FB2841A038BF083090ED6A
:10318000008B4FF0060838BF4FF00508A068FEF727
:10319000F7FDC7B200F0FE000C2F28BF0C27062851
:1031A000E06838BF0627FEF7EBFD0546C0B20428ED
:1031B000206988BF0425FEF7E3FDC0B286F81B80B6
:1031C000B7763577002818BF01207077FEF773F8BF
:1031D000B17E53EC182B35A0009102F0FFF946F2B6
:1031E0001040C0F6000002F0F9F9307F042806D83C
:1031F00046F2B801C0F6000151F8200003E046F2A3
:10320000ED10C0F6000002F067FE46F21440C0F672
:10321000000002F0E3F9717F46F2C82046F29722DF
:10322000C0F60000C0F60002002908BF104602B038
:10323000BDEC028BBDE8F04102F04EBE00BF00BF06
:103240000000004033331F40000000C0CCCC2440BD
:103250000000004033332F40000000C0CCCC34408D
:10326000000000C0CC4C3F40000000A099D9444071
:103270000000000000404F400000000000405F40A0
:103280000000000000407F400000000000406F4050
:103290004C525F5345545F4D4F44504152414D5342
:1032A0003A204552524F520D000000004C525F53DD
:1032B00045545F4D4F44504152414D533A0D0A42DF
:1032C000573D252E31660D0A53463D25640D0A00F3
:1032D0002DE9F04141F2E855C2F20005A87A012833
:1032E00060D148680C46FEF74BFDA1688046084651
:1032F000FEF746FDE16806460846FEF741FD2169F6
:1033000007460846FEF73CFD616904460846FEF79D
:1033100037FD07F0010185F8201004F0010100F0ED
:103320000100A5F81E8085F8246085F8251085F831
:103330002600FDF7C0FFE98B95F8242023A002F0BA
:103340004DF995F8201046F23F3046F24932C0F66A
:103350000000C0F60002002908BF104602F0BCFDC4
:1033600046F20140C0F6000002F038F995F8250059
:1033700046F2C824C0F6000446F2972600282046EC
:10338000C0F6000608BF304602F0A6FD46F2064031
:10339000C0F6000002F022F995F82600002808BFC8
:1033A000344600E002A42046BDE8F04102F094BD9E
:1033B0004C525F5345545F5041434B45545041522A
:1033C000414D533A204552524F520D004C525F53DB
:1033D00045545F5041434B4554504152414D533A3F
:1033E0000D0A5052455F4C454E3D25640D0A504133
:1033F000595F4C454E3D25640D0A484541444552B0
:103400003A00000041F2E850C2F20000817A0BA0BD
:1034100002A2012908BF104602F05EBD4C525F5364
:1034200045545F53594D544F3A20494E2044455618
:10343000454C4F504D454E540D0000004C525F53CB
:1034400045545F53594D544F3A204552524F520DF7
:103450000000000010B541F2E854C2F20004A07A66
:1034600001280AD14868FEF78BFC024681B20AA007
:103470006284BDE8104002F0B1B802A0BDE810407F
:1034800002F02ABD4C525F5345545F53594E433AA4
:10349000204552524F520D004C525F5345545F53DA
:1034A000594E433A203078253034580D0A00000038
:1034B00080B582B0FDF762FBC1B28DF8070051B153
:1034C000FF2908D041F6B800C2F200000DF1070153
:1034D0000122FEF707FD02B080BD000080B54868FC
:1034E000FEF74EFC80B2FEF732F8014602A0BDE8BE
:1034F000804002F073B800BF524541445F524547D7
:103500003A203078253032580D0A000003A002F02E
:10351000E3FC642000F07EFCFEF70EFA52455345B2
:10352000543A204F4B0D000070B548680C46FEF72A
:1035300027FC41F60015C2F200052880288808B94A
:1035400001202880A068FEF71BFC40F22846E168B5
:10355000C2F2000630800846FEF712FC318841F6C0
:10356000B602C2F20002632910809CBF6420308042
:1035700001F074FA2988328802A0BDE8704002F098
:103580002DB800BF53454E445F5041434B45543A1C
:103590002025642C25640D0A0000000070B584B05D
:1035A0000D1D00266C4600BF55F82600FEF7E8FB0F
:1035B00044F826000136042EF6D141F2E8510020ED
:1035C000C2F2000122580B18043012BA1028C3F8B6
:1035D0008520F7D102A004B0BDE8704002F07CBCA9
:1035E0005345545F41455349563A204F4B0D000017
:1035F00070B588B00D1D00266C4600BF55F826003A
:10360000FEF7BEFB44F826000136082EF6D141F243
:10361000E8510020C2F2000122580B18043012BAFF
:103620002028C3F86520F7D102A008B0BDE870409B
:1036300002F052BC5345545F4145534B45593A2023
:103640004F4B0D00B0B548680C46FEF799FB054698
:10365000A068ACB2FEF794FB03464FF6FE7028401C
:103660004EF6602141F2E8558C4238BF2146C2F245
:103670000005322838BF3221A5F860109AB203A0A5
:10368000A5F86230BDE8B04001F0A8BF5345545FD3
:103690004155544F53454E443A2025642C307825EB
:1036A0003034580D0A00000010B54868FEF764FB7E
:1036B00040F23044C2F200042080FDF7B9FBB4F9B7
:1036C000001002A0BDE8104001F088BF5345545FD0
:1036D0004348414E4E454C3A2025640D0A000000F7
:1036E00010B54868FEF74CFB41F2E854C2F2000402
:1036F000A08001F057FFA18802A0BDE8104001F0B2
:103700006DBF00BF5345545F44455649443A20308D
:1037100078253034580D0A0001A002F0DDBB00BF4F
:103720005345545F454D3A20544F444F0D0000001F
:10373000B0B548680C46FEF723FB41F2E855A16896
:10374000C2F20005E8600846FEF71AFB2861FDF7A3
:103750006FFBD5E9031202A0BDE8B04001F03EBF07
:103760005345545F465245513A2025752C25750D19
:103770000A00000010B54868FEF702FBC4B2012C35
:103780000CD841F2E851C2F200018872FDF793FDB6
:103790000EA00AA1002C08BF084600E002A0BDE868
:1037A000104002F099BB00BF5345545F4D4F444554
:1037B0004D3A204552524F520D0000005345545F80
:1037C0004D4F44454D3A2046534B0D005345545FF1
:1037D0004D4F44454D3A204C4F52410D00000000E2
:1037E00010B54868FEF7CCFA41F2E254C2F2000488
:1037F000217841F2E552C2F20002C0B21170FDF729
:10380000EFFE2078072803D807A151F8204004E0F4
:1038100046F2C934C0F600040520FDF7E1FE20465B
:10382000BDE8104002F058BBDF620008926100085A
:10383000C4610008AF620008E9630008C9630008BA
:10384000A663000845620008B0B548680C46FEF75C
:1038500097FA054610F0F80FA06818BF0725FEF785
:103860008FFAECB2C5B2204629460022FDF745FC8E
:1038700003A021462A46BDE8B04001F0AFBE00BF1C
:103880005345545F5041434F4E4649473A202564C3
:103890002C25640D0A00000010B54868FEF76CFA8C
:1038A00041B241F2E854000611F1090FD8BF6FF0A0
:1038B0000801C2F20004B0F1B05FC8BF1621617503
:1038C000FDF7B1FC94F9151002A0BDE8104001F01D
:1038D00085BE00BF5345545F504F5745523A20258F
:1038E000642064426D0D0A0010B54868FEF748FA7E
:1038F000142801D20A211DE0282801D2142119E040
:10390000502801D2282115E0C82801D2502111E009
:10391000B0F5487F01D2C8210CE040F2A461884292
:1039200002D24FF4487105E040F64851884238BF52
:1039300040F2A46141F2E854C2F20004E182FDF7D2
:1039400072FCE18A02A0BDE8104001F047BE00BF52
:103950005345545F52414D5054494D453A202564DA
:103960002075730D0A00000001A002F0B5BA00BF77
:103970005345545F534C454550504152414D533A85
:10398000204552524F520D00B0B548680C46FEF724
:10399000F7F9A16804460846FEF7F2F9054641F238
:1039A000E850C2F20000817A582201294FF05C01F0
:1039B00008BF282208BF2C2184504550FDF77BFC0E
:1039C00003A021462A46BDE8B04001F007BE00BF73
:1039D0005345545F54494D454F5554533A2025643F
:1039E0002C25640D0A00000001A002F075BA00BF8A
:1039F00053544152545F5258434F554E543A2054F9
:103A00004F444F0D0000000041F2DD50C2F20000B3
:103A1000017849B10021017041F6D300C2F20000E3
:103A2000017007A002F058BA01A002F055BA00BF19
:103A300053544F505F54583A204552524F520D0044
:103A400053544F505F54583A204F4B0D0000000024
:103A500001A002F041BA00BF53544F505F52584387
:103A60004F554E543A20544F444F0D0010B540F27C
:103A70003044C2F20004207841F2E851C2F2000161
:103A8000087501F08FFDB4F9001002A0BDE81040E8
:103A900001F0A4BD53544F52455F4348414E4E453B
:103AA0004C3A2025640D0A0080B501F07BFD02A090
:103AB000BDE8804002F010BA53544F52455F434F67
:103AC0004E4649473A204F4B0D000000B0B54868BC
:103AD0000C46FEF755F941F2E055A168C2F2000527
:103AE00028800846FEF74CF941F2DE52E168C2F246
:103AF000000210800846FEF743F941F6CC04C2F2FA
:103B000000042060B0B118A002F0E6F9288840F265
:103B10003041C2F200010880FDF78AF9208801F0E7
:103B200001FD01F005FD41F6D100C2F200000121C6
:103B30000170B0BD41F6D100C2F200000021017059
:103B400041F2E850C2F20000007D40F23041C2F282
:103B500000010880FDF76CF901F0F1FC07A0BDE859
:103B6000B04002F0B9B900BF53574545505F5258B5
:103B70003A2053544152540D00000000535745451C
:103B8000505F52583A2053544F500D002DE9F041E8
:103B900048680C46FEF7F4F841F2E056A168C2F21C
:103BA000000630800846FEF7EBF841F2DE52E1688D
:103BB000C2F2000210800846FEF7E2F841F6CC059A
:103BC0002169C2F2000528600846FEF7D9F841F6DF
:103BD000D808C2F20008C7B298F80000002F3ED003
:103BE0002968E1B300285AD131A002F075F941F2F9
:103BF000E250C2F20000007841F2E551C2F2000149
:103C00000870308840F23041C2F200010880FDF7B0
:103C10000FF9288801F086FC46F2843046F217241A
:103C20003D46C0F60000C0F60004012F18BF022573
:103C300008BF04460720012F08BF0620FDF7D0FC6F
:103C4000204688F8005002F047F941F6D200C2F24F
:103C5000000001210170BDE8F04101F069BCF0B144
:103C600041F6D200C2F200000024047001F067FCAB
:103C700041F2E550C2F200000078FDF7B1FC41F2DC
:103C8000E850C2F20000007D40F23041C2F2000173
:103C90000880FDF7CDF80BA088F8004003E046F25D
:103CA0000E30C0F60000BDE8F04102F015B900BFCB
:103CB00053574545505F54583A2053544152540D80
:103CC0000000000053574545505F54583A204F4676
:103CD000460D0000B0B54868FEF752F8C1B202299F
:103CE00088BF0220C0B2012812D0022821D141F29F
:103CF000E250C2F20000007841F2E551C2F2000148
:103D000046F2172408700225C0F6000407201EE0C2
:103D100041F2E250C2F20000007841F2E551C2F2F5
:103D2000000146F2843408700125C0F60004062024
:103D30000DE041F2E850C2F20000807A08B9FCF7C9
:103D400084FF46F269240025C0F600040520FDF733
:103D500047FC204602F0C0F841F6D800C2F200004D
:103D60000570B0BDB0B548680C46FEF709F8A1680B
:103D700004460846FEF704F86FF31F34C5B2204628
:103D80002946FDF7E4FC03A021462A46BDE8B040E1
:103D900001F024BC57524954455F5245473A203000
:103DA00078253034582C3078253032580D0A0000F0
:103DB00080B5012001F08AF944F24021C0F20F01E0
:103DC000884238BF80BD4DF68361C4F21B31A0FB31
:103DD000011244F6D351C1F26201A0FB0101900C23
:103DE00040F2D452C2F2000210704FF0FF3000EBEC
:103DF00091104EF21001CEF2000148604EF62350B1
:103E0000CEF20000E02202700020886007200860E7
:103E100080BD000080B54EF2140140F2D452CEF2C3
:103E20000001C2F20002D1F800C012788AB15043FA
:103E30004FF47A7200FB02FE486800234A6882420F
:103E4000FCD003449B1A824228BF6344734510464A
:103E5000F4D380BD80B54EF2140140F2D452CEF2BC
:103E60000001C2F20002D1F800C012787AB102FB60
:103E700000FE4868002300BF4A688242FCD0034429
:103E80009B1A824228BF634473451046F4D380BD19
:103E90004FF2080CC4F2000CDCF800204AF6BF63B5
:103EA000D20444BF4FF48052CCF80020002241F2EB
:103EB0001651C4F20202C8F69D43C1F21431936157
:103EC0009161116801F40071223111600021936148
:103ED00091614FF0FF310160DCF80000C00406D4AE
:103EE0009068C007FCD001209060002070474FF41C
:103EF0008050CCF800006FF0670070472DE9F04764
:103F000082B04FF20808C4F200081446D8F8002026
:103F10000D46D104814644BF4FF48050C8F80000DC
:103F200000274AF6BF6041F21651C4F20207C8F6F4
:103F30009D40C1F21431B861B961396824F00706B7
:103F400001F4007124313960B8610020B8614FF08C
:103F5000FF30A6420190009009D046F00100844253
:103F600088BF2046A919821B6846FCF7CFF80CB31E
:103F7000DDE900E000224FF0FF3A4FF0010C00BFF6
:103F8000B24205D2A958AB18F960596803E000BFE6
:103F90000146C7F80CE0396142F809A0D8F80010D2
:103FA000C90409D4B968C907FCD00832A242C7F8CD
:103FB00008C0E5D3002005E04FF48050C8F80000A9
:103FC0006FF0670002B0BDE8F0870000B0B543F2C3
:103FD0000005C4F200050446C1B2284601F05EFAAD
:103FE0002846802101F0ADF90028F9D02046B0BD67
:103FF000062A41D8DFE802F0044F1F300E6081002E
:104000000122036802FA01F143EA010202608268B8
:104010000A433AE00122036802FA01F123EA0102AD
:10402000026082688A43826042688A434260826991
:1040300022EA010194E00122036802FA01F143EA55
:104040000102026082680A438260C2680A43C26059
:10405000026922EA01012DE00122036802FA01F15E
:1040600023EA0102026082688A43826042688A43CE
:1040700042608269114373E00122036802FA01F190
:1040800043EA0102026082688A438260C26822EACF
:104090000101C16070470122036802FA01F143EA9D
:1040A0000102026082680A438260C2680A43C260F9
:1040B00002691143016170474FF6004C0122C4F2BE
:1040C000010C8A4060456FEA020331D108292FD3E1
:1040D000DCF818001840CCF81800DCF8080018408C
:1040E000CCF80800DCF800001043CCF80000DCF845
:1040F00010001043CCF8100070474FF60042012327
:10410000C4F2010203FA01FC90426FEA0C031BD1D6
:10411000082919D390691840906190681840906000
:10412000106818401060106940EA0C001061704778
:10413000016819400160816819408160416811433C
:104140004160816911430BE0016819400160816899
:1041500019408160416841EA0C0141608169194060
:104160008161704710B5082913D3083901EB410E5E
:104170008B000F214FF600449940C4F201044FF028
:10418000070CA04204BF0CFA0EF173469A403C2380
:1041900004E08B000F2199409A403823C45824EA48
:1041A00001011143C15010BD4FF6004CC4F2010C87
:1041B0000123604503FA01F31CD108291AD3DCF866
:1041C0001800184203D1DCF8080018421AD0DCF8B5
:1041D0001800184207D1DCF80800184203D1DCF8B7
:1041E0000000184226D00CF12000002A08BF0CF174
:1041F0001C0003E0002A0CBF1C302030016819436A
:1042000001607047DCF800001842E0D0DCF81000D4
:104210001842DCD0002AF4D1DCF818009843CCF81E
:104220001800DCF808009843CCF80800DCF800001F
:10423000984312E0DCF810001842D4D0002AE0D0F5
:10424000DCF818009843CCF81800DCF80800984314
:10425000CCF80800DCF800001843CCF800000CF1A2
:104260001000CBE780B500F021F900F0CFF8FCF7A3
:10427000BDFCBDE8804001F016B980B504200121E5
:1042800000F004FC4FF4A04000F0A1FF002000F07B
:1042900088FF0020002100F08CFF0120C0F20020E8
:1042A00000F09DFF4020012100F07CFCBDE8804033
:1042B000FFF77EBD80B54FF20000C4F20100082177
:1042C0000122FFF771FF0120BDE88040FDF746BCE9
:1042D00070477047B0B549F20004C4F200044FF4CF
:1042E0000070C4F800010720022520602561D4F881
:1042F000040180280BD01420FFF7ACFD0020C4F887
:104300000C011420FFF7A6FD0120C4F80C014EF2A9
:1043100000106560CEF200004FF40011016004F55A
:10432000B6300B210322BDE8B040FFF71BBF0000F1
:1043300010B549F20414C4F20004206820F02000F3
:1043400020606420FFF786FD206840F02000206098
:10435000206820F08000206054F8040C40F0200019
:1043600044F8040C206840F0010020606068C0053B
:10437000FCD410BD4FF20000C4F201000A2101225A
:10438000FFF712BF4FF20000C4F201000A21002221
:10439000FFF70ABF49F20801C4F20001086000BF3C
:1043A000486800F011000128FAD10868C0B27047CF
:1043B00080B50A20FFF74EFD49F20810C4F2000054
:1043C0000168C905FCD480BDFFF757FFFFF74AFF1E
:1043D0006420FFF71FFD0AA001F07EFDFFF779FFC3
:1043E00000F078F96420FFF715FDFFF771FFFEF785
:1043F0005DFD00BF00F0BAF9FFF75AF8FAE700BF19
:104400000D0A45373820746573740D0010B500200F
:1044100000F0B4FE1220012100F0C4FB11200121A4
:1044200000F0C0FB4FF20000C4F201000B21072294
:10443000FFF7DEFD40F2D05441F2D851C2F2000441
:10444000C2F2000100202246FDF70EFB94ED000AA7
:104450009FED151A20EE010A84ED000AFDF773FBAB
:104460000820FDF788FA0120FDF7AFFA0120FDF7DB
:10447000EFFA00200121FDF7B8FA0020FDF78DFAD0
:104480000120FDF7D0FA0120FDF768FB0120012192
:10449000FDF78FFA4EF20010CEF200004FF480319B
:1044A000C0F88011016010BD00007A4480B50D2075
:1044B000012100F077FB2020012100F073FB212077
:1044C000012100F06FFB22200121BDE8804000F0B7
:1044D00069BB70B584B043F20004C4F2000404F573
:1044E000E2360546304601210122FFF73BFE304609
:1044F00000210122FFF736FE002000F087FE1F207A
:10450000012100F04FFB6E46304600F006FF2046CA
:104510003146009500F01AFF2046012100F0F7FE19
:1045200020461021012200F004FF4EF20010CEF2CE
:1045300000004021C0F88011016004B070BDF0B5EA
:1045400081B041F6B603C2F2000341F2E85C41F6E5
:10455000DC021B88C2F2000CC2F20002BCF804109C
:104560005380D2E9020E40F2744711804FF00231BD
:10457000C2F20007C2F81B10C2F81E1002F11006AA
:10458000C7E9020E9CF86400D2E9001370CED2692C
:10459000C7E90013C7E90445BE61FA6130B140F2D2
:1045A0007440C2F200002021FDF72CFB40F2744160
:1045B000C2F200010020202201B0BDE8F040FDF76A
:1045C00063B800002DE9F04F81B02DED0A8B96B055
:1045D00041F69008C2F20008B8F8040098F81AA052
:1045E0001590B8F8000098F806901490D8F80C00D0
:1045F00098F8075098F8086098F8097098F818B07B
:10460000FCF716F841EC180BD8F81000FCF710F87E
:1046100041EC190BD8F81400FCF70AF841EC1A0B1E
:1046200040F2B440C2F20000006898F91940FBF76C
:10463000FFFF41EC1B0B40F2BC40C2F200000068DF
:10464000FBF7F6FF41EC1C0B40F2B840C2F2000051
:104650000068FBF7EDFF41EC100B06A8DDE9142123
:1046600080EC068B0BA053468DED0EBB8DED10CB71
:104670008DED120B0C94CDE90095CDE90267CDF8D4
:1046800010B000F0ABFF16B0BDEC0A8B01B0BDE876
:10469000F08F00BF25642C3078253034582C2563EA
:1046A0002C25643A25643A25642C25642C25642C39
:1046B000252E34662C252E34662C252E31662C258D
:1046C000642C252E31662C252E31662C252E316644
:1046D0000D0A000010B5FFF7FDFD00F0AAFD41F244
:1046E000E854C2F20004206842F26B31CCF66C113F
:1046F000884218BFFCF73EFEFCF7DDFD0EA109A2C3
:10470000002808BF1146084601F0E6FB94F8640053
:1047100018B1FDF7DCFA11A000E00CA0BDE81040D4
:1047200001F0DABB53583132363220696E69742099
:104730004F4B2E0D000000005358313236322069A5
:104740006E6974206572726F722E0D0041455320A0
:1047500064697361626C65642E0D000041455320ED
:10476000656E61626C65642E0D0000002DE9F043FA
:1047700083B041F6D300C2F20000017841F6DC04B8
:10478000C2F2000481B10021017041F60210C2F2B0
:1047900000000088A0805420A076FFF7D0FEFFF72D
:1047A00098FD0420FCF71CFF40F2CC49C2F200093E
:1047B00099F8000088B1002089F8000041F6B400A3
:1047C000C2F200000088A0805220A076FFF7B7FE5A
:1047D000FFF77FFD0420FCF703FF41F2E350C2F234
:1047E00000000178002900F0A98000210170FFF786
:1047F00070FD41F2E858C2F2000898F80A0001285A
:1048000024D10DF10B000DF10A010DF106020DF19D
:104810000903FCF78BFABDF906106FF0FF0212FADC
:1048200081F200EE102A01EE101AB8EEC00AB8EEBE
:10483000C11A9DF80A008029B8BFB0EE410AB5EE52
:10484000001A9DF8091020EE010A0EE00DF1050096
:1048500001A90DF103020DF10203FCF740FA9DF8E6
:1048600003009DF802109FED760A01EE101A03EE88
:10487000100AB8EE411ABEEE002AB8EE433A40F2F2
:10488000B44021EE021A23EE022AC2F2000080EDAB
:10489000002A40F2BC40C2F2000080ED000A40F263
:1048A000B84040F23444C2F20000C2F2000480ED8D
:1048B000001A802021462022FCF7E2FD40F2CD5074
:1048C000C2F20000017841B10021017046F6C72014
:1048D000C0F6000001F000FB2BE098F8640030B156
:1048E00040F23440C2F200002021FDF787F994E83D
:1048F000CF00D4E9065C41F69004C2F2000484E8DB
:10490000CF00C4E9065CFFF75DFEA08841F6B40164
:10491000C2F20001088041F2DD50C2F200000078CE
:1049200038B96088B8F80410884204BF012089F8BB
:104930000000FFF7CDFC0520FCF752FE41F2E450E9
:10494000C2F20000017831B1002101700520FCF7AE
:1049500047FEFFF7BDFC41F6D000C2F2000001782F
:1049600000296AD00021017041F6D200C2F2000095
:10497000007840F23045C2F2000578B341F2806021
:10498000C2F2000001782A8851B1531E41F2E05270
:10499000C2F2000212881FB297422B800ADB0DE0A0
:1049A000531C41F2DE52C2F2000212881FB297423B
:1049B0002B8003DD81F001012A8001700220FCF7C9
:1049C0000FFEFCF735FA41F6D800C2F2000001787C
:1049D0000720012908BF0620FCF702FE41F6D1009E
:1049E000C2F20000007840B3FCF7B9F900EE100AFB
:1049F000B8EE400ABEEE001A20EE010AB5F90040FA
:104A000010EE100AFBF714FE02460B460DA02146DD
:104A100000F0E4FD288841F2DE51C2F200010130CD
:104A2000098802B28A42288005DD41F2E050C2F2D4
:104A3000000000882880FCF7FBF903B0BDE8F08394
:104A40000000000043483D25642C525353493D2546
:104A50002E31662064426D0D0A00000041F2DD50E7
:104A6000C2F200000121017041F60210C2F2000002
:104A7000018041F6D400C2F200000022026041F63B
:104A8000D300C2F20000017070470000052888BF03
:104A90007047DFE800F003513743125E48F2080028
:104AA000C4F20000026900296AD022F020010161ED
:104AB000D0F800124907FBD570470C22C4F200025F
:104AC000136849F2041043F01003C4F200001360AD
:104AD000026800294CD0910607D4016841F02001FA
:104AE0000160016821F080010160016841F003016B
:104AF0000160016841F00401016000BF416889075D
:104B0000FCD5D9E748F20800C4F200000268002989
:104B100022F4C04208BF02F5C04218E048F2080083
:104B2000C4F200000269102322F01802002918BF05
:104B30000823D1180161704748F20800C4F2000050
:104B40000268002922F4004208BF02F50042026018
:104B5000704748F20800C4F200000269C9B122F0AF
:104B600040010161D0F80012B1F1FF3FFADCA3E788
:104B700022F00401016000BF41688907FCD49BE773
:104B800042F02001016100BFD0F800124907FBD4B8
:104B900092E742F040010161D0F800120029FBD4F5
:104BA0008AE70000412888BF7047DFE810F0420024
:104BB0009F01B501E1017B0127013F01F0001C01CC
:104BC000AE000601AA018901CF00FB0106022702FF
:104BD0001C02A300860294014102C4007001E5009A
:104BE000C001DA0089004C0211015A01D6016501A9
:104BF0004D00B9008602860286028602860286027F
:104C000086028602860286028602860286021102D9
:104C100057027E00CB01630086028602860286026E
:104C20008602860286028602860286028602580074
:104C3000FB000C20C4F200004268002914BF42F0BF
:104C4000800122F080013FE20C20C4F200000268E3
:104C500000290CBF22F4000142F4000108E20C20FC
:104C6000C4F20000026800290CBF22F4001142F4D3
:104C70000011FDE10C20C4F200004268002900F0A0
:104C8000F98142F480514160C16901F03F013F293F
:104C9000FAD1816841F02001816000BFC1698906B5
:104CA000FCD5416841F400610EE20C20C4F2000022
:104CB0004268002914BF42F4807122F4807103E23B
:104CC0000C20C4F20000026822F4803261F310422A
:104CD000026000BFC26902F03F023F2AFAD1826837
:104CE00022F0040261F38202826000BFC1694907B9
:104CF000FCD5E2E10C20C4F20000026800290CBFE0
:104D000022F4807142F48071B2E10C20C4F2000000
:104D1000026800290CBF22F0010142F00101A7E165
:104D20000C20C4F20000026800290CBF22F48001AC
:104D300042F480019CE10C20C4F2000002680029CA
:104D40000CBF22F4805142F4805191E10C20C4F256
:104D50000000026800290CBF22F0007142F00071CF
:104D600086E10C20C4F20000026800290CBF22F486
:104D7000004142F400417BE10C20C4F200000268D3
:104D800000290CBF22F4005142F4005170E10C20C4
:104D9000C4F20000026800290CBF22F0806142F0DA
:104DA000806165E10C20C4F20000026800290CBF9C
:104DB00022F0004142F000415AE10C20C4F2000010
:104DC000026800290CBF22F0020142F002014FE10B
:104DD0000C20C4F20000026800290CBF22F48021DC
:104DE00042F4802144E10C20C4F200000268002952
:104DF0000CBF22F0006142F0006139E10C20C4F2E6
:104E00000000426822F0080261F3C302426000BF62
:104E1000C26902F03F023F2AFAD1826822F0010201
:104E200011448160C169C907FCD046E10C20C4F27D
:104E300000004268002900F02F8142F400714160B7
:104E4000C16901F03F013F29FAD1816841F01001A9
:104E5000816000BFC169C906FCD5416841F01001FD
:104E600032E10C20C4F20000026800290CBF22F4D9
:104E7000002142F40021FBE00C20C4F20000026893
:104E800000290CBF22F0807142F08071F0E00C200C
:104E9000C4F200004268002914BF42F0200122F051
:104EA000200111E10C20C4F200004268002900F04A
:104EB000058142F004014160416841F0400103E195
:104EC0000C20C4F20000026800290CBF22F0080187
:104ED00042F00801CCE00C20C4F200000268002976
:104EE0000CBF22F4806142F48061C1E00C20C4F266
:104EF00000004268002914BF42F0010122F00101C4
:104F0000E2E00C20C4F20000026800290CBF22F08D
:104F1000040142F00401ABE00C20C4F2000002687E
:104F200000290CBF22F0805142F08051A0E00C20FB
:104F3000C4F20000026800290CBF22F4804142F450
:104F4000804195E00C20C4F200004268002914BFA3
:104F500042F4806122F48061B6E00C20C4F20000CB
:104F6000026800290CBF22F4801142F480117FE016
:104F70000C20C4F20000426822F0020261F34102F8
:104F8000426000BFC26902F03F023F2AFAD1826844
:104F900022F0020261F34102826000BFC169890709
:104FA000FCD58AE00C20C4F20000026800290CBF86
:104FB00022F0100142F010015AE00C20C4F200006F
:104FC000026800290CBF22F0200142F020014FE0CE
:104FD0000C20C4F20000026800290CBF22F000512E
:104FE00042F0005144E00C20C4F2000002680029A5
:104FF0000CBF22F0800142F0800139E00C20C4F2A5
:105000000000026822F0400261F38612026000BFD5
:10501000C26902F03F023F2AFAD1826822F00802F8
:1050200061F3C302826000BFC1690907FCD544E097
:105030000C20C4F20000026800290CBF22F40061B9
:1050400042F4006114E00C20C4F200000268002960
:105050000CBF22F4003142F4003109E00C20C4F20C
:105060000000026800290CBF22F0804142F080411C
:105070000160704722F40061416000BFC16901F026
:105080003F013F29FAD1816821F02001816000BFF2
:10509000C1698906FCD510E022F01001416000BF13
:1050A000C16901F03F013F29FAD1816821F0100167
:1050B000816000BFC169C906FCD5704722F00401B8
:1050C0004160416821F04001416070474FF08041EC
:1050D0000968C1F302314A1E062A014603D812A00C
:1050E00050F8220003E043F20060C0F26E10012984
:1050F0000FD0022904D0032918BF70470F2100E008
:1051000005214FF080421268C2F30322D0400722EB
:1051100001E00F2208214FF080431B6823FA01F1C0
:105120001140C840704700BF0080000000800000B0
:1051300000366E0100366E010048E80180EE360050
:10514000006CDC020820C4F20000006800F4C030EB
:1051500070470820C4F20000006800F4C0407047A7
:105160000820C4F20000006800F4C0507047082016
:10517000C4F20000006800F4C06070470821C4F267
:1051800000014A6A920406D54A6822F480724A6095
:105190004A6A9204FCD40A6822F060021043086054
:1051A00070474FF080410A6822F470621043086033
:1051B00070474FF0804CDCF8003047F61F72CFF696
:1051C000FC721A4008431043CCF8000070474FF0BF
:1051D00080410A6822F4E0421043086070470121D0
:1051E000C0F20021884208D14EF21000CEF2000039
:1051F000016841F00401016070474FF080410A6886
:1052000022F0007210430860704700000821C4F2C9
:1052100000014A6A520306D54A6822F480124A60A5
:105220004A6A5203FCD40A6822F4C0321043086070
:10523000704780B541F2E8504FF20001C2F2000021
:10524000C0F600019822FAF761FF80BD70B51446E0
:1052500005460E4600B9256828463146FAF795FFFF
:10526000295C61B1054428463146FAF79CFF295C68
:10527000284411B1002100F8011B206000E0002546
:10528000284670BD026922EA010101617047026887
:1052900022F00102114401607047012AC26814BF64
:1052A00022EA01011143C1607047012A426914BF1B
:1052B00022EA010111434161704700690840401A28
:1052C000B0FA80F0400910707047D0F800C08B88A9
:1052D0004FF6FF72934200D02BB92CF07002002BD6
:1052E00008BF103202E02CF060021A438B8922F4CE
:1052F000607C23F080038A7B43EA0C03002A18BFFA
:10530000803303608A680968C26281627047026BF9
:1053100022F00102114401637047602181804FF443
:10532000E131016000214FF04072817182600173B0
:105330007047002A826B14BF114322EA0101816386
:1053400070478069084018BF0120704770B5044657
:10535000006B43F2000620F001002063E06AC4F213
:10536000000620F010000D46E0620020B442A06369
:1053700011D041F20000C4F20100844213D0002099
:10538000C4F2010084420AD0B4F1402F15D1FFF7D6
:10539000E0FE400B0AE0FFF7D5FEC00B06E0FFF78A
:1053A000DFFEC00A02E0FFF7E2FE400A01380328F0
:1053B00003D234A151F8200009E0B4F1402F01D00C
:1053C000B44201D1022000E00320FFF77FFE2968EC
:1053D000B0EB011F3CBF4FF0FF3070BD71B10A014F
:1053E000B0FBF2F303FB1200C000B0FBF1F000F0E1
:1053F000010101EB5000C0EA034000E00020010C75
:1054000000F03F006162A062E06A2A7920F060014A
:1054100011436879AB792E7BE162E16A002E21F0BD
:10542000080141EA0301E162E16A21F0100118BFBD
:105430001031E16298B1022809D0012813D1E06A45
:1054400040F00200E062E06A20F004000AE0E06A56
:1054500040F00200E062E06A40F0040002E0E06A2E
:1054600020F00200E062206B698920F4407008435C
:105470002063206B298920F44040084320630020EA
:1054800070BD00BF80EE36000080000000366E0167
:105490008169C906FCD40068C0B27047826992066F
:1054A000FCD401607047B0B584B00C200121012507
:1054B000FFF778FB4AF20004C4F200042046012101
:1054C0000122FFF7EAFE1F2000904FF6FF70ADF8B3
:1054D00004004FF47A7002900020ADF80C00694689
:1054E00020468DF80E50FFF7F0FE204601210122E4
:1054F000FFF7D3FE204601210122FFF7D6FE20460A
:105500000121FFF7BFFE4EF20010CEF200004FF473
:105510000001C0F88011016020460021FFF7B7FEAE
:1055200004B0B0BD4AF22C01C4F20001086070471B
:105530004AF20000C4F200000121FFF7A8BE4AF2BF
:105540000000C4F200000021FFF7A1BEF0B581B059
:10555000044652B100F052F8054600202860694622
:1055600020460022FAF745FE0CE0CF0000F046F896
:10557000002605460660694620460022FAF771FEBD
:10558000F8400CD1286808B1002608E00098051BF7
:105590002046FAF7E5FD281AB0FA80F046093046B1
:1055A00001B0F0BDB0B540F2D854C2F2000441F2EF
:1055B000E851C2F2000120469822FAF7A7FD4FF207
:1055C0000005C0F600052846FEF762FC2846214685
:1055D0004FF48052BDE8B040FEF790BC0FB4054BCD
:1055E00010B503A9044A029800F0DEF810BC5DF87B
:1055F00014FB0000CD3F0008000000200048704769
:105600000400002002E008C8121F08C1002AFAD1D5
:1056100070477047002001E001C1121F002AFBD132
:10562000704700002DE9FF5F82B00021DDE9043002
:10563000020DDDF840B0034318D044F61050A2F23A
:10564000FF3242431514119801281FD0A5EB0B001F
:10565000401C5FEA000A4FF000064E4FDFF8389119
:10566000B046504615D5CAF1000413E01198012444
:105670004AA3012801D16FEA0B010298119AC0E9EF
:105680000031C0E9024206B0BDE8F09FCBF1000056
:10569000DFE704460021404A491842EB0450CDE9B7
:1056A000001012E0E00707D032463B46404649462C
:1056B000FAF7B7FE8046894632463B461046194601
:1056C000FAF7AFFE06460F466410002CEAD1DDE97A
:1056D0000401DDE90023BAF1000F06DAFAF7A1FEB2
:1056E00042464B46FAF79DFE05E0FAF70CFF4246AC
:1056F0004B46FAF708FF04460E460022284BFBF7FC
:1057000045F903D84FF0FF30014607E00022254B52
:1057100020463146FAF7DEFDFBF71FF9102409E0B9
:10572000002C0ADB0A220023FAF7C7FF039B303262
:105730001A55641E50EA0102F2D1641C039AC4F1A6
:1057400011031444119A012A03D0012208430DD1F8
:105750000AE0084304D000204FF0110B119072E7CB
:10576000A3EB0B056D1E0DE05B4504DD4FF0000261
:1057700005F1010504E003DA4FF00002A5F101058F
:10578000002AECD002981199C0E90231C0E9004525
:1057900079E70000000014400000F03F30000000F6
:1057A0000000F0430000E03F2DE9FF4F95B09B461D
:1057B0008946064600250FE2252877D10024274692
:1057C000F84A0121059400E0044316F8013F203B0C
:1057D00001FA03F01042F7D130782A2811D06FF087
:1057E0002F033078A0F13002092A16D8059A44F028
:1057F000020402EB820203EB42021044761C059085
:10580000EFE759F8042B0592002A03DA504244F4DA
:105810000054059044F00204761C30782E2816D1EE
:1058200016F8010F44F004042A280DD06FF02F025F
:105830003078A0F13003092B09D807EB870302EB7E
:105840004303C718761CF3E759F8047B761C3078BD
:105850006C280FD006DC4C2817D068280DD06A2899
:1058600014D104E0742810D07A280FD10DE044F44C
:1058700000140AE044F4801401E044F44014727807
:10588000824202D104F58014761C761C307866289A
:105890000BD013DC582877D009DC002875D04528B8
:1058A000F6D04628F4D047281AD19DE118E06328A5
:1058B00035D0642879D0652812D195E1702873D04D
:1058C00008DC6728F1D069286FD06E280DD06F28CA
:1058D00006D1B5E073282CD0752875D0782874D0FF
:1058E0005A46179990476D1C75E1C4F3025002287F
:1058F00009D003280DD0D9F8001004280DD00D6070
:1059000009F1040967E1D9F80010EA17C1E900526A
:10591000F6E7D9F800100D80F2E70D70F0E719F8FE
:10592000041B8DF8001000208DF80100EA460120CC
:1059300003E059F804AB4FF0FF3061074FF000016E
:1059400002D40DE008F101018846B9420FDA804522
:10595000F8DB1AF808100029F4D108E008F1010179
:1059600088468142FADB1AF808100029F6D105981A
:105970005B46A0EB080721463846179A00F094FAD8
:10598000284400EB080507E04DE029E10DE01AF896
:10599000010B5A4617999047B8F10108F7D25B46B8
:1059A00021463846179A13E142E00A220092C4F3D6
:1059B00002524FF0000A022A08D059F804CB032AF9
:1059C0004FEAEC710AD00DE029E02AE009F1070165
:1059D00021F00702F2E802C1914609E00FFA8CFCBF
:1059E0004FEAEC71042A03D14FFA8CFC4FEAEC71B8
:1059F000002907DA0A460021DCF1000C61EB020104
:105A00002D2202E0220504D52B228DF8042001224C
:105A100003E0E20701D02022F7E7904659E00A218F
:105A200002E010220DE010214FF0000A00910BE07F
:105A300010224FF0000A44F004040827009203E00B
:105A400008224FF0000A0092C4F30252022A05D045
:105A500059F804CB0021032A08D009E009F1070115
:105A600021F00702F2E802C1914605E01FFA8CFC22
:105A7000042A01D10CF0FF0C4FF00008220728D5B2
:105A8000702806D0009B83F0100353EA0A0305D068
:105A90000EE040228DF80420012208E05CEA0102B9
:105AA00006D030228DF804208DF8050002229046A1
:105AB000009B83F0080353EA0A030AD15CEA01025F
:105AC00001D1620705D530228DF804204FF001087E
:105AD0007F1E582804D034A003900EA802900DE039
