:020000040800F2
:1000000040230020E90000088F0B0008250B0008A2
:100010008D0B0008210B0008C91700080000000024
:10002000000000000000000000000000830C000839
:10003000FD00000800000000930B0008CD1600082A
:100040000301000803010008030100080301000880
:100050000301000803010008C51700080301000898
:100060000301000803010008030100080301000860
:100070000301000803010008030100080301000850
:10008000610A0008030100080301000803010008D9
:1000900003010008490B00080301000803010008E0
:1000A0000301000803010008030100080301000820
:1000B0000301000803010008030100080301000810
:1000C0000301000803010008910B00080301000868
:1000D00003010008DFF80CD000F070FC0048004776
:1000E000113E00084023002006488047064800478C
:1000F000FEE7FEE7FEE7FEE7FEE7FEE7FEE7FEE7D8
:10010000FEE7FEE76D170008D500000810B5431A9A
:10011000934209D28318881803E010F8011D03F8F0
:10012000011D521EF9D210BD40EA01039B0703D006
:1001300009E008C9121F08C0042AFAD203E011F826
:10014000013B00F8013B521EF9D210BDCAB2401E5D
:1001500010F8011F8A4202D00029F9D1002070470F
:10016000421C10F8011B0029FBD1801A704710B502
:10017000002200E0521C835C8C5CA34201D1002B66
:10018000F8D1D8B2E1B2401A10BD30B503461D789F
:100190003DB10A4612F8014B1CB1AC42FAD15B1CCE
:1001A000F5E7181A30BD30B50546002008E00A46CC
:1001B00002E0A34207D0521C1378002BF9D1401C57
:1001C0002C5C002CF3D130BD2DE9F0410E460546E4
:1001D000002400E0641C285D00F0D6FA0746305D7C
:1001E00000F0D2FA381A02D1295D0029F2D1BDE817
:1001F000F0812DE9F04791460F46804604460026DF
:1002000014F8015B2DB100F0BBFA0068405DC00737
:10021000F6D12B2D02D02D2D18D0641E4A4639461A
:10022000204600F0B7FA27B13968A14201D1C7F8DA
:10023000008071054FF002040BD54042002803DD19
:1002400004F05AFE0460A007BDE8F08746F480661B
:10025000E4E70028F8DA04F04FFE04606FF0004095
:10026000F2E72DE9F05F93460F46804604460026EC
:1002700004F042FED0F80090824614F8015B2DB1E4
:1002800000F07EFA0068405DC007F6D12B2D02D049
:100290002D2D1AD0641E0021CAF800105A46394686
:1002A000204600F077FA014627B13868A04201D114
:1002B000C7F80080DAF80000022809D0CAF80090D8
:1002C000700505D54842BDE8F09F46F48066E2E738
:1002D0000846F8E72DE9FE4F804681EA0300C00F8B
:1002E0000C46009021F0004123F00045B8EB0200DD
:1002F000A94105D24046214690461C460B4602467F
:1003000023F00040104347D0270DC7F30A00C3F382
:100310000A510290401A019040286BDAC3F313008F
:1003200040F4801B0098924620B10023D2EB030AD0
:1003300063EB0B0B01985946C0F14002504600F0A8
:10034000EDF906460D4650465946019A00F005FA69
:1003500010EB08006141002487EA115284EAE77338
:100360001A4340D0009A62B3019A012A4FEA075219
:1003700015DC001B61EB02014FF0004202EA07525C
:10038000CDE90042001C41F5801132462B4600F0B9
:1003900096FA03B0BDE8F08F40462146F9E7001B0E
:1003A00061EB0201001C41F5801300185B4120182D
:1003B000A2F5001747EB030140EAD570B6196D416D
:1003C00011E06D084FEA360645EAC0754FEA07525C
:1003D000001B61EB0201001C41F5801149084FEA46
:1003E00030000019514132462B4603B0BDE8F04FB2
:1003F00000F056BA0098012240000023D0EB020220
:1004000063EBE073009821464FEAE074B8EB00001C
:1004100061EB0401E9E783F000435BE781F0004111
:1004200058E72DE9FE4F81EA030404F0004421F06F
:10043000004100944FF0000B23F0004350EA010408
:100440005ED052EA03045BD0C3F30A54C1F30A55E9
:100450002C44A4F2F3340194A0FB0254C1F3130121
:1004600041F48011C3F3130343F4801301FB0244EE
:1004700000FB034E840A970A44EA815447EA8357F3
:10048000A4FB076802958D0A05FB07854FEA932CAC
:1004900004FB0C542705029D4FEA065847EA16371D
:1004A000B5EB08056EEB070C870E920E47EA811735
:1004B00042EA8312A7FB0201B6EB0B0164EB0004D6
:1004C0002B0D43EA0C335E1844EB1C50DA465146C0
:1004D000E7FB0201C5F313044FEA0B3343EA14535D
:1004E0004FEA0432019C43EA0603A4F10C0402948F
:1004F000009CCDE900B400F0E2F903B0BDE8F08F54
:1005000000200146F9E72DE9F04D81EA030404F0EB
:10051000004B21F0004514464FF0000A23F0004143
:1005200050EA050220D054EA01021DD0C5F30A5753
:100530000246C5F31303C1F31300C1F30A5640F496
:10054000801543F48013A7EB0608101BD64608F26B
:10055000FD3873EB050002D308F1010801E09218A1
:100560005B41B8F1000F03DA00200146BDE8F08DD1
:1005700000204FF48011064684460EE0171B73EBF3
:10058000050705D3121B63EB050306434CEA010C78
:1005900049084FEA300092185B4150EA0107EDD15B
:1005A00052EA030012D082EA040083EA05010843FC
:1005B00005D0101BAB4106D20122002306E0002229
:1005C0004FF0004302E06FF0010253101AEB0600F7
:1005D0004CEB085110EB0A0041EB0B01BDE8F04D6C
:1005E00000F05EB90EB540F2334102910021CDE931
:1005F00000110A460B4600F062F903B000BDC1F3DA
:100600000A5210B5C1F3130140F2FF3341F48011D7
:100610009A4201DA002010BD40F233439A42A2F21E
:10062000334203DC524200F088F810BD904010BD08
:1006300000F0004230F000400AD0C10D01F56071B9
:10064000C0F3160042EA0151C20840071143704747
:1006500000200146704701F0004330B421F0004112
:1006600050EA010206D00A0DA2F56072C1F313012F
:10067000002A02DC30BC00207047440F44EAC10469
:10068000C100E01830BC00EBC25000F0D2B830B569
:100690000B46014600202022012409E021FA02F540
:1006A0009D4205D303FA02F5491B04FA02F52844DA
:1006B000151EA2F10102F1DC30BD2DE9F05F054607
:1006C000002092469B4688460646814640241BE011
:1006D000284641464746224600F02FF853465A46E0
:1006E000C01A914110D311461846224600F016F860
:1006F0002D1A67EB01084F4622460120002100F029
:100700000DF817EB00094E41201EA4F10104DFDCB7
:10071000484631462A464346BDE8F09F202A04DB7E
:10072000203A00FA02F1002070479140C2F1200304
:1007300020FA03F3194390407047202A04DB203A43
:1007400021FA02F00021704721FA02F3D040C2F1F1
:1007500020029140084319467047202A06DBCB1738
:10076000203A41FA02F043EAE07306E041FA02F36C
:10077000D040C2F120029140084319467047000062
:10078000004870477C580008A0F14101192900D8A1
:10079000203070472DE9F05F82460078002715462B
:1007A0008B460AF10104B946302801D09DB113E00F
:1007B00014F8010B0127782803D0582801D045B13F
:1007C0000AE00DB1102D07D10027102514F8010BF8
:1007D00002E0082500E00A250026B0460EE005FBF1
:1007E000080005FB06F1012701EB10461FFA80F80F
:1007F000B6F5803F00D3B94614F8010B294600F046
:10080000F5F80028EBDABBF1000F05D00FB1641E3C
:1008100000E05446CBF80040B9F1000F06D004F0D8
:100820006BFB02210160C81EBDE8F09F48EA06404C
:10083000FAE70029A8BF7047401C490008BF20F014
:100840000100704710B4B0FA80FC00FA0CF050EAD6
:10085000010404BF10BC704749B1CCF1200421FA57
:1008600004F411FA0CF118BF012121430843A3EB52
:100870000C01CB1D4FEA00614FEA102042BF00205F
:1008800010BC704700EBC35010440029A4BF10BC3B
:100890007047401C490008BF20F0010010BC7047A1
:1008A00010B5141E73F1000408DA401C41F1000178
:1008B00092185B411A4301D120F0010010BD2DE9CF
:1008C000F04D92469B4611B1B1FA81F202E0B0FAC6
:1008D00080F220329046FFF721FF04460F4640EA9F
:1008E0000A0041EA0B0153465A46084313D0114609
:1008F00053EA010019D0C8F140025046FFF71DFF2E
:1009000005460E46504659464246FFF707FF084344
:1009100005D0012004E020463946BDE8F08D0020D6
:10092000054346EAE0762C4337430A986305E40A18
:10093000A0EB08000022FD0A44EA47540A3002D521
:1009400000200146E9E7010510196941DDE9084584
:1009500000196941BDE8F04DA2E7C1F30A52C1F3A5
:10096000130140F2FF3341F480119A4202DA002071
:100970000146704740F233439A42A2F2334202DC0E
:100980005242FFF7DABEFFF7C9BE000030B5041EC1
:1009900071F1000404DB4FF00044404264EB0101BC
:1009A000141E73F1000405DB1C464FF00043524255
:1009B00063EB0403994208BF904230BD1CB509485F
:1009C0000090094801900546009C06E0E06840F070
:1009D000010394E8070098471034AC42F6D3FFF7C0
:1009E0007DFB000018640008386400083A2800D233
:1009F000303820F02002412A01D3A2F1370088428A
:100A000001D34FF0FF30704770B58C1810F8015BC0
:100A100015F0070301D110F8013B2A1106D110F897
:100A2000012B03E010F8016B01F8016B5B1EF9D19B
:100A30002B0705D40023521E0DD401F8013BFAE721
:100A400010F8013BCB1A921C03E013F8015B01F88C
:100A5000015B521EF9D5A142D8D3002070BD000021
:100A6000F0B581B0012000F0D5FE002000F0ABFF12
:100A700000F096FFFFF7B6FD044640F21060C2F2A8
:100A8000000000680D46FFF7D3FD9FED230B0646DF
:100A90000F4653EC102B20462946FFF7C2FC324686
:100AA0003B46FFF7B8FC044641F21860C2F2000072
:100AB00000680D46FFF7BCFD02460B46204629465E
:100AC000FFF721FDFFF7C7FD0446002000F0F7FE09
:100AD00041F62305C2F200052E7840F2005140F2A3
:100AE0000450C2F20001C2F20000002E18BF0146FD
:100AF0000C604FF00F014FF0000018BF0D2100F007
:100B0000C0FE86F001010120297001B0BDE8F0406F
:100B100000F0D5BE00BF00BF0000000000C0D23F03
:100B2000FEE7000003A004F055FE642002F0D2FEB0
:100B300000F04CFE48617264204661756C74206F51
:100B400063637572730D000010B500F0F5F804468C
:100B500047F6FF7000F0C3F8E00705D041F6220029
:100B6000C2F2000001210170A00705D541F6210065
:100B7000C2F2000001210170600658BF10BD40F2B2
:100B80000D60C2F200000121017010BDFEE7704748
:100B90007047704770B55E2828BF5E204408A0EB00
:100BA000500541F62800C2F200008471C57141F67B
:100BB0002000C2F20000007841F62406C2F20006CE
:100BC0003070022000F0F0FB40F61110214600F0DA
:100BD00097FCE9B240F6121000F092FC3078BDE8C4
:100BE000704000F0E1BB10B541F21C64C2F2000499
:100BF000207878B940F20000C2F2000000214FF4E2
:100C0000806200234FF0FF304FF4E13003F0A1F990
:100C10000120207041F6C421C2F2000108680128B9
:100C200016DB41F6C822C2F20002106841F6C10389
:100C3000C2F20003185C1368013313601368B3F544
:100C4000007F04BF002313600A68013A0A6010BDE8
:100C50004FF0FF3010BD80B540F20000C2F200003E
:100C600000214FF4806200234FF0FF304FF4E13059
:100C700003F06FF941F21C60C2F200000121017023
:100C800080BD704780B541F62800C2F20000C06800
:100C90004DF68361C4F21B31A0FB0101880CB0F555
:100CA0007F7F4FF47F7038BF880C810800EB4000D5
:100CB0004FF47F724308B3F57F7F38BF4208900836
:100CC00041F21D72C2F2000298239070032013704B
:100CD000517003F063F8BDE8804003F08DB841F235
:100CE0001D720146C2F2000202201070080A507004
:100CF0000320917003F052B8F0B581B0074641F27D
:100D00001D700E46C2F20000142101700021C0F8CF
:100D1000011005201C46154603F040F841F21D6005
:100D2000C2F200004178397081783170C178297041
:100D30000079207001B0F0BD80B541F21D70C2F2A3
:100D4000000012210160042003F028F841F21D6028
:100D5000C2F20000408800BA000C80BDF0B581B03E
:100D6000074641F21D700E46C2F2000014210170C8
:100D70000021C0F8011005201C46154603F00EF8AE
:100D800041F21D60C2F20000417839708178317003
:100D9000C17829800079207001B0F0BD80B541F2A2
:100DA0001D70C2F200001521018000218170032016
:100DB00002F0F4FF41F21D60C2F20000807880BDB5
:100DC00080B541F6280040F27041C2F20000C2F244
:100DD0000001B1F90010D0E9030202FB0100FFF7A6
:100DE00001FC9FED0D0B53EC102BFFF78CFBFFF775
:100DF00006FC41F21D720146C2F20002862010700C
:100E0000080E5070080C9070080AD07005201171FF
:100E1000BDE8804002F0C2BF000000008084EE3FC9
:100E20002DE9F04141F21D770646000AC2F20007A3
:100E30000D4640F20D64BC21F870042090463C80C1
:100E4000B97002F0ABFFBD20B87004203C80FE708A
:100E500002F0A4FF280ABE21F87004203C80B9707B
:100E600002F09CFFBF20B87004203C80FD7002F0AF
:100E700095FF40F21D60C0F2B80038600020387164
:100E8000052002F08BFF41F21D60C2F200000079E4
:100E9000C8F3002100F0FE000844B821F8700420D7
:100EA0003C80B97002F07AFFB9203C80B870042011
:100EB00087F80380BDE8F04102F070BFB0B54DF691
:100EC000836CC4F21B3CA3FB0CE44FEA143E43F6D4
:100ED00009540EFB143341F6846444EA8333A3FBC4
:100EE0000C3440F2000CC3F6095CBCFBF0F36FF06D
:100EF0007F45AB4228BF2B4660454FEA143000EBDC
:100F00008E3041F21D7488BF0123A84238BF0546C8
:100F1000C2F200048B202070180C6070180AA070B8
:100F2000280CA071280AE37021716271E071092018
:100F30002572BDE8B04002F031BF70B58E1F18BFFA
:100F400001260523052888BF03460C2B41F21D7599
:100F500028BF0C23C2F200058B240A284FF00000A2
:100F60002C706B70A970EA7088BF01202871052071
:100F7000002402F013FF40F61D00C0F28900286033
:100F800005202C7102F00AFF41F21D60C2F2000040
:100F9000007900F0FB0040EA860140F60D00288051
:100FA0008920A8700420E970BDE8704002F0F6BE08
:100FB00070B541F21D74049E012898BF0120C2F251
:100FC00000048C252570050AA07007206570E1706B
:100FD00022716371A67102F0E1FE40F21D70C0F251
:100FE0003600206000202071052002F0D7FE41F27B
:100FF0001D60C2F200000079002E00F0FB0140F2FB
:101000000D7008BF043120803620A0700420E170EC
:10101000BDE8704002F0C2BE41F21D7CC2F2000C7D
:1010200095238CF800308CF80100072928BF072190
:101030008CF80210012105208CF803208CF8041094
:1010400002F0ACBEB0B541F21D7440F29540C2F260
:101050000004C0F20700206001202071052002F08A
:101060009DFE40F60D00C3F6E7002060042002F06C
:1010700095FE8E20207041F62800C2F20000417DCE
:10108000C08A6170143814284FF0000038BF012066
:10109000A0700320002502F081FE40F61D00C0F282
:1010A000D80020600520257102F078FE41F21D6015
:1010B000C2F20000007940F01E0140F60D002080D1
:1010C000D820A0700420E170BDE8B04002F066BEF8
:1010D00010B549F20804C4F200040020C4F8040169
:1010E000142002F017FCC020206000BF606800F0F0
:1010F00011000128FAD1206800202060606800F00B
:1011000011000128FAD120680120C4F804010A2046
:1011100002F000FCD4F80001C005FBD410BD2DE99D
:10112000F04102F011FEFFF7D3FF0A2002F0D2FBDC
:1011300041F62004C2F20004012041F21D75207026
:10114000C2F2000580202880022002F027FE4FF422
:10115000CB702880022002F021FE41F62807C2F25F
:101160000007B87A20B1012858D100F067FA01E0F1
:1011700000F0D4F9F86A6FF07F41884238BF014629
:10118000080C6870080A4FF08208A870042085F8DF
:101190000080E97002F002FEFFF774FD022020706B
:1011A0004FF4C0702880022002F0F8FDB87940F6B4
:1011B0000D161121E87004202E80A97002F0EEFDBA
:1011C000F8791221E87004202E80A97002F0E6FD63
:1011D000FFF738FF40F60D00C9F2AC60286004202C
:1011E00002F0DCFD40F29D102880022002F0D6FDC6
:1011F0000820C0F24F0028600F2028710027092026
:10120000C5F8057002F0CAFD02F0C0FD052020708F
:101210000420C5F8008002F0C1FD00E0FF2778B28D
:10122000BDE8F08110B541F6280040F6002240F2FA
:10123000000EC2F20000C0F20A02C0F6082EC0E999
:10124000052E4CF66C12C0F22012C0F822204CF28F
:101250005032026341F20932828646F2A81282635A
:10126000202242F26B31828741F20402CCF66C11EB
:10127000C6F6C94201604FF0FF31C0F83E2046F685
:10128000233281804FF4C851C6F6C942018145F22C
:10129000007148F2A063C0F8422046F62332C1F242
:1012A000A661C0F20103A0F846202022C0E9031382
:1012B0000021C1F60F52C0E9121241F22102A0F83A
:1012C00050204FF4807240F20114A0F8542041F2F3
:1012D00088324FF0010CC0F24004CFF6FF7280F864
:1012E0000AC0C46180F8201080F82610C0E90A11F5
:1012F00080F852C0C0E91611026680F8641000BF81
:10130000421882F8651001312029F9D103F0C7FD98
:1013100002A004F05FFA002010BD00BF436F6E66AC
:10132000696720696E6974204F4B2E0D0000000024
:1013300070B50D4641F21D711446C2F200011E2225
:1013400041F21D660A7048700020C2F200060021BA
:1013500056FA81F20131CBB2AB429070F8D9E81C59
:10136000C0B202F01BFD3DB1F01C00BF10F8011B24
:10137000013D04F8011BF9D170BD80B541F21D712A
:10138000C2F200011D220A70020A88700020A1F832
:10139000030005204A7002F001FD41F21D60C2F217
:1013A0000000007980BD000007281FD8DFE800F0AA
:1013B00004395463721E2D4841F62000C2F2000029
:1013C0000021017041F62800C2F20000417E007E3B
:1013D000002941F21D7118BF40F00400C2F2000163
:1013E0008422487002200A7002F0D8BC41F6200026
:1013F000C2F200000521017041F21D70C2F200002E
:1014000082210160042002F0C9BC41F62000C2F232
:1014100000000621017041F21D70C2F20000D121CE
:1014200034E041F62000C2F200000121017041F2D7
:101430001D70C2F2000080210180022002F0AEBCCB
:1014400041F62000C2F200000721017041F21D7038
:10145000C2F20000D22119E041F62001C2F20001DF
:101460000220087041F21D71C2F200014FF4C072F7
:101470000A8002F093BC41F62000C2F20000032172
:10148000017041F21D70C2F20000C1210170012003
:1014900002F084BC41F62001C2F200010420087071
:1014A00041F62801C2F20001896A6FF07F42914241
:1014B00038BF0A4641F21D71C2F2000183230B704E
:1014C000130C4B70130A8B70CA7002F067BC0000DB
:1014D00041F21D7CC2F2000C0E238CF800308CF817
:1014E000010049B10CF102000B4600BF12F801CB1C
:1014F000013B00F801CBF9D1881CC0B202F04EBC10
:1015000041F21D72C2F200020D231370030A9070A3
:1015100004205370D17002F041BC00002DE9F0416D
:1015200082B041F21D74C2F200048A2020800220A1
:10153000022602F033FC41F62808C2F2000898F8AF
:10154000140040F27041C2F200010880FFF738FC3D
:101550008F2020808020A070032002F01FFCD8F88C
:10156000300098F8341098F83520D8F83830FFF764
:10157000A5FCB8F83C1098F83E208C20B8F84BC079
:1015800098F83F3098F8487098F84D5098F852E025
:10159000012998BF01212070080A6070501EC0B256
:1015A000072AA17028BF0722032838BF0422402B36
:1015B0004FF00A00E27028BF40232371022F38BF8A
:1015C0003E466671A4F806C0257284F809E002F070
:1015D000E5FBD8E9100100266F4640F20D65CDE924
:1015E000000100BF46F0C000B95DA0700420258056
:1015F000E17002F0D3FB0136082EF3D198F84900D0
:1016000098F84A5040F20D66CD21E0700420268003
:10161000A17002F0C3FBCE20A07004202680E570EC
:1016200002F0BCFBB8F84E00B8F85010B8F85420DF
:10163000FFF7F6FB002002B0BDE8F08170B582B084
:1016400041F21D76C2F200064FF4C57030800220D0
:1016500002F0A4FB41F62805C2F20005287D40F205
:101660007041C2F200010880FFF7AAFB8F20308092
:101670008020B070032002F091FBA87EE97E2A7FD3
:10168000FFF75BFCE88B95F8201095F8242095F87F
:10169000253095F826400094FFF78AFC95F8230042
:1016A00040F20D744021F07004203480B17002F0DB
:1016B00075FB95F822004121F07004203480B17050
:1016C00002F06CFB002002B070BD000040F2085038
:1016D000C2F20000016801310A29016007D180B51A
:1016E00000210160012000F06EF9BDE8804041F664
:1016F0001D01C2F20001087868B341F61030C2F251
:10170000000040F268430268C2F200031B88013205
:101710009A4202601FD30022026041F63E30C2F2BC
:10172000000003880133038041F63C33C2F200031A
:1017300000881B88984208D941F60F30C2F2000099
:10174000027005A00A7004F045B841F60F30C2F2ED
:10175000000001210170704753454E445F504143E2
:101760004B45543A20444F4E450D00004EF6225052
:10177000CEF20000D0F866100C2241F47001C0F8DF
:101780006610C4F200021368082143F08003C4F21B
:1017900002011360CA68012363F31342CA6000BFE9
:1017A0000A689207FCD5E02101704EF2004100204A
:1017B000CEF20001C02200BF425401302528FBD1E7
:1017C00002F056B800F014B9FEE700004EF60C50D7
:1017D000BFF34F8FCEF200000168042201F4E061F4
:1017E000C0F2FA5211430160BFF34F8F00BFFDE713
:1017F0004EF60C50BFF34F8FCEF20000016804226A
:1018000001F4E061C0F2FA5211430160BFF34F8F5F
:1018100000BFFDE747F21401C4F201010A6802406B
:10182000824218BF70470A68104308607047002161
:10183000B1EB103F18BF704747F20401C4F2010139
:101840000A6840F6FF739A430A600A68104308600A
:10185000704747F20401C4F201010A6822F4401201
:101860000A600A68104308607047002947F21801AF
:10187000C4F201010A680CBF22EA000010430860AC
:10188000704780B547F20802C4F201026FF01F03EF
:10189000043203EB800308283CBF47F20802C4F27D
:1018A000010238BF83004FF00F0CD2F800E00CFAB1
:1018B00003F02EEA000099400843106080BD47F213
:1018C0000001C4F201010A6808B142B17047D007B3
:1018D000FCD00868400748BF7047022000E00120A4
:1018E0000A681043086070472DE9F04381B08946CB
:1018F00042F23001C1F20001D1E900149046052204
:10190000002818BF0D2221FA02F04FF00405C0B2E2
:1019100018BF0D25FEF766FE9FED190B53EC102B3B
:10192000FEF77FFD9FED180B53EC102BFEF7D2FC5A
:10193000064624FA05F06FF35F200F46FEF752FECD
:101940009FED130B53EC102BFEF76BFD9FED120B6D
:1019500053EC102BFEF7BEFC04460D4630463946CC
:10196000FEF779FEC9F8000020462946FEF773FE0F
:10197000C8F8000001B0BDE8F08300BF00BF00BFA1
:10198000FCA9F1D24D62603F000000000000F03F72
:10199000FCA9F1D24D62503FFCA9F1D24D62D0BFFB
:1019A00047F21C00C4F2010000686FF31F3070475B
:1019B00048F24401C4F20001086820F47072642007
:1019C0000A6001F0A7BF47F20001C4F201010A68F2
:1019D00030B1D0070BD00868800708D4042003E09A
:1019E000500758BF704708200A68104308607047C6
:1019F00010B543F20004C4F200042046102103F0A5
:101A00006FF900B110BD204603F012FA41F6CC2167
:101A1000C2F200010A6841F6C103C2F20003985401
:101A200008680130086041F6C420C2F20000026874
:101A3000013202600A68B2F5007F04BF00220A602A
:101A40000268B2F5007FDDDD00220A60026041F627
:101A5000C820C2F20000026010BD0000022988BF49
:101A6000704702A050F8210003F0B4BEEE5A0008FF
:101A7000FD5B0008255C000800210022FEF7B9BBD1
:101A800000210022FEF7EDBB844600284FF0010044
:101A900018BF002900D17047CCF8001000200CF1CD
:101AA00008010DC18CF80400704700002DE9F04FCB
:101AB00081B0804620B3D8F8000008B308F10804CC
:101AC00000260027FEF74CFB54F8041C054629B1FC
:101AD0000846FEF745FB014601E000BF0021AF428A
:101AE000C8BF3D468E42C8BF31462268A068002A62
:101AF0001CBF0E462F46002804F11004E2D101E07D
:101B00000026002728A003F065FE46F2BE30C0F68E
:101B1000000003F05FFEB8F1000F3AD0D8F80020C3
:101B2000BAB37D4246F2114746F2B73A764208F11F
:101B300008040FF2A408C0F600070FF28C09C0F6E3
:101B4000000A0FF2880B00BF206858B148462946AA
:101B500003F0C2F954F8042C42B11078002808BFF1
:101B6000524604E0404611460AE000BF524658463D
:101B7000314603F0B1F9616821B1087810B115A0C0
:101B800003F0AAF9384603F025FEA2681034002AB3
:101B9000DAD146F21140C0F6000003F01BFE01202E
:101BA00001B0BDE8F08F00BF3C636F6D6D616E6486
:101BB0003E203C617267733E203C68656C70207407
:101BC0006578743E0D000000252A730020252A73D5
:101BD0000000000020257300202D2D2D20257320CE
:101BE0002D2D2D002DE9F04F9BB000284FF0FF095F
:101BF00000F05081002900F04D810446D0E902A098
:101C000015465244824280F03B8120682A46504467
:101C1000FEF77CFAA0684FF00008284482454FF098
:101C20000009A06080F036810AA946F2134604310B
:101C3000C0F6000600230691216811F80AB0BBF136
:101C40000A0F02D0BBF10D0F3AD19A4501F80A8074
:101C500051D020682169C518CDE9081328462946C6
:101C60000A78082A04D04AB100F8012B03E000BF2B
:101C7000A84288BF01380131F2E700BF80F8008038
:101C8000284631461AAA02F0E3FF98B3074608989F
:101C9000C8B10668CEB100F1080800BFD8F800004E
:101CA00020B138463146FEF78FFAD8B3D8F808602D
:101CB00008F11008002EF1D100264FF0000805E0D1
:101CC0000AF1010A2AE0002609E00026284675A14B
:101CD000FEF77AFA18B90898FFF7E8FE0646002ED4
:101CE00046F21346C0F6000604D11FB13846002163
:101CF000FFF7B4FE099BBBF10A0F08BF9A4502D05B
:101D000009F1010904E020790D2818BF09F1010942
:101D10000AF1010AA068534684F804B08245FFF432
:101D20008BAFB0E00A9646F21346C0F600060020DC
:101D300031461AAACDF8149002F08AFF4FF001093B
:101D400068B1B9F10F0F0AA941F8290027D0002086
:101D500031461AAA09F1010902F07AFFF0E758F8B2
:101D6000047C002F00F0768038464DA1FEF7FFF985
:101D700000286FD03846FEF7F3F9049038462A2140
:101D8000FEF7E4F9A0B1049AB918013988424FF07E
:101D9000020105D1012A03D0901E00900AE0012122
:101DA0002846FFF75BFEDDF814904FF00008A1E72E
:101DB000049A0092B9F1010003903FD00297B8183D
:101DC0002E23002600270190974205DA0298C05D75
:101DD0002A2818BF034604E0019810F8010C2A28AD
:101DE0002DD1A3F1730004280BD80793DFE800F08E
:101DF0000327120F0C000698042150F82700012237
:101E00000DE0622B10D01AE00698042104E0069839
:101E1000022101E00698012150F82700002203F07A
:101E200012F8079B049A50B10398013787424FF08C
:101E3000000628BF0126B842C6D100E00126F007FF
:101E40004FF0020117D0009846F213464845C0F6FD
:101E50000006A5DAD8F8002048460AA9904758F8A5
:101E6000080CDDF8149000284FF000087FF442AF12
:101E7000002701262AE746F21346C0F600068FE740
:101E80004FF0FE0906E02BB1C21A2068A260C1180B
:101E9000FEF73CF94FFA89F01BB0BDE8F08F00BFA8
:101EA0003F00000068656C700000000001A003F0B6
:101EB00091BC00BF4145535F454E3A20544F444FBB
:101EC0000D000000F0B581B048680C46FFF7D8FD62
:101ED000A16804460846FFF7D3FD05460AA003F0B3
:101EE00079FCAFB2A5B2AF420CD30AA6A0B2FFF7FD
:101EF00044FA02463046294602F0EEFF0134A5B20C
:101F0000BD42F3D901B0F0BD44554D505F52454735
:101F1000533A0D003078253034582C307825303243
:101F2000580D0A0041F62800C2F2000090F849104E
:101F300090F84A2001A002F0CFBF00BF46535F4790
:101F400045545F414444523A203078253032582C71
:101F50003078253032580D0A0000000041F6280084
:101F6000C2F20000B0F84E10B0F85020B0F8543073
:101F700045F6CD10C0F6000002F0AEBF0000000034
:101F800041F62800C2F2000090F835100939C9B2B4
:101F9000162908D845F68002C0F6000202EBC101FE
:101FA00091ED000B01E09FED080B80B584B0016B53
:101FB00090F83420806B8DED000B029004A002F0AD
:101FC0008BFF04B080BD00BF000000000000F0BF28
:101FD00046535F4745544D4F44504152414D533A4B
:101FE0000D0A42523D25640D0A53483D25640D0AF1
:101FF00042573D252E31660D0A4445563D25640D58
:102000000A00000010B541F62804C2F20004A18FB6
:1020100094F83E2094F83F302AA002F05DFF94F837
:10202000481045F6FF2045F6DE32C0F60000C0F647
:102030000002012908BF024645F67030C0F60000D4
:10204000002918BF104603F0C5FB94F84B1045F665
:10205000D53045F6D622C0F60000C0F600020029B1
:1020600008BF104603F0B6FB94F84C1045F651201B
:10207000C0F6000002F030FF94F84D00062806D8A4
:1020800045F63811C0F6000151F8200003E045F68E
:10209000E120C0F6000003F09DFB94F8521045F6D5
:1020A000A53045F66532C0F60000C0F600020029F2
:1020B00008BF104603F08EFB11A0BDE8104003F0EE
:1020C00089BB00BF46535F4745545F5041434B4572
:1020D00054504152414D533A0D0A5052455F4C45C0
:1020E0004E3D25640D0A5052455F4445543D2564DC
:1020F0000D0A53594E435F4C454E3D25640D0A0071
:1021000046535F4745545F5041434B4554504152FD
:10211000414D533A20544F444F0D000070B510A06C
:1021200002F0DAFE41F6280645F6BC440025C2F26C
:102130000006C0F6000400BF701990F84010204659
:1021400002F0CAFE0135072DF6D196F8471045F684
:10215000C410C0F60000BDE8704002F0BDBE00BF74
:1021600046535F4745545F53594E433A20000000A1
:10217000B0B541F62805C2F20005A87A20B10EA03C
:10218000BDE8B04003F026BB48680C46FFF778FC7A
:10219000A16804460846FFF773FC85F8494085F8B6
:1021A0004A00FEF7BCFF95F8491095F84A2007A0B1
:1021B000BDE8B04002F090BE46535F5345545F41C6
:1021C0004444523A204552524F520D0046535F53F9
:1021D00045545F414444523A203078253032582CDF
:1021E0003078253032580D0A0000000070B541F6F5
:1021F0002806C2F20006B07A18B115A003F0EAFA78
:1022000021E048680C46FFF73BFCA16805460846FC
:10221000FFF736FCE16804460846FFF731FCA6F8F4
:102220004E50A6F85040A6F85400FEF778FFB6F8D6
:102230004E10B6F85020B6F8543045F60F20C0F6D0
:10224000000002F049FE08A0BDE8704003F0C2BAE9
:1022500046535F5345545F43524357483A204552D3
:10226000524F520D0000000046535F5345545F43E8
:10227000524357483A20544F444F0D00000000008D
:102280002DE9F04381B02DED028B84B041F6280793
:10229000C2F20007B87A18B197A003F09BFACBE01E
:1022A00048680D46FFF7ECFB04464FF41676B0F590
:1022B000167F98BF344649F2E031A868C0F20401A5
:1022C0008C4228BF0C46FFF7DBFBE96880460846D6
:1022D000FFF7D6FB062804D29FED5D8B4FF01F0958
:1022E0008AE0062804D19FED5C8B4FF0170983E04C
:1022F000092804D29FED5A8B4FF00F097CE00B2880
:1023000004D29FED598B4FF01E0975E00D2804D2C1
:102310009FED578B4FF016096EE0102804D29FED09
:10232000568B4FF00E0967E0152804D29FED548BB1
:102330004FF01D0960E0192804D29FED538B4FF038
:10234000150959E01F2804D29FED518B4FF00D095C
:1023500052E0282804D29FED508B4FF01C094BE02F
:10236000302804D29FED4E8B4FF0140944E03C28F6
:1023700004D29FED4D8B4FF00C093DE0502804D264
:102380009FED4B8B4FF01B0936E05F2804D29FED89
:102390004A8B4FF013092FE0772804D29FED488B2A
:1023A0004FF00B0928E09E2804D29FED478B4FF099
:1023B0001A0921E0BD2804D29FED458B4FF0120988
:1023C0001AE0EC2804D29FED448B4FF00A0913E089
:1023D000B0F59C7F04D89FED428B4FF019090BE0BC
:1023E00041A1B0F5BB7F98BF083191ED008B4FF054
:1023F000090998BF4FF011092869FFF741FBB0F5B3
:10240000167F88BF064640F64050C0F20300864261
:1024100028BF06463C6387F8348087F83590BE6352
:10242000FEF77DFEB86B396B97F83420029039A027
:102430008DED008B02F050FD43A004B0BDEC028B8B
:1024400001B0BDE8F04303F0C5B900BF00BF00BF55
:102450000000004033331340000000403333174086
:102460000000004033331D400000006066662340DA
:1024700000000060666627400000004033332D40B6
:1024800000000000008033400000006066663740B6
:10249000000000C0CC4C3D400000000000804340E4
:1024A0000000004033734740000000C0CC4C4D405A
:1024B000000000C0CC8C53400000004033735740F4
:1024C0000000004033535D400000006066866340BA
:1024D0000000006066666740000000A099496D40FA
:1024E00000000000008073400000000000307D40CC
:1024F000000000A09959774046535F5345545F4D03
:102500004F44504152414D533A204552524F520D83
:102510000000000046535F5345544D4F4450415214
:10252000414D533A0D0A42523D25640D0A53483D30
:1025300025640D0A42573D252E31660D0A44455645
:102540003D25640D0A00000046535F5345545F4D1E
:102550004F44504152414D533A20544F444F0D0087
:102560002DE9F04F81B041F62805C2F20005A87AA6
:1025700008B14DA090E048680C46FFF781FAA168C9
:1025800080460846FFF77CFAE16881460846FFF777
:1025900077FA216982460846FFF772FA6169834635
:1025A0000846FFF76DFA06460028A06918BF012605
:1025B000FFF766FAE16907460846FFF761FA216A04
:1025C00004460846FFF75CFA002818BF0120A5F86A
:1025D0003C8085F83E9085F83FA085F848B085F8A6
:1025E0004B6085F84C7085F84D4085F85200FEF739
:1025F00096FDA98F95F83E2095F83F3031A002F066
:102600006BFC95F8481045F6FF2045F6DE32C0F623
:102610000000C0F60002012908BF024645F67030EE
:10262000C0F60000002918BF104603F0D3F895F853
:102630004B1045F6D53045F6D622C0F60000C0F660
:102640000002002908BF104603F0C4F895F84C10AA
:1026500045F65120C0F6000002F03EFC95F84D0012
:10266000062806D845F63811C0F6000151F82000BA
:1026700003E045F6E120C0F6000003F0ABF895F862
:10268000521045F6A53045F66532C0F60000C0F69A
:102690000002002908BF104603F09CF818A001B002
:1026A000BDE8F04F03F096B846535F5345545F5072
:1026B00041434B4554504152414D533A20455252AB
:1026C0004F520D0046535F5345545F5041434B45B5
:1026D00054504152414D533A0D0A5052455F4C45BA
:1026E0004E3D25640D0A5052455F4445543D2564D6
:1026F0000D0A53594E435F4C454E3D25640D0A006B
:1027000046535F5345545F5041434B4554504152EB
:10271000414D533A20544F444F0D0000F0B583B063
:1027200041F62805C2F20005A87A28B119A003B025
:10273000BDE8F04003F04EB80C1D00266F4600BF08
:1027400054F82600FFF79CF9B8550136082EF7D14A
:10275000DDE90001C5E91001FEF7E1FC12A002F07D
:10276000BBFB45F6BC440026C0F60004A81990F84F
:102770004010204602F0B0FB0136072EF6D195F846
:10278000471045F6C410C0F6000003B0BDE8F040A5
:1027900002F0A2BB46535F5345545F53594E433A30
:1027A000204552524F520D0046535F5345545F53DC
:1027B000594E433A2000000080B5FEF7EFFA00EED4
:1027C000100AB8EE400ABEEE001A20EE010A10EE22
:1027D000100AFDF72DFF024602A00B46BDE880401F
:1027E00002F07ABB4745545F525353493A20252E95
:1027F00031662064426D0D0A0000000001A002F065
:10280000E9BF00BF4745545F4145535354415455B8
:10281000533A20544F444F0D0000000041F6280069
:10282000C2F20000B0F86010B0F8622001A002F01F
:1028300053BB00BF4745545F4155544F53454E4429
:102840003A2025642C3078253034580D0A000000D9
:1028500040F27040C2F20000B0F9001001A002F096
:102860003BBB00BF4745545F4348414E4E454C3A41
:102870002025640D0A00000010B540F61110FEF787
:102880007CFD044640F61210FEF777FD011902A008
:10289000BDE8104002F020BB4745545F4354554EFD
:1028A000453A2025640D0A0041F62800C2F20000D6
:1028B000818801A002F010BB4745545F444556494A
:1028C000443A203078253034580D0A0041F628006B
:1028D000C2F20000D0E9031201A002F0FDBA00BF6D
:1028E0004745545F465245513A2025752C25750DB4
:1028F0000A00000001A002F06DBF00BF4745545F11
:10290000474E53533A20544F444F0D0041F6280090
:10291000C2F20000817A08A002A2012908BF104675
:1029200002F058BF4745545F4D4F44454D3A204C47
:102930004F52410D000000004745545F4D4F444544
:102940004D3A2046534B0D0041F62000C2F20000E4
:102950000078072899BF04A151F8200045F67C4073
:10296000C0F6000002F036BFAF5B0008725A0008E4
:10297000A25A00087F5B00089C5C00087C5C000891
:10298000565C00080F5B000841F62800C2F2000008
:1029900090F9151001A002F09FBA00BF4745545F9F
:1029A000504F5745523A2025642064426D0D0A006D
:1029B00041F62800C2F20000C18A01A002F08CBAE0
:1029C0004745545F52414D5054494D453A20256486
:1029D0002075730D0A00000001A002F0FBBE00BFCD
:1029E0004745545F5258434F554E543A2045525232
:1029F0004F520D0001A002F0EDBE00BF4745545FED
:102A0000534C454550504152414D533A2045525246
:102A10004F520D0080B502F037F9014602A0BDE823
:102A2000804002F059BA00BF4745545F53544154A7
:102A300055533A203078253032580D0A00000000F6
:102A400041F62800C2F20000817A00F15802012903
:102A500008BF00F12802116800F15C0208BF00F114
:102A60002C02126801A002F037BA00BF4745545F3C
:102A700054494D454F5554533A2025642C25640D37
:102A80000A00000002A001210022012302F024BA62
:102A90004745545F56455253494F4E3A2048573D9B
:102AA00025642C46573D25642E25640D0A00000040
:102AB000B0B582B040F20050C2F200000068FDF7ED
:102AC000B7FD044640F20450C2F2000000680D4613
:102AD000FDF7AEFD41EC100B04A022462B468DED18
:102AE000000B02F0F9F902B0B0BD00BF4745545FDA
:102AF00056543A20543D252E33662C563D252E3310
:102B0000660D0A0041F62800C2F2000090F9081094
:102B100090F9092001A002F0DFB900BF4745545FDA
:102B2000584F504152414D533A2025642C25640D95
:102B30000A0000003020C4F2020003682C20C4F216
:102B40000200026801A002F0C7B900BF4745545F08
:102B50005549443A203078256C6C580D0A00000025
:102B600041F6F82040F20D5140F20803C2F2000095
:102B7000C2F20001C2F200034FF48072FEF784BF7C
:102B800080B5FEF74FFB28B1014605A0BDE88040A7
:102B900002F0A2B908A0BDE8804002F01BBE00BF51
:102BA000494E49545F434F4E4649473A2045525299
:102BB0004F522025640D0A00494E49545F434F4E41
:102BC0004649473A204F4B0D00000000000000002E
:102BD00010B582B041F62804C2F20004E07E0A2853
:102BE00008D845F65811C0F6000101EBC00090ED81
:102BF000000B01E09FED1A0BA17E53EC102B1AA0E5
:102C0000009102F069F945F6D340C0F6000002F0E9
:102C100063F9207F042806D845F6B011C0F60001FC
:102C200051F8200003E045F6E520C0F6000002F070
:102C3000D1FD45F6D740C0F6000002F04DF9617FA6
:102C400045F6AB3045F67A32C0F60000C0F6000219
:102C5000002908BF104602B0BDE8104002F0BABD1E
:102C6000000000000000F0BF4C525F4745545F4D2C
:102C70004F44504152414D533A0D0A42573D252E83
:102C800031660D0A53463D25640D0A0070B541F6C4
:102C90002805C2F20005E98B95F824201BA002F05C
:102CA0001BF995F8201045F6114045F61B42C0F679
:102CB0000000C0F60002002908BF104602F08AFD9D
:102CC00045F6C440C0F6000002F006F995F825006C
:102CD00045F6AB34C0F6000445F67A3600282046A7
:102CE000C0F6000608BF304602F074FD45F6C94044
:102CF000C0F6000002F0F0F895F82600002808BFA2
:102D000034462046BDE8704002F064BD4C525F4737
:102D100045545F5041434B4554504152414D533A05
:102D20000D0A5052455F4C454E3D25640D0A5041F9
:102D3000595F4C454E3D25640D0A48454144455276
:102D40003A00000001A002F045BD00BF4C525F47B1
:102D500045545F53594D544F3A20494E20444556EF
:102D6000454C4F504D454E540D00000041F6280093
:102D7000C2F20000418C01A002F0AEB84C525F4795
:102D800045545F53594E433A203078253034580D1E
:102D90000A000000000000002DE9F0412DED028B3B
:102DA00082B041F62806C2F20006B07A01280BD1A3
:102DB00048680C46FEF764FE80B2092806D29FEDF3
:102DC0004E8B4FF000083DE05FA08CE00C2804D251
:102DD0009FED4B8B4FF0080834E0112804D29FED93
:102DE0004A8B4FF001082DE0162804D29FED488B46
:102DF0004FF0090826E0202804D29FED478B4FF0C2
:102E000002081FE02B2804D29FED458B4FF00A08E3
:102E100018E0402804D29FED448B4FF0030811E0E6
:102E20007E2804D29FED428B4FF004080AE0FB2875
:102E300041A038BF083090ED008B4FF0060838BF36
:102E40004FF00508A068FEF71BFEC7B200F0FE00B9
:102E50000C2F28BF0C270628E06838BF0627FEF78E
:102E60000FFE0546C0B20428206988BF0425FEF77E
:102E700007FEC0B286F81B80B7763577002818BFEA
:102E800001207077FEF74BF9B17E53EC182B35A07B
:102E9000009102F021F845F6D340C0F6000002F0A0
:102EA0001BF8307F042806D845F6B011C0F60001A3
:102EB00051F8200003E045F6E520C0F6000002F0DE
:102EC00089FC45F6D740C0F6000002F005F8717F96
:102ED00045F6AB3045F67A32C0F60000C0F6000287
:102EE000002908BF104602B0BDEC028BBDE8F041DE
:102EF00002F070BC00BF00BF0000004033331F4031
:102F0000000000C0CCCC24400000004033332F40F0
:102F1000000000C0CCCC3440000000C0CC4C3F408E
:102F2000000000A099D944400000000000404F403C
:102F30000000000000405F400000000000407F40B3
:102F40000000000000406F404C525F5345545F4DFD
:102F50004F44504152414D533A204552524F520D29
:102F6000000000004C525F5345545F4D4F445041A8
:102F700052414D533A0D0A42573D252E31660D0AF6
:102F800053463D25640D0A002DE9F04141F6280520
:102F9000C2F20005A87A012860D148680C46FEF705
:102FA0006FFDA16880460846FEF76AFDE1680646A7
:102FB0000846FEF765FD216907460846FEF760FDF5
:102FC000616904460846FEF75BFD07F0010185F8DC
:102FD000201004F0010100F00100A5F81E8085F822
:102FE000246085F8251085F82600FEF798F8E98B0F
:102FF00095F8242023A001F06FFF95F8201045F6E6
:10300000114045F61B42C0F60000C0F60002002940
:1030100008BF104602F0DEFB45F6C440C0F60000D3
:1030200001F05AFF95F8250045F6AB34C0F60004D0
:1030300045F67A3600282046C0F6000608BF30461E
:1030400002F0C8FB45F6C940C0F6000001F044FF9D
:1030500095F82600002808BF344600E002A4204668
:10306000BDE8F04102F0B6BB4C525F5345545F508F
:1030700041434B4554504152414D533A20455252E1
:103080004F520D004C525F5345545F5041434B45E6
:1030900054504152414D533A0D0A5052455F4C45F0
:1030A0004E3D25640D0A5041595F4C454E3D256407
:1030B0000D0A4845414445523A00000041F62800B7
:1030C000C2F20000817A0BA002A2012908BF1046BB
:1030D00002F080BB4C525F5345545F53594D544FDF
:1030E0003A20494E20444556454C4F504D454E548C
:1030F0000D0000004C525F5345545F53594D544FDF
:103100003A204552524F520D0000000010B541F6D2
:103110002804C2F20004A07A01280AD14868FEF708
:10312000AFFC024681B20AA06284BDE8104001F003
:10313000D3BE02A0BDE8104002F04CBB4C525F531E
:1031400045545F53594E433A204552524F520D0059
:103150004C525F5345545F53594E433A20307825C3
:103160003034580D0A00000080B582B0FDF73BFDF9
:10317000C1B28DF8070051B1FF2908D041F6F820FF
:10318000C2F200000DF107010122FEF72BFD02B093
:1031900080BD000080B54868FEF772FC80B2FEF783
:1031A000ECF8014602A0BDE8804001F095BE00BFEA
:1031B000524541445F5245473A20307825303258D5
:1031C0000D0A000003A002F005FB642000F082FB62
:1031D000FEF70EFB52455345543A204F4B0D00006D
:1031E00070B548680C46FEF74BFC41F63C35C2F220
:1031F00000052880288808B901202880A068FEF7EB
:103200003FFC40F26846E168C2F2000630800846A2
:10321000FEF736FC318841F6F622C2F2000263293D
:1032200010809CBF6420308001F01EF9298832880C
:1032300002A0BDE8704001F04FBE00BF53454E44B0
:103240005F5041434B45543A2025642C25640D0AB8
:103250000000000001A002F0BDBA00BF5345545F5A
:1032600041455349563A20544F444F0D0000000049
:1032700001A002F0AFBA00BF5345545F4145534B24
:1032800045593A20544F444F0D000000B0B54868EE
:103290000C46FEF7F5FB0546A068ACB2FEF7F0FB66
:1032A00003464FF6FE7028404EF6602141F6280591
:1032B0008C4238BF2146C2F20005322838BF322185
:1032C000A5F860109AB203A0A5F86230BDE8B0403E
:1032D00001F002BE5345545F4155544F53454E448F
:1032E0003A2025642C3078253034580D0A0000002F
:1032F00010B54868FEF7C0FB40F27044C2F200040B
:103300002080FDF75DFDB4F9001002A0BDE810407B
:1033100001F0E2BD5345545F4348414E4E454C3A9F
:103320002025640D0A00000010B54868FEF7A8FBD0
:10333000C1B25E2988BF5E20C4B22046FDF72AFCD8
:1033400002A02146BDE8104001F0C6BD5345545FC0
:103350004354554E453A2025640D0A0010B548687F
:10336000FEF78EFB41F62804C2F20004A08001F0B3
:1033700096FDA18802A0BDE8104001F0ADBD00BFE0
:103380005345545F44455649443A203078253034FB
:10339000580D0A0001A002F01DBA00BF5345545F4A
:1033A000454D3A20544F444F0D000000B0B54868D9
:1033B0000C46FEF765FB41F62805A168C2F2000540
:1033C000E8600846FEF75CFB2861FDF7F9FCD5E9EB
:1033D000031202A0BDE8B04001F07EBD5345545F2A
:1033E000465245513A2025752C25750D0A000000DE
:1033F00010B54868FEF744FBC4B2012C0CD841F666
:103400002801C2F200018872FDF789FE0EA00AA110
:10341000002C08BF084600E002A0BDE8104002F002
:10342000D9B900BF5345545F4D4F44454D3A2045EF
:1034300052524F520D0000005345545F4D4F4445CA
:103440004D3A2046534B0D005345545F4D4F444574
:103450004D3A204C4F52410D0000000010B5486815
:10346000FEF70EFB41F62004C2F20004217841F67B
:103470002402C2F20002C0B21170FDF795FF20785D
:10348000072803D807A151F8204004E045F68C44F2
:10349000C0F600040520FDF787FF2046BDE8104078
:1034A00002F098B9C25B00088A5A0008BC5A0008AA
:1034B000925B0008AC5C00088C5C0008695C00084A
:1034C000285B0008B0B548680C46FEF7D9FA0546F7
:1034D00010F0F80FA06818BF0725FEF7D1FAECB27C
:1034E000C5B2204629460022FDF796FD03A02146DD
:1034F0002A46BDE8B04001F0EFBC00BF5345545F21
:103500005041434F4E4649473A2025642C25640DCF
:103510000A00000010B54868FEF7AEFA41B241F665
:103520002804000611F1090FD8BF6FF00801C2F29C
:103530000004B0F1B05FC8BF16216175FDF782FDD0
:1035400094F9151002A0BDE8104001F0C5BC00BF01
:103550005345545F504F5745523A202564206442EA
:103560006D0D0A0010B54868FEF78AFA41F6280486
:10357000C2F20004E082FDF765FDE18A02A0BDE829
:10358000104001F0A9BC00BF5345545F52414D505B
:1035900054494D453A2025642075730D0A000000FA
:1035A00001A002F017B900BF5345545F534C454585
:1035B00050504152414D533A204552524F520D0006
:1035C000B0B548680C46FEF75BFAA16804460846A9
:1035D000FEF756FA054641F62800C2F20000817A4D
:1035E000582201294FF05C0108BF282208BF2C2176
:1035F00084504550FDF793FD03A021462A46BDE8BF
:10360000B04001F069BC00BF5345545F54494D457B
:103610004F5554533A2025642C25640D0A000000B0
:1036200010B548680C46FEF727FAA168044608461C
:10363000FEF722FA41F6280C0346C2F2000C8CF881
:10364000084061B242B203A08CF80930BDE81040D6
:1036500001F042BC5345545F584F504152414D53C5
:103660003A2025642C25640D0A00000001A002F018
:10367000B1B800BF53544152545F5258434F554E56
:10368000543A204552524F520D00000041F61D00A1
:10369000C2F20000017849B10021017041F60F30FB
:1036A000C2F20000017007A002F094B801A002F07D
:1036B00091B800BF53544F505F54583A204552526E
:1036C0004F520D0053544F505F54583A204F4B0DFA
:1036D0000000000001A002F07DB800BF53544F501D
:1036E0005F5258434F554E543A204552524F520D57
:1036F0000000000040F27040C2F2000041F62802D3
:10370000B0F90010C2F2000201A0117501F0E4BB93
:1037100053544F52455F4348414E4E454C3A202545
:10372000640D0A0080B501F0BAFB02A0BDE880403C
:1037300002F050B853544F52455F434F4E464947ED
:103740003A204F4B0D00000001A002F043B800BF2B
:1037500053574545505F52583A20544F444F0D003F
:1037600001A002F037B800BF53574545505F545889
:103770003A20544F444F0D00B0B54868FEF780F929
:10378000C1B2022988BF0220C0B201280FD002288E
:103790001BD141F62000C2F20000007841F624015E
:1037A000C2F200010870022518A407201BE041F6B0
:1037B0002000C2F20000007841F62401C2F20001AC
:1037C000087001250DA406200DE041F62800C2F284
:1037D0000000807A08B9FDF7A1FE45F64C340025BB
:1037E000C0F600040520FDF7DFFD204601F0F2FFE2
:1037F00041F61430C2F200000570B0BD54585F535A
:10380000545245414D3A2043570D000054585F53E0
:10381000545245414D3A20505245414D424C450D80
:1038200000000000B0B548680C46FEF729F9A16811
:1038300004460846FEF724F96FF31F34C5B220464C
:103840002946FDF75DFE03A021462A46BDE8B040AB
:1038500001F042BB57524954455F5245473A203028
:1038600078253034582C3078253032580D0A000035
:1038700080B5012001F02CF944F24021C0F20F0183
:10388000884238BF80BD4DF68361C4F21B31A0FB76
:10389000011244F6D351C1F26201A0FB0101900C68
:1038A00040F21462C2F2000210704FF0FF3000EBE1
:1038B00091104EF21001CEF2000148604EF62350F6
:1038C000CEF20000E022027000208860072008602D
:1038D00080BD000080B54EF2140140F21462CEF2B9
:1038E0000001C2F20002D1F800C012788AB1504340
:1038F0004FF47A7200FB02FE486800234A68824255
:10390000FCD003449B1A824228BF6344734510468F
:10391000F4D380BD80B54EF2140140F21462CEF2B1
:103920000001C2F20002D1F800C012787AB102FBA5
:1039300000FE4868002300BF4A688242FCD003446E
:103940009B1A824228BF634473451046F4D380BD5E
:103950004FF2080CC4F2000CDCF800204AF6BF63FA
:10396000D20444BF4FF48052CCF80020002241F230
:103970001651C4F20202C8F69D43C1F2143193619C
:103980009161116801F4007122311160002193618D
:1039900091614FF0FF310160DCF80000C00406D4F3
:1039A0009068C007FCD001209060002070474FF461
:1039B0008050CCF800006FF0670070472DE9F047A9
:1039C00082B04FF20808C4F200081446D8F800206C
:1039D0000D46D104814644BF4FF48050C8F8000022
:1039E00000274AF6BF6041F21651C4F20207C8F63A
:1039F0009D40C1F21431B861B961396824F00706FD
:103A000001F4007124313960B8610020B8614FF0D1
:103A1000FF30A6420190009009D046F00100844298
:103A200088BF2046A919821B6846FCF76FFB0CB3C0
:103A3000DDE900E000224FF0FF3A4FF0010C00BF3B
:103A4000B24205D2A958AB18F960596803E000BF2B
:103A50000146C7F80CE0396142F809A0D8F8001017
:103A6000C90409D4B968C907FCD00832A242C7F812
:103A700008C0E5D3002005E04FF48050C8F80000EE
:103A80006FF0670002B0BDE8F0870000B0B543F208
:103A90000005C4F200050446C1B2284601F0CEF983
:103AA0002846802101F01CF90028F9D02046B0BD3D
:103AB000012303FA01F1002A426A0CBF22EA010144
:103AC0001143416270470000062A41D8DFE802F046
:103AD000044F1F300E6081000122036802FA01F1D9
:103AE00043EA0102026082680A433AE00122036865
:103AF00002FA01F123EA0102026082688A438260CD
:103B000042688A434260826922EA010194E001220C
:103B1000036802FA01F143EA0102026082680A4383
:103B20008260C2680A43C260026922EA01012DE094
:103B30000122036802FA01F123EA010202608268AD
:103B40008A43826042688A4342608269114373E01B
:103B50000122036802FA01F143EA0102026082686D
:103B60008A438260C26822EA0101C1607047012273
:103B7000036802FA01F143EA0102026082680A4323
:103B80008260C2680A43C2600269114301617047E2
:103B90004FF6004C0122C4F2010C8A4060456FEAE6
:103BA000020331D108292FD3DCF818001840CCF8D3
:103BB0001800DCF808001840CCF80800DCF8000019
:103BC0001043CCF80000DCF810001043CCF81000D3
:103BD00070474FF600420123C4F2010203FA01FCD0
:103BE00090426FEA0C031BD1082919D39069184041
:103BF00090619068184090601068184010601069DB
:103C000040EA0C001061704701681940016081684A
:103C100019408160416811434160816911430BE0A3
:103C2000016819400160816819408160416841EA7A
:103C30000C014160816919408161704710B5082904
:103C400013D3083901EB410E8B000F214FF60044CE
:103C50009940C4F201044FF0070CA04204BF0CFAD3
:103C60000EF173469A403C2304E08B000F219940EB
:103C70009A403823C45824EA01011143C15010BDB1
:103C800080B500F03BF900F0E7F8BDE88040FCF7B4
:103C9000E2BF80B50420012100F0FEFB4FF4A040FC
:103CA00000F097FF002000F07EFF0020002100F0D0
:103CB00082FF0120C0F2002000F093FF402001218C
:103CC00000F072FCBDE88040FFF7D2BD4FF200006B
:103CD000C4F2010008210322FFF7F6BE4FF20000F4
:103CE000C4F2010008210422FFF7EEBEB0B549F28C
:103CF0000004C4F200044FF40070C4F8000107206F
:103D0000022520602561D4F8040180280BD01420FE
:103D1000FFF700FE0020C4F80C011420FFF7FAFDA5
:103D20000120C4F80C014EF200106560CEF20000D4
:103D30004FF40011016004F5B6300B210322BDE8F9
:103D4000B040FFF77BBF000010B549F20414C4F285
:103D50000004206820F0200020606420FFF7DAFDD6
:103D6000206840F020002060206820F08000206063
:103D700054F8040C40F0200044F8040C206840F093
:103D8000010020606068C005FCD410BD4FF2000047
:103D9000C4F201000A210322FFF796BE80B549F262
:103DA0000801C4F2000100BFD1F80021D205FBD404
:103DB0000022C1F80421B0B141F21D7C41F21D6E18
:103DC000C2F2000CC2F2000E1CF802300B6000BF01
:103DD0004B6803F01103012BFAD10B680EF8023087
:103DE00001328242F0D10122C1F80421D1F8002130
:103DF000D205FBD480BD000080B50A20FFF78AFD04
:103E000049F20810C4F200000168C905FCD480BD65
:103E1000FFF73FFFFFF734FF6420FFF75BFD0AA0C9
:103E200001F0D8FCFFF75AFF00F052F96420FFF7C9
:103E300051FDFFF74BFFFEF793FE00BF00F078F94E
:103E4000FFF792F9FAE700BF0D0A524130382074AB
:103E50006573740D00000000B0B50020002500F06F
:103E60008FFE1220012100F09FFB1120012100F0A4
:103E70009BFB4FF20000C4F2010008210722FFF76C
:103E800023FE40F2106441F21861C2F20004C2F253
:103E9000000100202246FDF727FD94ED000A9FED6A
:103EA000161A20EE010A84ED000AFDF781FD0820B4
:103EB000FDF7BDFC00200D21FDF7E3FC4FF40010E1
:103EC000FDF7C7FC0120FDF7FAFC41F62300C2F222
:103ED000000005700120FDF776FD01200121FDF7AE
:103EE000C4FC4EF20010CEF200004FF48031C0F856
:103EF00080110160B0BD00BF00007A4410B50D20F4
:103F0000012100F051FB2020012100F04DFB212078
:103F1000012100F049FB2220012100F045FB4FF276
:103F20000004C4F2010420460B210122FFF7CCFD5E
:103F3000204609210122FFF7C7FD20460821032260
:103F4000FFF7C2FD204608210122BDE81040FFF71F
:103F5000AFBDB0B584B043F20004C4F2000404F570
:103F6000E235284601210122FFF768FE284600219C
:103F70000122FFF763FE002000F04AFE1F2001210E
:103F800000F012FB6D46284600F096FE4FF4E1303B
:103F900000902046294600F0A9FE2046012100F0AD
:103FA00085FE20461021012200F092FE4EF2001004
:103FB000CEF200004021C0F88011016004B0B0BD15
:103FC0002DE9F04F81B02DED0A8B96B041F6D02847
:103FD000C2F20008B8F8040098F81AA01590B8F8D2
:103FE000000098F806901490D8F80C0098F8075044
:103FF00098F8086098F8097098F818B0FCF718FB62
:1040000041EC180BD8F81000FCF712FB41EC190B2F
:10401000D8F81400FCF70CFB41EC1A0B40F2F4400A
:10402000C2F20000006898F91940FCF701FB41EC6E
:104030001B0B40F2FC40C2F200000068FCF7F8FAEB
:1040400041EC1C0B40F2F840C2F200000068FCF7A3
:10405000EFFA41EC100B06A8DDE9142180EC068B89
:104060000BA053468DED0EBB8DED10CB8DED120BDD
:104070000C94CDE90095CDE90267CDF810B000F0C1
:104080002BFF16B0BDEC0A8B01B0BDE8F08F00BF6E
:1040900025642C3078253034582C25632C25643A3F
:1040A00025643A25642C25642C25642C252E346641
:1040B0002C252E34662C252E31662C25642C252E9D
:1040C00031662C252E31662C252E31660D0A000016
:1040D00080B5FFF70BFE00F0AEFD41F62800C2F2FE
:1040E0000000006842F26B31CCF66C11884218BFB8
:1040F000FDF798F8FDF713F808A104A2002808BFFF
:1041000011460846BDE8804001F064BB5261646915
:104110006F20496E6974204F4B2E0D005261646907
:104120006F20496E6974204572726F722E0D000007
:104130002DE9F04784B041F60F30C2F2000001785B
:1041400041F6183741F6280841F6F62940F2B44402
:10415000C2F20007C2F20008C2F20009C2F2000473
:1041600059B30021017041F63E30C2F200000088D0
:10417000B9F80010B8805420B876B8F804007980F7
:1041800038804FF00230C7F81B00C7F81E0097E8D0
:104190004F0007F1140E9EE8205084E84F0004F110
:1041A000140080E82050002020212246FDF790F9DD
:1041B000FFF794FD0420FDF7F7F840F20C5AC2F225
:1041C000000A9AF8000030B300208AF8000041F697
:1041D000F420C2F200000088B9F80010B880522024
:1041E000B876B8F80400798038804FF00230C7F80C
:1041F0001B00C7F81E0097E86F10FF6984E86F1076
:10420000002020212246E761FDF762F9FFF766FDF5
:104210000420FDF7C9F841F62100C2F20000017840
:10422000002900F09F8000210170FFF757FD98F8EA
:104230000A00012824D10DF10F000DF10E010DF13E
:104240000A020DF10D03FCF789FDBDF90A106FF0AC
:10425000FF0212FA81F200EE102A01EE101AB8EEF7
:10426000C00AB8EEC11A9DF80E008029B8BFB0EEA2
:10427000410AB5EE001A9DF80D1020EE010A0EE07D
:104280000DF1090002A90DF107020DF10603FCF77B
:1042900033FD9DF807009DF806109FED6C0A01EEB6
:1042A000101A03EE100AB8EE411ABEEE002AB8EE5C
:1042B000433A40F2F44021EE021A23EE022AC2F2FF
:1042C000000080ED002A40F2FC40C2F2000080EDC8
:1042D000000A40F2F84040F27444C2F20000C2F218
:1042E000000480ED001A802020212246FDF720F8EE
:1042F00040F20D60C2F20000017841B1002101706E
:1043000046F2B830C0F6000001F064FA25E094E807
:104310008F00D4E90565D4F81CC041F6D024C2F260
:10432000000484E88F00C4E90565C4F81CC0FFF7E9
:1043300047FEA08841F6F421C2F20001088041F650
:104340001D00C2F20000007838B96088B8F8041087
:10435000884204BF01208AF80000FFF7B7FC05205F
:10436000FDF722F841F62200C2F20000017831B1D7
:10437000002101700520FDF717F8FFF7A7FC41F6B3
:104380000C30C2F20000017800295CD000210170DD
:1043900041F60E30C2F20000007840F27045C2F2E1
:1043A000000508B341F6C000C2F2000001782A8877
:1043B00051B1531E41F61F02C2F2000212781FB221
:1043C00097422B800ADB0DE0531C41F61E02C2F21D
:1043D000000212781FB297422B8003DD81F00101A9
:1043E0002A800170FCF7ECFC41F60D30C2F20000AF
:1043F000007840B3FCF7D2FC00EE100AB8EE400A99
:10440000BEEE001A20EE010AB5F9004010EE100AC7
:10441000FCF70EF902460B460DA0214600F05CFDAC
:10442000288841F61E01C2F200010130097802B26B
:104430008A42288005DD41F61F00C2F200000078A4
:104440002880FCF7BDFC04B0BDE8F0870000000048
:1044500043483D25642C525353493D252E31662057
:1044600064426D0D0A00000041F61D00C2F200001A
:104470000121017041F63E30C2F20000018041F698
:104480001030C2F200000022026041F60F30C2F28A
:104490000000017070470000052888BF7047DFE802
:1044A00000F0034D333F125A48F20800C4F20000F6
:1044B0000269002966D022F020010161D0F80012C3
:1044C0004907FBD570470C22C4F20002136849F279
:1044D000041043F01003C4F20000136002680029C6
:1044E00048D0910607D4016841F0200101600168BD
:1044F00021F080010160016841F00401016000BF0A
:1045000041688907FCD5DDE748F20800C4F20000E5
:104510000268002922F4C04208BF02F5C04218E038
:1045200048F20800C4F200000269102322F01802C9
:10453000002918BF0823D1180161704748F208000C
:10454000C4F200000268002922F4004208BF02F50C
:1045500000420260704748F20800C4F2000002699D
:10456000C9B122F040010161D0F80012B1F1FF3F62
:10457000FADCA7E722F00401016000BF4168890767
:10458000FCD49FE742F02001016100BFD0F8001287
:104590004907FBD496E742F040010161D0F80012D0
:1045A0000029FBD48EE70000412888BF7047DFE870
:1045B00010F042009F01B501E1017B0127013F019D
:1045C000F0001C01AE000601AA018901CF00FB0129
:1045D000060227021C02A300860294014102C400C5
:1045E0007001E500C001DA0089004C0211015A0196
:1045F000D60165014D00B900860286028602860258
:10460000860286028602860286028602860286026A
:104610008602110257027E00CB01630086028602E9
:10462000860286028602860286028602860286024A
:1046300086025800FB000C20C4F2000042680029EA
:1046400014BF42F0800122F080013FE20C20C4F24E
:104650000000026800290CBF22F4000142F40001AE
:1046600008E20C20C4F20000026800290CBF22F40A
:10467000001142F40011FDE10C20C4F20000426878
:10468000002900F0F98142F480514160C16901F0D4
:104690003F013F29FAD1816841F02001816000BFCC
:1046A000C1698906FCD5416841F400610EE20C2025
:1046B000C4F200004268002914BF42F4807122F461
:1046C000807103E20C20C4F20000026822F4803200
:1046D00061F31042026000BFC26902F03F023F2A4C
:1046E000FAD1826822F0040261F38202826000BF84
:1046F000C1694907FCD5E2E10C20C4F20000026860
:1047000000290CBF22F4807142F48071B2E10C20C8
:10471000C4F20000026800290CBF22F0010142F03F
:104720000101A7E10C20C4F20000026800290CBFBF
:1047300022F4800142F480019CE10C20C4F20000CC
:10474000026800290CBF22F4805142F4805191E1AB
:104750000C20C4F20000026800290CBF22F0007196
:1047600042F0007186E10C20C4F2000002680029CA
:104770000CBF22F4004142F400417BE10C20C4F262
:104780000000026800290CBF22F4005142F40051DD
:1047900070E10C20C4F20000026800290CBF22F076
:1047A000806142F0806165E10C20C4F20000026883
:1047B00000290CBF22F0004142F000415AE10C20D8
:1047C000C4F20000026800290CBF22F0020142F08E
:1047D00002014FE10C20C4F20000026800290CBF66
:1047E00022F4802142F4802144E10C20C4F2000034
:1047F000026800290CBF22F0006142F0006139E13B
:104800000C20C4F20000426822F0080261F3C302E7
:10481000426000BFC26902F03F023F2AFAD18268BB
:1048200022F0010211448160C169C907FCD046E150
:104830000C20C4F200004268002900F02F8142F4ED
:1048400000714160C16901F03F013F29FAD18168DF
:1048500041F01001816000BFC169C906FCD5416803
:1048600041F0100132E10C20C4F20000026800297E
:104870000CBF22F4002142F40021FBE00C20C4F222
:104880000000026800290CBF22F0807142F08071A4
:10489000F0E00C20C4F200004268002914BF42F08E
:1048A000200122F0200111E10C20C4F20000426836
:1048B000002900F0058142F004014160416841F0A7
:1048C000400103E10C20C4F20000026800290CBF83
:1048D00022F0080142F00801CCE00C20C4F20000F4
:1048E000026800290CBF22F4806142F48061C1E0BB
:1048F0000C20C4F200004268002914BF42F00101FC
:1049000022F00101E2E00C20C4F20000026800295C
:104910000CBF22F0040142F00401ABE00C20C4F211
:104920000000026800290CBF22F0805142F0805143
:10493000A0E00C20C4F20000026800290CBF22F4A1
:10494000804142F4804195E00C20C4F200004268AE
:10495000002914BF42F4806122F48061B6E00C208B
:10496000C4F20000026800290CBF22F4801142F456
:1049700080117FE00C20C4F20000426822F00202A5
:1049800061F34102426000BFC26902F03F023F2A68
:10499000FAD1826822F0020261F34102826000BF14
:1049A000C1698907FCD58AE00C20C4F200000268C6
:1049B00000290CBF22F0100142F010015AE00C2037
:1049C000C4F20000026800290CBF22F0200142F06E
:1049D00020014FE00C20C4F20000026800290CBF47
:1049E00022F0005142F0005144E00C20C4F20000DB
:1049F000026800290CBF22F0800142F0800139E0FA
:104A00000C20C4F20000026822F0400261F386121A
:104A1000026000BFC26902F03F023F2AFAD18268F9
:104A200022F0080261F3C302826000BFC169090776
:104A3000FCD544E00C20C4F20000026800290CBF41
:104A400022F4006142F4006114E00C20C4F2000082
:104A5000026800290CBF22F4003142F4003109E061
:104A60000C20C4F20000026800290CBF22F0804133
:104A700042F080410160704722F40061416000BF54
:104A8000C16901F03F013F29FAD1816821F020017D
:104A9000816000BFC1698906FCD510E022F01001D9
:104AA000416000BFC16901F03F013F29FAD181682F
:104AB00021F01001816000BFC169C906FCD57047B3
:104AC00022F004014160416821F0400141607047DB
:104AD0004FF080410968C1F302314A1E062A01469F
:104AE00003D812A050F8220003E043F20060C0F2A5
:104AF0006E1001290FD0022904D0032918BF704776
:104B00000F2100E005214FF080421268C2F303221A
:104B1000D040072201E00F2208214FF080431B689C
:104B200023FA01F11140C840704700BF0080000027
:104B30000080000000366E0100366E010048E8017A
:104B400080EE3600006CDC020820C4F20000006831
:104B500000F4C03070470820C4F20000006800F480
:104B6000C04070470820C4F20000006800F4C05044
:104B700070470820C4F20000006800F4C06070476D
:104B80000821C4F200014A6A920406D54A6822F458
:104B900080724A604A6A9204FCD40A6822F0600279
:104BA0001043086070474FF080410A6822F4706239
:104BB0001043086070474FF0804CDCF8003047F637
:104BC0001F72CFF6FC721A4008431043CCF8000065
:104BD00070474FF080410A6822F4E04210430860B9
:104BE00070470121C0F20021884208D14EF2100026
:104BF000CEF20000016841F00401016070474FF0FF
:104C000080410A6822F0007210430860704700007B
:104C10000821C4F200014A6A520306D54A6822F408
:104C200080124A604A6A5203FCD40A6822F4C032F5
:104C300010430860704780B541F628004FF200012C
:104C4000C2F20000C0F600019822FBF75FFA80BDB7
:104C500070B5144605460E4600B92568284631460B
:104C6000FBF793FA295C61B1054428463146FBF70E
:104C70009AFA295C284411B1002100F8011B206038
:104C800000E00025284670BD80B541F21D70C2F2DB
:104C90000000C0210180002181700320FFF77EF811
:104CA00041F21D60C2F20000807880BD026B22F0EC
:104CB0000102114401637047602181804FF4E131AA
:104CC000016000214FF04072817182600173704772
:104CD000002A826B14BF114322EA010181637047ED
:104CE0008069084018BF01207047000070B5044675
:104CF000006B43F2000620F001002063E06AC4F27A
:104D0000000620F010000D46E0620020B442A063CF
:104D100011D041F20000C4F20100844213D00020FF
:104D2000C4F2010084420AD0B4F1402F15D1FFF73C
:104D300012FF400B0AE0FFF707FFC00B06E0FFF78A
:104D400011FFC00A02E0FFF714FF400A01380328F0
:104D500003D234A151F8200009E0B4F1402F01D072
:104D6000B44201D1022000E00320FFF7B1FE296820
:104D7000B0EB011F3CBF4FF0FF3070BD71B10A01B5
:104D8000B0FBF2F303FB1200C000B0FBF1F000F047
:104D9000010101EB5000C0EA034000E00020010CDB
:104DA00000F03F006162A062E06A2A7920F06001B1
:104DB00011436879AB792E7BE162E16A002E21F024
:104DC000080141EA0301E162E16A21F0100118BF24
:104DD0001031E16298B1022809D0012813D1E06AAC
:104DE00040F00200E062E06A20F004000AE0E06ABD
:104DF00040F00200E062E06A40F0040002E0E06A95
:104E000020F00200E062206B698920F440700843C2
:104E10002063206B298920F4404008432063002050
:104E200070BD00BF80EE36000080000000366E01CD
:104E30008169C906FCD40068C0B2704782699206D5
:104E4000FCD401607047F0B581B0044652B100F067
:104E500053F8054600202860694620460022FBF7EB
:104E6000C8F90CE0CF0000F047F8002605460660C0
:104E7000694620460022FBF7F4F9F8400CD1286877
:104E800008B1002608E00098051B2046FBF768F9EA
:104E9000281AB0FA80F04609304601B0F0BDB0B52E
:104EA00040F21864C2F2000441F62801C2F2000187
:104EB00020469822FBF72AF94FF20005C0F60005BC
:104EC0002846FEF745FD284621464FF48052BDE8AE
:104ED000B040FEF773BD00000FB4054B10B503A939
:104EE000044A029800F0DEF810BC5DF814FB0000E4
:104EF0008D3A0008000000200048704704000020A0
:104F000002E008C8121F08C1002AFAD17047704792
:104F1000002001E001C1121F002AFBD170470000F0
:104F20002DE9FF5F82B00021DDE90430020DDDF8DC
:104F300040B0034318D044F61050A2F2FF3242436F
:104F40001514119801281FD0A5EB0B00401C5FEA37
:104F5000000A4FF000064E4FDFF83891B046504639
:104F600015D5CAF1000413E0119801244AA30128C1
:104F700001D16FEA0B010298119AC0E90031C0E932
:104F8000024206B0BDE8F09FCBF10000DFE7044627
:104F90000021404A491842EB0450CDE9001012E0CC
:104FA000E00707D032463B4640464946FBF739FA10
:104FB0008046894632463B4610461946FBF731FA91
:104FC00006460F466410002CEAD1DDE90401DDE954
:104FD0000023BAF1000F06DAFBF723FA42464B46EC
:104FE000FBF71FFA05E0FBF78EFA42464B46FBF74C
:104FF0008AFA04460E460022284BFBF7C7FC03D86A
:105000004FF0FF30014607E00022254B2046314695
:10501000FBF760F9FBF7A1FC102409E0002C0ADB88
:105020000A220023FBF749FB039B30321A55641E0A
:1050300050EA0102F2D1641C039AC4F11103144432
:10504000119A012A03D0012208430DD10AE0084336
:1050500004D000204FF0110B119072E7A3EB0B0569
:105060006D1E0DE05B4504DD4FF0000205F101050A
:1050700004E003DA4FF00002A5F10105002AECD0AC
:1050800002981199C0E90231C0E9004579E70000B2
:10509000000014400000F03F300000000000F0432A
:1050A0000000E03F2DE9FF4F95B09B46894606463C
:1050B00000250FE2252877D100242746F84A012150
:1050C000059400E0044316F8013F203B01FA03F089
:1050D0001042F7D130782A2811D06FF02F033078A2
:1050E000A0F13002092A16D8059A44F0020402EB16
:1050F000820203EB42021044761C0590EFE759F858
:10510000042B0592002A03DA504244F4005405901F
:1051100044F00204761C30782E2816D116F8010FC0
:1051200044F004042A280DD06FF02F023078A0F14B
:105130003003092B09D807EB870302EB4303C71899
:10514000761CF3E759F8047B761C30786C280FD076
:1051500006DC4C2817D068280DD06A2814D104E04A
:10516000742810D07A280FD10DE044F400140AE01E
:1051700044F4801401E044F440147278824202D175
:1051800004F58014761C761C307866280BD013DC6E
:10519000582877D009DC002875D04528F6D0462855
:1051A000F4D047281AD19DE118E0632835D064284F
:1051B00079D0652812D195E1702873D008DC672872
:1051C000F1D069286FD06E280DD06F2806D1B5E0D8
:1051D00073282CD0752875D0782874D05A46179922
:1051E00090476D1C75E1C4F30250022809D00328D2
:1051F0000DD0D9F8001004280DD00D6009F1040974
:1052000067E1D9F80010EA17C1E90052F6E7D9F8CA
:1052100000100D80F2E70D70F0E719F8041B8DF80F
:10522000001000208DF80100EA46012003E059F843
:1052300004AB4FF0FF3061074FF0000102D40DE0E6
:1052400008F101018846B9420FDA8045F8DB1AF807
:1052500008100029F4D108E008F1010188468142D4
:10526000FADB1AF808100029F6D105985B46A0EB86
:10527000080721463846179A00F094FA284400EBB4
:10528000080507E04DE029E10DE01AF8010B5A4648
:1052900017999047B8F10108F7D25B462146384686
:1052A000179A13E142E00A220092C4F302524FF02F
:1052B000000A022A08D059F804CB032A4FEAEC71FD
:1052C0000AD00DE029E02AE009F1070121F00702E8
:1052D000F2E802C1914609E00FFA8CFC4FEAEC714A
:1052E000042A03D14FFA8CFC4FEAEC71002907DA4B
:1052F0000A460021DCF1000C61EB02012D2202E0E4
:10530000220504D52B228DF80420012203E0E207B8
:1053100001D02022F7E7904659E00A2102E010224E
:105320000DE010214FF0000A00910BE010224FF029
:10533000000A44F004040827009203E008224FF01A
:10534000000A0092C4F30252022A05D059F804CB95
:105350000021032A08D009E009F1070121F0070222
:10536000F2E802C1914605E01FFA8CFC042A01D143
:105370000CF0FF0C4FF00008220728D5702806D04B
:10538000009B83F0100353EA0A0305D00EE040228D
:105390008DF80420012208E05CEA010206D03022E8
:1053A0008DF804208DF8050002229046009B83F0C2
:1053B000080353EA0A030AD15CEA010201D1620739
:1053C00005D530228DF804204FF001087F1E5828A3
:1053D00004D034A003900EA802900DE036A0F9E7A7
:1053E00053466046009AFBF768F984460398825C4E
:1053F0000298401E029002705CEA0100F0D102980F
:1054000006A9081A00F1200A600702D524F48034A6
:1054100000E00127574502DDA7EB0A0000E000206D
:1054200000EB0A01009005984144401A0590E00302
:1054300006D45B462146179A059800F0B3F9054457
:10544000002706E001A85A46C05D179990476D1CD9
:105450007F1C4745F6DBE0030CD55B462146179AD7
:10546000059800F09FF9054404E030205A4617994A
:1054700090476D1C0099481E00900029F5DC08E05B
:10548000029802995A460078491C02911799904750
:105490006D1CBAF10001AAF1010AF1DC65E100001E
:1054A00009280100303132333435363738396162FA
:1054B00063646566000000003031323334353637BE
:1054C00038394142434445460000000000F058F995
:1054D0000544761C307800287FF4ECAD19B02846DE
:1054E000BDE8F08F620700D4062709F1070222F019
:1054F000070CFCE80223E14603F000485FEA080CD1
:1055000002D00FF2702C0DE05FEA045C02D50FF2BE
:10551000682C07E05FEAC47C02D00FF2602C01E047
:10552000AFF2700C4FF0FF3823F00043CDF850C0BD
:1055300065280CD006DC452809D046281DD0472810
:105540003DD13DE0662818D067287ED138E00021A3
:10555000112F01DB112000E0781CCDE9000106A924
:105560000EA8FFF7DDFCDDE90F010E9A0391002183
:10557000009207F1010A04914DE04FF000400097BE
:10558000CDE9011006A90EA8FFF7CAFCDDE90F025C
:1055900003920E9B11990022DDF80CA00093049257
:1055A00011B9791C00EB010AB7EB0A0004D4C0F171
:1055B000FF3007F1010A0490AAEB0700019044E0D4
:1055C000012F00DA01270021112F01DD112000E059
:1055D0003846CDE9000106A90EA8FFF7A1FCDDE9D8
:1055E0000F010E9A0391002104910092BA462107FF
:1055F0000CD40399514500DA8A46BAF1010F05DD52
:10560000009AAAF10101515C302908D0B84202DAAF
:1056100010F1040F06DA0121CDE9011015E0AAF11D
:105620000101E9E7002805DC049901440491AAEB93
:10563000000102E0411C514500DD8A460499401AF0
:10564000401C01904FF000400290200704D40198C4
:10565000504501DBCDF8048000208DF84F00029802
:105660000DF14F07B0F1004F25D02B200E9002987E
:105670004FF0020800280CDA404202902D200E90D4
:1056800007E00A210298FBF702F83031029007F890
:10569000011DB8F10001A8F10108F2DC0298002810
:1056A000EFD1791E0E980870307800F0200040F09D
:1056B000450007F8020D12A8C01B00F10708149856
:1056C000007800B1012000EB0A01019801EBE071C4
:1056D00005984144401A401E0590E00306D45B46FD
:1056E0002146179A059800F05DF805441498007853
:1056F00018B15A46179990476D1CE00324D55B46B4
:105700002146179A059800F04DF805441CE00498CE
:10571000002807DBDDE90301884203DD0098405CD7
:10572000179901E0179930205A469047049805F1DF
:105730000105401C04900198401E019004D12E20C8
:105740005A46179990476D1CBAF10001AAF1010A57
:10575000DDDC05E017F8010B5A46179990476D1CE0
:10576000B8F10001A8F10108F4DC5B462146179A64
:105770000598ABE62D0000002B0000002000000083
:105780002DE9F041044600251E461746880404D43E
:1057900005E039462020B0476D1C641EF9D5284627
:1057A000BDE8F0812DE9F041044600251E469046F3
:1057B000C80301D5302700E02027880404D505E080
:1057C00041463846B0476D1C641EF9D52846BDE8F1
:1057D000F081000010B5044601E0FEF757F914F817
:1057E000010B04490028F8D1BDE810400A20FEF75B
:1057F0004DB90000000000200040404040404040C3
:105800004040414141414140404040404040404093
:105810004040404040404040400502020202020237
:105820000202020202020202022020202020202086
:10583000202020020202020202029090909090909A
:105840001010101010101010101010101010101058
:1058500010101010020202020202888888888888CC
:1058600008080808080808080808080808080808B8
:10587000080808080202020240000000F957000868
:105880000000000000307D40000000A099496D40FC
:105890000000004033535D40000000C0CC4C4D4040
:1058A000000000C0CC4C3D40000000000000F0BFF4
:1058B0000000004033331D40000000000000F0BF36
:1058C000000000A0995977400000006066666740BC
:1058D00000000040337357400000004033734740DE
:1058E0000000006066663740000000606666274082
:1058F0000000004033331740000000000000F0BFFC
:105900000000000000807340000000606686634075
:10591000000000C0CC8C53400000000000804340D9
:105920000000000000803340000000000000F0BFD5
:105930000000004033331340415B00085C5B00080B
:10594000F15B0008E15A0008375C0008E15A0008E2
:10595000465C0008000000000000004033331F4098
:105960000000004033332F40000000C0CC4C3F40CB
:105970000000000000404F400000000000405F4079
:105980000000000000406F400000000000407F4029
:10599000000000000000F0BF000000C0CCCC24409C
:1059A000000000C0CCCC3440000000A099D9444095
:1059B0007A5B00085E5A0008635A0008685A0008BB
:1059C0006D5A00083078253032580D0A0046535F72
:1059D0004745545F43524357483A0D0A4352435F89
:1059E000494E49543D3078253034580D0A435243CE
:1059F0005F504F4C593D3078253034580D0A574888
:105A00005F494E49543D3078253034580D0A0046E0
:105A1000535F5345545F43524357483A0D0A43522C
:105A2000435F494E49543D3078253034580D0A4380
:105A300052435F504F4C593D3078253034580D0A51
:105A400057485F494E49543D3078253034580D0A47
:105A5000005041595F4C454E3D25640D0A00345FAE
:105A6000350D00345F360D00345F370D00345F387C
:105A70000D004745545F4F504D4F44453A20535415
:105A8000414E4442592052430D005345545F4F50FC
:105A90004D4F44453A205354414E444259205243BD
:105AA0000D004745545F4F504D4F44453A205354E5
:105AB000414E44425920584F53430D005345545FC3
:105AC0004F504D4F44453A205354414E4442592083
:105AD000584F53430D004C454E3A46495845440DE6
