:020000040800F2
:1000000048230020E9000008570B0008ED0A00080B
:10001000550B0008E90A0008E91700080000000075
:100020000000000000000000000000004B0C000871
:10003000FD000008000000005B0B0008B51600087A
:100040000301000803010008030100080301000880
:100050000301000803010008E3170008030100087A
:100060000301000803010008030100080301000860
:100070000301000803010008030100080301000850
:10008000690A0008030100080301000803010008D1
:1000900003010008110B000803010008AD17000858
:1000A0000301000803010008030100080301000820
:1000B0000301000803010008030100080301000810
:1000C0000301000803010008590B000803010008A0
:1000D00003010008DFF80CD000F070FC0048004776
:1000E0007944000848230020064880470648004716
:1000F000FEE7FEE7FEE7FEE7FEE7FEE7FEE7FEE7D8
:10010000FEE7FEE755170008D500000810B5431AB2
:10011000934209D28318881803E010F8011D03F8F0
:10012000011D521EF9D210BD40EA01039B0703D006
:1001300009E008C9121F08C0042AFAD203E011F826
:10014000013B00F8013B521EF9D210BDCAB2401E5D
:1001500010F8011F8A4202D00029F9D1002070470F
:10016000421C10F8011B0029FBD1801A704710B502
:10017000002200E0521C835C8C5CA34201D1002B66
:10018000F8D1D8B2E1B2401A10BD30B503461D789F
:100190003DB10A4612F8014B1CB1AC42FAD15B1CCE
:1001A000F5E7181A30BD30B50546002008E00A46CC
:1001B00002E0A34207D0521C1378002BF9D1401C57
:1001C0002C5C002CF3D130BD2DE9F0410E460546E4
:1001D000002400E0641C285D00F0D6FA0746305D7C
:1001E00000F0D2FA381A02D1295D0029F2D1BDE817
:1001F000F0812DE9F04791460F46804604460026DF
:1002000014F8015B2DB100F0BBFA0068405DC00737
:10021000F6D12B2D02D02D2D18D0641E4A4639461A
:10022000204600F0B7FA27B13968A14201D1C7F8DA
:10023000008071054FF002040BD54042002803DD19
:1002400005F044FA0460A007BDE8F08746F4806634
:10025000E4E70028F8DA05F039FA04606FF00040AE
:10026000F2E72DE9F05F93460F46804604460026EC
:1002700005F02CFAD0F80090824614F8015B2DB1FD
:1002800000F07EFA0068405DC007F6D12B2D02D049
:100290002D2D1AD0641E0021CAF800105A46394686
:1002A000204600F077FA014627B13868A04201D114
:1002B000C7F80080DAF80000022809D0CAF80090D8
:1002C000700505D54842BDE8F09F46F48066E2E738
:1002D0000846F8E72DE9FE4F804681EA0300C00F8B
:1002E0000C46009021F0004123F00045B8EB0200DD
:1002F000A94105D24046214690461C460B4602467F
:1003000023F00040104347D0270DC7F30A00C3F382
:100310000A510290401A019040286BDAC3F313008F
:1003200040F4801B0098924620B10023D2EB030AD0
:1003300063EB0B0B01985946C0F14002504600F0A8
:10034000EDF906460D4650465946019A00F005FA69
:1003500010EB08006141002487EA115284EAE77338
:100360001A4340D0009A62B3019A012A4FEA075219
:1003700015DC001B61EB02014FF0004202EA07525C
:10038000CDE90042001C41F5801132462B4600F0B9
:1003900096FA03B0BDE8F08F40462146F9E7001B0E
:1003A00061EB0201001C41F5801300185B4120182D
:1003B000A2F5001747EB030140EAD570B6196D416D
:1003C00011E06D084FEA360645EAC0754FEA07525C
:1003D000001B61EB0201001C41F5801149084FEA46
:1003E00030000019514132462B4603B0BDE8F04FB2
:1003F00000F056BA0098012240000023D0EB020220
:1004000063EBE073009821464FEAE074B8EB00001C
:1004100061EB0401E9E783F000435BE781F0004111
:1004200058E72DE9FE4F81EA030404F0004421F06F
:10043000004100944FF0000B23F0004350EA010408
:100440005ED052EA03045BD0C3F30A54C1F30A55E9
:100450002C44A4F2F3340194A0FB0254C1F3130121
:1004600041F48011C3F3130343F4801301FB0244EE
:1004700000FB034E840A970A44EA815447EA8357F3
:10048000A4FB076802958D0A05FB07854FEA932CAC
:1004900004FB0C542705029D4FEA065847EA16371D
:1004A000B5EB08056EEB070C870E920E47EA811735
:1004B00042EA8312A7FB0201B6EB0B0164EB0004D6
:1004C0002B0D43EA0C335E1844EB1C50DA465146C0
:1004D000E7FB0201C5F313044FEA0B3343EA14535D
:1004E0004FEA0432019C43EA0603A4F10C0402948F
:1004F000009CCDE900B400F0E2F903B0BDE8F08F54
:1005000000200146F9E72DE9F04D81EA030404F0EB
:10051000004B21F0004514464FF0000A23F0004143
:1005200050EA050220D054EA01021DD0C5F30A5753
:100530000246C5F31303C1F31300C1F30A5640F496
:10054000801543F48013A7EB0608101BD64608F26B
:10055000FD3873EB050002D308F1010801E09218A1
:100560005B41B8F1000F03DA00200146BDE8F08DD1
:1005700000204FF48011064684460EE0171B73EBF3
:10058000050705D3121B63EB050306434CEA010C78
:1005900049084FEA300092185B4150EA0107EDD15B
:1005A00052EA030012D082EA040083EA05010843FC
:1005B00005D0101BAB4106D20122002306E0002229
:1005C0004FF0004302E06FF0010253101AEB0600F7
:1005D0004CEB085110EB0A0041EB0B01BDE8F04D6C
:1005E00000F05EB90EB540F2334102910021CDE931
:1005F00000110A460B4600F062F903B000BDC1F3DA
:100600000A5210B5C1F3130140F2FF3341F48011D7
:100610009A4201DA002010BD40F233439A42A2F21E
:10062000334203DC524200F088F810BD904010BD08
:1006300000F0004230F000400AD0C10D01F56071B9
:10064000C0F3160042EA0151C20840071143704747
:1006500000200146704701F0004330B421F0004112
:1006600050EA010206D00A0DA2F56072C1F313012F
:10067000002A02DC30BC00207047440F44EAC10469
:10068000C100E01830BC00EBC25000F0D2B830B569
:100690000B46014600202022012409E021FA02F540
:1006A0009D4205D303FA02F5491B04FA02F52844DA
:1006B000151EA2F10102F1DC30BD2DE9F05F054607
:1006C000002092469B4688460646814640241BE011
:1006D000284641464746224600F02FF853465A46E0
:1006E000C01A914110D311461846224600F016F860
:1006F0002D1A67EB01084F4622460120002100F029
:100700000DF817EB00094E41201EA4F10104DFDCB7
:10071000484631462A464346BDE8F09F202A04DB7E
:10072000203A00FA02F1002070479140C2F1200304
:1007300020FA03F3194390407047202A04DB203A43
:1007400021FA02F00021704721FA02F3D040C2F1F1
:1007500020029140084319467047202A06DBCB1738
:10076000203A41FA02F043EAE07306E041FA02F36C
:10077000D040C2F120029140084319467047000062
:100780000048704750600008A0F14101192900D8C5
:10079000203070472DE9F05F82460078002715462B
:1007A0008B460AF10104B946302801D09DB113E00F
:1007B00014F8010B0127782803D0582801D045B13F
:1007C0000AE00DB1102D07D10027102514F8010BF8
:1007D00002E0082500E00A250026B0460EE005FBF1
:1007E000080005FB06F1012701EB10461FFA80F80F
:1007F000B6F5803F00D3B94614F8010B294600F046
:10080000F5F80028EBDABBF1000F05D00FB1641E3C
:1008100000E05446CBF80040B9F1000F06D004F0D8
:1008200055FF02210160C81EBDE8F09F48EA06405E
:10083000FAE70029A8BF7047401C490008BF20F014
:100840000100704710B4B0FA80FC00FA0CF050EAD6
:10085000010404BF10BC704749B1CCF1200421FA57
:1008600004F411FA0CF118BF012121430843A3EB52
:100870000C01CB1D4FEA00614FEA102042BF00205F
:1008800010BC704700EBC35010440029A4BF10BC3B
:100890007047401C490008BF20F0010010BC7047A1
:1008A00010B5141E73F1000408DA401C41F1000178
:1008B00092185B411A4301D120F0010010BD2DE9CF
:1008C000F04D92469B4611B1B1FA81F202E0B0FAC6
:1008D00080F220329046FFF721FF04460F4640EA9F
:1008E0000A0041EA0B0153465A46084313D0114609
:1008F00053EA010019D0C8F140025046FFF71DFF2E
:1009000005460E46504659464246FFF707FF084344
:1009100005D0012004E020463946BDE8F08D0020D6
:10092000054346EAE0762C4337430A986305E40A18
:10093000A0EB08000022FD0A44EA47540A3002D521
:1009400000200146E9E7010510196941DDE9084584
:1009500000196941BDE8F04DA2E7C1F30A52C1F3A5
:10096000130140F2FF3341F480119A4202DA002071
:100970000146704740F233439A42A2F2334202DC0E
:100980005242FFF7DABEFFF7C9BE000030B5041EC1
:1009900071F1000404DB4FF00044404264EB0101BC
:1009A000141E73F1000405DB1C464FF00043524255
:1009B00063EB0403994208BF904230BD1CB509485F
:1009C0000090094801900546009C06E0E06840F070
:1009D000010394E8070098471034AC42F6D3FFF7C0
:1009E0007DFB0000286C0008486C00083A2800D203
:1009F000303820F02002412A01D3A2F1370088428A
:100A000001D34FF0FF30704770B58D1810F8014BCF
:100A100014F0030201D110F8012B231106D110F8B4
:100A2000013B03E010F8016B01F8016B521EF9D194
:100A3000ABB110F8012B04F00C048A1A0C2C03D073
:100A4000A2EB84129B1C08E010F8014BA2EB0422DD
:100A5000F8E712F8014B01F8014B5B1EF9D5A942EA
:100A6000D4D3002070BD0000F0B581B0012000F0AB
:100A7000CBFF98B3012000F0DDFE00F0BDFFFFF7D3
:100A8000B1FD044640F21060C2F2000000680D465D
:100A9000FFF7CEFD9FED120B06460F4653EC102BD1
:100AA00020462946FFF7BDFC32463B46FFF7B3FC24
:100AB000044641F21860C2F2000000680D46FFF7DC
:100AC000B7FD02460B4620462946FFF71CFDFFF7FF
:100AD000C2FD40F20451C2F20001086001B0F0BD55
:100AE0000000000000C0D23FFEE7000003A005F0B8
:100AF0005BFA642003F082F900F078FE48617264CA
:100B0000204661756C74206F63637572730D00000D
:100B100010B500F0F5F8044647F6FF7000F0C3F892
:100B2000E00705D041F62400C2F200000121017067
:100B3000A00705D541F62300C2F200000121017093
:100B4000600658BF10BD40F20D60C2F200000121E6
:100B5000017010BDFEE770477047704770B55E28A2
:100B600028BF5E204408A0EB500541F62800C2F2E1
:100B700000008471C57141F62200C2F200000078C5
:100B800041F62506C2F200063070022000F00EFC8D
:100B900040F61110214600F0BBFCE9B240F61210FD
:100BA00000F0B6FC3078BDE8704000F0FFBB10B537
:100BB00041F21C64C2F20004207878B940F20000CF
:100BC000C2F2000000214FF4806200234FF0FF309A
:100BD0004FF4E13003F0EFFC0120207041F6C42116
:100BE000C2F200010868012816DB41F6C822C2F2F1
:100BF0000002106841F6C103C2F20003185C1368DA
:100C0000013313601368B3F5007F04BF0023136042
:100C10000A68013A0A6010BD4FF0FF3010BD80B580
:100C200040F20000C2F2000000214FF48062002375
:100C30004FF0FF304FF4E13003F0BDFC41F21C6097
:100C4000C2F200000121017080BD704780B541F6FD
:100C50002800C2F20000C0684DF68361C4F21B3167
:100C6000A0FB0101880CB0F57F7F4FF47F7038BF87
:100C7000880C810800EB40004FF47F724308B3F505
:100C80007F7F38BF4208900841F21D72C2F2000215
:100C90009823907003201370517003F0B3FBBDE8EC
:100CA000804003F0DDBB41F21D720146C2F200023A
:100CB00002201070080A50700320917003F0A2BB4C
:100CC000F0B581B0074641F21D700E46C2F2000039
:100CD000142101700021C0F8011005201C461546A2
:100CE00003F090FB41F21D60C2F2000041783970C0
:100CF00081783170C17829700079207001B0F0BD21
:100D000080B541F21D70C2F2000012210160042082
:100D100003F078FB41F21D60C2F20000408800BA87
:100D2000000C80BDF0B581B0074641F21D700E4643
:100D3000C2F20000142101700021C0F8011005204A
:100D40001C46154603F05EFB41F21D60C2F2000036
:100D50004178397081783170C178298000792070AC
:100D600001B0F0BD80B541F21D70C2F20000152146
:100D7000018000218170032003F044FB41F21D60DB
:100D8000C2F20000807880BD80B541F6280040F2B4
:100D90007041C2F20000C2F20001B1F90010D0E9C6
:100DA000030202FB0100FFF71DFC9FED0D0B53EC4E
:100DB000102BFFF7A8FBFFF722FC41F21D72014642
:100DC000C2F2000286201070080E5070080C90705D
:100DD000080AD07005201171BDE8804003F012BBF5
:100DE000000000008084EE3F2DE9F04141F21D77C4
:100DF0000646000AC2F200070D4640F20D64BC210F
:100E0000F870042090463C80B97003F0FBFABD20D6
:100E1000B87004203C80FE7003F0F4FA280ABE216A
:100E2000F87004203C80B97003F0ECFABF20B87071
:100E300004203C80FD7003F0E5FA40F21D60C0F232
:100E4000B800386000203871052003F0DBFA41F269
:100E50001D60C2F200000079C8F3002100F0FE001E
:100E60000844B821F87004203C80B97003F0CAFA35
:100E7000B9203C80B870042087F80380BDE8F041B9
:100E800003F0C0BAB0B54DF6836CC4F21B3CA3FBB3
:100E90000CE44FEA143E43F609540EFB143341F6BA
:100EA000846444EA8333A3FB0C3440F2000CC3F6A1
:100EB000095CBCFBF0F36FF07F45AB4228BF2B46CB
:100EC00060454FEA143000EB8E3041F21D7488BF4C
:100ED0000123A84238BF0546C2F200048B202070CF
:100EE000180C6070180AA070280CA071280AE37012
:100EF00021716271E07109202572BDE8B04003F0F4
:100F000081BA0000F0B581B041F21D76044600259B
:100F1000C2F200060D2700BF05F5D860615D020A28
:100F2000B070042037707270F17003F06BFA013505
:100F3000082DF1D101B0F0BD70B58C1F18BF012490
:100F40000523052898BF184641F21D750C2828BFB7
:100F50000C20C2F200058B2368700A284FF00000B5
:100F60002B70A970EA7088BF012028710520002627
:100F700003F048FA40F61D00C0F289002860052001
:100F80002E7103F03FFA41F21D60C2F200000079B9
:100F900000F0FB0040EA840140F60D002880892023
:100FA000A8700420E970BDE8704003F02BBA70B55A
:100FB00041F21D74049E012898BF0120C2F2000472
:100FC0008C252570050AA07007206570E1702271DC
:100FD0006371A67103F016FA40F21D70C0F236007C
:100FE000206000202071052003F00CFA41F21D6002
:100FF000C2F200000079002E00F0FB0140F20D70FB
:1010000008BF043120803620A0700420E170BDE8C4
:10101000704003F0F7B941F21D7CC2F2000C952339
:101020008CF800308CF80100072928BF07218CF8C4
:101030000210012105208CF803208CF8041003F025
:10104000E1B9B0B541F21D7440F29540C2F200041E
:10105000C0F20700206001202071052003F0D2F9C2
:1010600040F60D00C3F6E7002060042003F0CAF943
:101070008E20207041F62800C2F20000417DC08A17
:101080006170143814284FF0000038BF0120A070A0
:101090000320002503F0B6F940F61D00C0F2D80089
:1010A00020600520257103F0ADF941F21D60C2F208
:1010B0000000007940F01E0140F60D002080D8208D
:1010C000A0700420E170BDE8B04003F09BB90000BF
:1010D00010B549F20804C4F200040020C4F8040169
:1010E000142002F0ABFEC020206000BF606800F05A
:1010F00011000128FAD1206800202060606800F00B
:1011000011000128FAD120680120C4F804010A2046
:1011100002F094FED4F80001C005FBD410BD2DE907
:10112000F04103F03DF9FFF7D3FF0A2002F066FE1D
:1011300041F62205C2F20005012041F21D7428701B
:10114000C2F2000480202080022003F05BF94FF4FB
:10115000CB702080022003F055F941F62807C2F237
:101160000007B87A20B101285AD100F05CFA01E0FA
:1011700000F0DBF9FE6A03F035F96FF07F4086423C
:1011800038BF3046010C4FF082086170010AE070F0
:10119000042084F80080A17003F034F9FFF756FDB5
:1011A000022028704FF4C0702080022003F02AF93A
:1011B000B87940F60D161121E07004202680A17048
:1011C00003F020F9F8791221E07004202680A17044
:1011D00003F018F9FFF735FF40F60D00C9F2AC60D7
:1011E0002060042003F00EF940F29D1020800220C0
:1011F00003F008F90820C0F24F0020600F20207192
:1012000000270920C4F8057003F0FCF805202870B9
:1012100003F0E8F80420C4F8008003F0F3F800E0DD
:10122000FF2778B2BDE8F08110B541F6280040F6FE
:10123000002240F2000EC2F20000C0F20A02C0F624
:10124000082EC0E9052E4CF66C12C0F22012C0F830
:1012500022204CF25032026341F20932828646F279
:10126000A8128263202242F26B31828741F204028B
:10127000CCF66C11C6F6C94201604FF0FF31C0F8E0
:101280003E2046F6233281804FF4C851C6F6C9424B
:10129000018145F2007148F2A063C0F8422046F691
:1012A0002332C1F2A661C0F20103A0F84620202239
:1012B000C0E903130021C1F60F52C0E9121241F236
:1012C0002102A0F850204FF4807240F20114A0F8DF
:1012D000542041F288324FF0010CC0F24004CFF6A6
:1012E000FF7280F80AC0C46180F8201080F82610D0
:1012F000C0E90A1180F852C0C0E91611026680F8F0
:10130000641000BF421882F8651001312029F9D11C
:1013100004F0B0F902A004F047FE002010BD00BFA9
:10132000436F6E66696720696E6974204F4B2E0D9E
:101330000000000070B50D4641F21D711446C2F266
:1013400000011E2241F21D660A7048700020C2F2A0
:101350000006002156FA81F20131CBB2AB42907007
:10136000F8D9E81CC0B203F04DF83DB1F01C00BF45
:1013700010F8011B013D04F8011BF9D170BD80B5C7
:1013800041F21D71C2F200011D220A70020A88702A
:101390000020A1F8030005204A7003F033F841F261
:1013A0001D60C2F20000007980BD0000B0B50728C2
:1013B00046D8DFE800F0041D2B397345556341F62C
:1013C0002200C2F200000021017041F62800C2F2A2
:1013D0000000417E007E002941F21D71C2F2000131
:1013E0004FF0840218BF40F004000A7048700BE010
:1013F00041F62200C2F200000121017041F21D708D
:10140000C2F2000080210180022464E041F6220043
:10141000C2F200000224047041F21D70C2F200000A
:101420004FF4C071018056E041F62200C2F2000084
:101430000321017041F21D70C2F20000C1212AE0B7
:1014400041F62200C2F200000521017002F0CAFF3D
:1014500041F21D70C2F200008221016004243AE0D2
:1014600041F62200C2F200000621017002F0C2FF24
:1014700041F21D70C2F20000D1210CE041F62200C1
:10148000C2F200000721017002F0B4FF41F21D70AA
:10149000C2F20000D221012401701CE041F62801B3
:1014A00041F62200C2F20001C2F2000004248D6A5B
:1014B000047002F09FFF41F21D716FF07F40C2F295
:1014C00000018322854238BF28460A70020C4A7008
:1014D000020A8A70C8702046BDE8B04002F092BF90
:1014E00041F21D7CC2F2000C0E238CF800308CF807
:1014F000010049B10CF102000B4600BF12F801CB0C
:10150000013B00F801CBF9D1881CC0B202F07ABFD0
:1015100041F21D72C2F200020D231370030A907093
:1015200004205370D17002F06DBF2DE9F04182B0FC
:1015300041F21D74C2F200048A202080022002269B
:1015400002F060FF41F62805C2F20005287D40F256
:101550007041C2F200010880FFF716FC8F20208046
:101560008020A070032002F04DFF286B95F8341006
:1015700095F83520AB6BFFF785FCA98F95F83E20D9
:10158000B5F84BC095F83F3095F8480095F84DE018
:1015900095F85280012998BF01218C2727700F0AE6
:1015A000A170511EC9B2072A677028BF07220329FC
:1015B00038BF0422402BE27028BF40232371022849
:1015C00038BF06460A206671A4F806C084F808E011
:1015D00084F8098002F016FFD5E91001CDE9000179
:1015E0006846FFF78FFC95F8490095F84A6040F28D
:1015F0000D67CD21E07004202780A17002F002FF6A
:10160000CE20A07004202780E67002F0FBFEB5F823
:101610004E00B5F85010B5F85420FFF7E5FB002058
:1016200002B0BDE8F08170B582B041F21D76C2F221
:1016300000064FF4C5703080022002F0E3FE41F650
:101640002805C2F20005287D40F27041C2F2000177
:101650000880FFF799FB8F2030808020B070032036
:1016600002F0D0FEA87EE97E2A7FFFF765FCE88BBA
:1016700095F8201095F8242095F8253095F8264007
:101680000094FFF794FC95F8230040F20D7440217C
:10169000F07004203480B17002F0B4FE95F822009E
:1016A0004121F07004203480B17002F0ABFE0020C4
:1016B00002B070BD40F20850C2F200000168013172
:1016C0000A29016007D180B500210160012000F0E6
:1016D000B1F9BDE8804041F61D01C2F20001087871
:1016E00068B341F61430C2F2000040F26843026869
:1016F000C2F200031B8801329A4202601FD300220B
:10170000026041F64230C2F20000038801330380D8
:1017100041F64033C2F2000300881B88984208D982
:1017200041F61330C2F20000027005A00A7004F006
:101730003BBC41F61330C2F200000121017070473A
:1017400053454E445F5041434B45543A20444F4E1D
:10175000450D00004EF62250CEF20000D0F8661083
:101760000C2241F47001C0F86610C4F20002136844
:10177000082143F08003C4F202011360CA68012308
:1017800063F31342CA6000BF0A689207FCD5E021E8
:1017900001704EF200410020CEF20001C02200BFD5
:1017A000425401302528FBD102F0F6BAB0B582B020
:1017B0004AF20004C4F200040DF1070220460121A0
:1017C000012503F0E2FD9DF8070040B1204601210C
:1017D00003F0C0FD41F61030C2F20000057002B007
:1017E000B0BD00F0F1B90000FEE700004EF60C506D
:1017F000BFF34F8FCEF200000168042201F4E061D4
:10180000C0F2FA5211430160BFF34F8F00BFFDE7F2
:101810004EF60C50BFF34F8FCEF200000168042249
:1018200001F4E061C0F2FA5211430160BFF34F8F3F
:1018300000BFFDE747F21401C4F201010A6802404B
:10184000824218BF70470A68104308607047002141
:10185000B1EB103F18BF704747F20401C4F2010119
:101860000A6840F6FF739A430A600A6810430860EA
:10187000704747F20401C4F201010A6822F44012E1
:101880000A600A68104308607047002947F218018F
:10189000C4F201010A680CBF22EA0000104308608C
:1018A000704748F248010128C4F2000104D038B959
:1018B000086820F0400002E0086840F0400008603E
:1018C000704780B547F20802C4F201026FF01F03AF
:1018D000043203EB800308283CBF47F20802C4F23D
:1018E000010238BF83004FF00F0CD2F800E00CFA71
:1018F00003F02EEA000099400843106080BD47F2D3
:101900000001C4F201010A6808B142B17047D00772
:10191000FCD00868400748BF7047022000E0012063
:101920000A6810430860704748F2B001C4F2000131
:101930000A6822F0007260F359620A607047000082
:101940002DE9F04381B0894642F23001C1F2000135
:10195000D1E9001490460522002818BF0D2221FA73
:1019600002F04FF00405C0B218BF0D25FEF73AFE95
:101970009FED190B53EC102BFEF753FD9FED180B49
:1019800053EC102BFEF7A6FC064624FA05F06FF385
:101990005F200F46FEF726FE9FED130B53EC102B36
:1019A000FEF73FFD9FED120B53EC102BFEF792FC60
:1019B00004460D4630463946FEF74DFEC9F8000094
:1019C00020462946FEF747FEC8F8000001B0BDE8F2
:1019D000F08300BF00BF00BFFCA9F1D24D62603FA1
:1019E000000000000000F03FFCA9F1D24D62503F22
:1019F000FCA9F1D24D62D0BF47F21C00C4F2010035
:101A000000686FF31F30704747F21401C4F2010100
:101A100009680140081AB0FA80F04009704748F29E
:101A20004401C4F20001086820F4707264200A6066
:101A300002F004BA47F20001C4F201010A6830B1B1
:101A4000D0070BD00868800708D4042003E05007B3
:101A500058BF704708200A681043086070470000AC
:101A60002DE9F04381B042F20C07C4F203070D46A2
:101A700039681C46064621F00300012A386003D16C
:101A8000386840F00100386005B341F2000841F2C7
:101A90002009C4F20308C4F2030900BF40463146DE
:101AA0001022FEF733FB386840F08000386000BF3A
:101AB00038680006FCD4204649461022FEF726FB73
:101AC000103D1036280404F11004E7D1002001B0C5
:101AD000BDE8F08301220346FFF7C2BF00220346A0
:101AE000FFF7BEBFF0B581B014460A461D46A2F10D
:101AF00010030146102B4FF0060052D8012707FAB9
:101B000003F340F20117C0F201073B4249D042F211
:101B10000407C4F20307386841F2006640F0090088
:101B2000C4F2030638603220C6F8000A44F0100000
:101B3000202A786105D0182A05D0102A06D1002065
:101B400002E0082000E00420B86000BF3868C00749
:101B5000FCD141F24060C4F20300FEF7D7FAB86846
:101B600040F08200B86000BFB8680006FCD4B868D6
:101B7000611E20F003000229B86011D841F2106004
:101B8000C4F2030029461022FEF7C0FA0020032CFD
:101B900002BF4FF08071C6E90000C6E9020100E013
:101BA000002001B0F0BD80B50020012103F052F803
:101BB00041F62800C2F200006530202100220023F7
:101BC000BDE88040FFF78EBF10B543F20004C4F2B9
:101BD00000042046102103F01CFC00B110BD20467B
:101BE00003F0BEFC41F6CC21C2F200010A6841F6C6
:101BF000C103C2F20003985408680130086041F63E
:101C0000C420C2F200000268013202600A68B2F524
:101C1000007F04BF00220A600268B2F5007FDDDDAC
:101C200000220A60026041F6C820C2F20000026091
:101C300010BD0000022988BF704748B202A151F8C8
:101C4000200004F0B1B900BFC6620008FB630008C1
:101C50002364000800210022FEF7CBBA00210022F5
:101C6000FEF7FFBA844600284FF0010018BF002994
:101C700000D17047CCF8001000200CF108010DC114
:101C80008CF80400704700002DE9F04F81B08046C9
:101C900020B3D8F8000008B308F108040026002794
:101CA000FEF75EFA54F8041C054629B10846FEF713
:101CB00057FA014601E000BF0021AF42C8BF3D46D0
:101CC0008E42C8BF31462268A068002A1CBF0E465B
:101CD0002F46002804F11004E2D101E0002600277D
:101CE00028A004F061F946F6CB30C0F6000004F0FD
:101CF0005BF9B8F1000F3AD0D8F80020BAB37D42B2
:101D000046F61E4746F6C43A764208F108040FF23A
:101D1000A408C0F600070FF28C09C0F6000A0FF203
:101D2000880B00BF206858B14846294603F0BEFC26
:101D300054F8042C42B11078002808BF524604E041
:101D4000404611460AE000BF52465846314603F06D
:101D5000ADFC616821B1087810B115A003F0A6FCB4
:101D6000384604F021F9A2681034002ADAD146F688
:101D70001E40C0F6000004F017F9012001B0BDE8D4
:101D8000F08F00BF3C636F6D6D616E643E203C61FF
:101D90007267733E203C68656C7020746578743E91
:101DA0000D000000252A730020252A730000000082
:101DB00020257300202D2D2D202573202D2D2D0065
:101DC0002DE9F04F9BB000284FF0FF0900F0528141
:101DD000002900F04F810446D0E902B015465A446C
:101DE000824280F03D8120682A465844FEF78EF9F1
:101DF000A0684FF00008284483454FF00009A06018
:101E000080F038810AA946F620460431C0F6000663
:101E100000230691216811F80BA0BAF10A0F02D035
:101E2000BAF10D0F18D19B4501F80B8052D02068F4
:101E30002169C518CDE90813284629460A78082AD9
:101E400004D06AB100F8012B03E000BFA84288BFAC
:101E500001380131F2E700BF0BF1010B4DE000BF8B
:101E600080F80080284631461AAA03F045FA80B36C
:101E700007460898B0B10668B6B100F1080800BF7F
:101E8000D8F8000020B138463146FEF79DF9C0B3BE
:101E9000D8F8086008F11008002EF1D100264FF0A4
:101EA000000802E0002609E00026284675A1FEF79A
:101EB0008BF918B90898FFF7E7FE0646002E46F69C
:101EC0002046C0F6000604D11FB138460021FFF7B6
:101ED000B1FE099BBAF10A0F08BF9B4502D009F178
:101EE000010904E020790D2818BF09F101090BF15F
:101EF000010BA0685B4684F804A08345FFF48AAF19
:101F0000B1E00A9646F62046C0F6000600203146AB
:101F10001AAA03F0F1F9CDF814904FF0010970B14D
:101F2000B9F10F0F0AA941F8290028D00020314645
:101F30001AAA09F1010903F0DFF90028F0D158F8D5
:101F4000047C002F00F0768038464DA1FEF70FF993
:101F500000286FD03846FEF703F9049038462A214E
:101F6000FEF7F4F8A0B1049AB918013988424FF08D
:101F7000020105D1012A03D0901E00900AE0012140
:101F80002846FFF757FEDDF814904FF00008A0E751
:101F9000049A0092B9F1010002903FD00397501EBD
:101FA0002E23002700260190964205DA0398805DD3
:101FB0002A2818BF034604E003980199405C2A28A8
:101FC0002DD1A3F1730004280BD80793DFE800F0AC
:101FD00003270C0F12000698042150F82600012256
:101FE0000DE0622B10D01AE00698012104E006985B
:101FF000022101E00698042150F82600002203F097
:102000000DFB079B049A50B10298013686424FF0AF
:10201000000728BF0127B042C6D100E00127F8071A
:102020004FF0020117D0009846F620464845C0F60A
:102030000006A5DAD8F8002048460AA9904758F8C3
:10204000080CDDF8149000284FF000087FF441AF31
:102050000027012629E746F62046C0F600068FE74E
:102060004FF0FE0906E02BB1C21A2068A260C11829
:10207000FEF74CF84FFA89F01BB0BDE8F08F00BFB7
:102080003F00000068656C700000000080B5486883
:10209000FFF7E4FDC0B20028014618BF012107A2E6
:1020A000002809A018BF104641F62802C2F200021B
:1020B00082F86410BDE8804003F076BF4145533A92
:1020C000204F4E0D000000004145535F454E3A2021
:1020D0004F46460D00000000F0B581B048680C4640
:1020E000FFF7BCFDA16804460846FFF7B7FD0546AB
:1020F0000AA003F059FFAFB2A5B2AF420CD30AA6B3
:10210000A0B2FFF73CF902463046294603F0CEFA6A
:102110000134A5B2BD42F3D901B0F0BD44554D50D4
:102120005F524547533A0D003078253034582C30F3
:1021300078253032580D0A0041F62800C2F200001E
:1021400090F8491090F84A2001A003F0AFBA00BF00
:1021500046535F4745545F414444523A2030782506
:102160003032582C3078253032580D0A00000000EB
:1021700041F62800C2F20000B0F84E10B0F850202E
:10218000B0F8543046F2A510C0F6000003F08EBA45
:1021900041F62800C2F2000090F835100939CAB2A1
:1021A000162A09D846F2580249B2C0F6000202EBDC
:1021B000C10191ED000B01E09FED070B80B584B0EC
:1021C000016B90F83420806B8DED000B029004A021
:1021D00003F06CFA04B080BD000000000000F0BF06
:1021E00046535F4745544D4F44504152414D533A39
:1021F0000D0A42523D25640D0A53483D25640D0ADF
:1022000042573D252E31660D0A4445563D25640D45
:102210000A00000010B541F62804C2F20004A18FA4
:1022200094F83E2094F83F302AA003F03FFA94F847
:10223000481046F2D72046F2CB32C0F60000C0F676
:102240000002012908BF024646F25D30C0F60000D8
:10225000002918BF104603F0A7FE94F84B1046F271
:10226000C23046F2AE22C0F60000C0F600020029DD
:1022700008BF104603F098FE94F84C1046F229204F
:10228000C0F6000003F012FA94F94D00062806D8B3
:1022900046F21011C0F6000151F8200003E046F2AA
:1022A000B920C0F6000003F07FFE94F8521046F209
:1022B000923046F25232C0F60000C0F60002002909
:1022C00008BF104603F070FE11A0BDE8104003F0F7
:1022D0006BBE00BF46535F4745545F5041434B457B
:1022E00054504152414D533A0D0A5052455F4C45AE
:1022F0004E3D25640D0A5052455F4445543D2564CA
:102300000D0A53594E435F4C454E3D25640D0A005E
:1023100046535F4745545F5041434B4554504152EB
:10232000414D533A20544F444F0D000070B510A05A
:1023300003F0BCF941F6280646F2C9440025C2F272
:102340000006C0F6000400BF701990F84010204647
:1023500003F0ACF90135072DF6D196F8471046F297
:102360009C10C0F60000BDE8704003F09FB900BFAC
:1023700046535F4745545F53594E433A200000008F
:10238000B0B541F62805C2F20005A87A20B10EA02A
:10239000BDE8B04003F008BE48680C46FFF75EFC9D
:1023A000A16804460846FFF759FC85F8494085F8BE
:1023B0004A00FEF7B4FE95F8491095F84A2007A0A8
:1023C000BDE8B04003F072B946535F5345545F41D6
:1023D0004444523A204552524F520D0046535F53E7
:1023E00045545F414444523A203078253032582CCD
:1023F0003078253032580D0A0000000070B541F6E3
:102400002806C2F20006B07A20B114A0BDE87040E0
:1024100003F0CABD48680C46FFF720FCA1680546DA
:102420000846FFF71BFCE16804460846FFF716FC68
:10243000A6F84E50A6F85040A6F85400FEF76FFEDE
:10244000B6F84E10B6F85020B6F8543046F2E71001
:10245000C0F60000BDE8704003F028B946535F5352
:1024600045545F43524357483A204552524F520D0C
:1024700000000000000000002DE9F04381B02DEDC8
:10248000028B84B041F62807C2F20007B87A18B16F
:1024900097A003F089FDCBE048680D46FFF7DEFB0F
:1024A00004464FF41676B0F5167F98BF344649F2CD
:1024B000E031A868C0F204018C4228BF0C46FFF747
:1024C000CDFBE96880460846FFF7C8FB062804D222
:1024D0009FED5D8B4FF01F098AE0062804D19FED28
:1024E0005C8B4FF0170983E0092804D29FED5A8BCB
:1024F0004FF00F097CE00B2804D29FED598B4FF071
:102500001E0975E00D2804D29FED578B4FF0160978
:102510006EE0102804D29FED568B4FF00E0967E055
:10252000152804D29FED548B4FF01D0960E0192847
:1025300004D29FED538B4FF0150959E01F2804D2A8
:102540009FED518B4FF00D0952E0282804D29FEDEA
:10255000508B4FF01C094BE0302804D29FED4E8B7E
:102560004FF0140944E03C2804D29FED4D8B4FF00E
:102570000C093DE0502804D29FED4B8B4FF01B0916
:1025800036E05F2804D29FED4A8B4FF013092FE00D
:10259000772804D29FED488B4FF00B0928E09E2846
:1025A00004D29FED478B4FF01A0921E0BD2804D2D9
:1025B0009FED458B4FF012091AE0EC2804D29FEDF5
:1025C000448B4FF00A0913E0B0F59C7F04D89FEDCF
:1025D000428B4FF019090BE041A1B0F5BB7F98BFCA
:1025E000083191ED008B4FF0090998BF4FF01109A8
:1025F0002869FFF733FBB0F5167F88BF064640F623
:102600004050C0F20300864228BF06463C6387F86C
:10261000348087F83590BE63FEF781FDB86B396B67
:1026200097F83420029039A08DED008B03F03EF82E
:1026300043A004B0BDEC028B01B0BDE8F04303F051
:10264000B3BC00BF00BF00BF0000004033331340E5
:1026500000000040333317400000004033331D407A
:102660000000006066662340000000606666274048
:102670000000004033332D40000000000080334054
:102680000000006066663740000000C0CC4C3D4052
:1026900000000000008043400000004033734740CA
:1026A000000000C0CC4C4D40000000C0CC8C53401A
:1026B00000000040337357400000004033535D403A
:1026C0000000006066866340000000606666674048
:1026D000000000A099496D40000000000080734098
:1026E0000000000000307D40000000A099597740B4
:1026F00046535F5345545F4D4F44504152414D53F3
:102700003A204552524F520D0000000046535F538D
:1027100045544D4F44504152414D533A0D0A425297
:102720003D25640D0A53483D25640D0A42573D2559
:102730002E31660D0A4445563D25640D0A00000001
:1027400046535F5345545F4D4F44504152414D53A2
:102750003A20544F444F0D002DE9F04F81B041F61F
:102760002805C2F20005A87A08B14DA090E048689B
:102770000C46FFF773FAA16880460846FFF76EFA29
:10278000E16881460846FFF769FA216982460846F2
:10279000FFF764FA616983460846FFF75FFA064669
:1027A0000028A06918BF0126FFF758FAE16907461B
:1027B0000846FFF753FA216A04460846FFF74EFA27
:1027C000002818BF0120A5F83C8085F83E9085F8C8
:1027D0003FA085F848B085F84B6085F84C7085F8C7
:1027E0004D4085F85200FEF79AFCA98F95F83E20DF
:1027F00095F83F3031A002F059FF95F8481046F2A5
:10280000D72046F2CB32C0F60000C0F60002012904
:1028100008BF024646F25D30C0F60000002918BF2E
:10282000104603F0C1FB95F84B1046F2C23046F259
:10283000AE22C0F60000C0F60002002908BF104614
:1028400003F0B2FB95F84C1046F22920C0F60000C8
:1028500002F02CFF95F94D00062806D846F210111B
:10286000C0F6000151F8200003E046F2B920C0F69E
:10287000000003F099FB95F8521046F2923046F2B0
:102880005232C0F60000C0F60002002908BF104610
:1028900003F08AFB18A001B0BDE8F04F03F084BB41
:1028A00046535F5345545F5041434B45545041524A
:1028B000414D533A204552524F520D0046535F53FB
:1028C00045545F5041434B4554504152414D533A5A
:1028D0000D0A5052455F4C454E3D25640D0A50523D
:1028E000455F4445543D25640D0A53594E435F4CA2
:1028F000454E3D25640D0A0046535F5345545F50D5
:1029000041434B4554504152414D533A20544F445A
:102910004F0D00002DE9F04182B041F62808C2F2C7
:10292000000898F80A0028B11BA002B0BDE8F041E9
:1029300003F03ABB0C1D00266F4600BF54F826007A
:10294000751CFFF78BF9B855082D2E46F6D1DDE939
:102950000001C8E91001FEF7E2FB14A002F0A6FE98
:1029600046F2C9440026C0F6000400BF08EB06008A
:1029700090F84010204602F099FE0136072EF5D15E
:1029800098F8471046F29C10C0F6000002B0BDE86F
:10299000F04102F08BBE00BF46535F5345545F5376
:1029A000594E433A204552524F520D0046535F5301
:1029B00045545F53594E433A2000000080B5FEF75E
:1029C000D1F900EE100AB8EE400ABEEE001A20EE71
:1029D000010A10EE100AFDF72BFE024602A00B467C
:1029E000BDE8804002F062BE4745545F52535349F0
:1029F0003A20252E31662064426D0D0A0000000049
:102A000070B51FA002F052FE41F62805C2F2000583
:102A100095F8641021A01EA2002908BF104602F0FC
:102A200045FE21A002F042FE46F2C9440026C0F64F
:102A3000000400BFA81990F86510204602F036FE89
:102A40000136202EF6D11AA002F030FE46F2C9441B
:102A50000026C0F6000400BFA81990F88510204693
:102A600002F024FE01360F2EF6D195F8941046F2AE
:102A70009C10C0F60000BDE8704002F017BE00BF19
:102A80004745545F4145535354415455533A2000F0
:102A90004145533A4F46462C200000004145533AE9
:102AA0004F4E2C20000000004B45593D0000000017
:102AB00049563D0041F62800C2F20000B0F860100F
:102AC000B0F8622001A002F0F1BD00BF4745545F9D
:102AD0004155544F53454E443A2025642C307825B7
:102AE0003034580D0A00000040F27040C2F200007D
:102AF000B0F9001001A002F0D9BD00BF4745545FF6
:102B00004348414E4E454C3A2025640D0A000000D2
:102B100010B540F61110FEF732FC044640F61210D4
:102B2000FEF72DFC011902A0BDE8104002F0BEBD69
:102B30004745545F4354554E453A2025640D0A00DD
:102B400041F62800C2F20000818801A002F0AEBD6B
:102B50004745545F44455649443A2030782530343F
:102B6000580D0A0041F62800C2F20000D0E9031215
:102B700001A002F09BBD00BF4745545F465245513E
:102B80003A2025752C25750D0A00000001A003F0E0
:102B90000BBA00BF4745545F474E53533A20544F3A
:102BA000444F0D0041F62800C2F20000817A08A0CF
:102BB00002A2012908BF104603F0F6B94745545F49
:102BC0004D4F44454D3A204C4F52410D00000000FE
:102BD0004745545F4D4F44454D3A2046534B0D00F9
:102BE00041F62200C2F2000090F90000072899BFC8
:102BF00004A151F8200046F28940C0F6000003F01D
:102C0000D3B900BF9C6300084A6200087A620008DA
:102C10006C630008A9640008896400086364000804
:102C2000FC62000841F62800C2F2000090F915107D
:102C300001A002F03BBD00BF4745545F504F5745D0
:102C4000523A2025642064426D0D0A0041F62800A6
:102C5000C2F20000C18A01A002F028BD4745545FBE
:102C600052414D5054494D453A2025642075730D0D
:102C70000A00000001A003F097B900BF4745545F68
:102C80005258434F554E543A20544F444F0D000074
:102C900001A003F089B900BF4745545F534C454537
:102CA00050504152414D533A204552524F520D001F
:102CB00080B502F03DFB014602A0BDE8804002F075
:102CC000F5BC00BF4745545F5354415455533A2017
:102CD0003078253032580D0A0000000041F62800F7
:102CE000C2F20000817A00F15802012908BF00F108
:102CF0002802116800F15C0208BF00F12C02126882
:102D000001A002F0D3BC00BF4745545F54494D4574
:102D10004F5554533A2025642C25640D0A000000B9
:102D200002A001210022012302F0C0BC4745545FEC
:102D300056455253494F4E3A2048573D25642C463C
:102D4000573D25642E25640D0A000000B0B582B001
:102D500040F20050C2F200000068FDF769FC044632
:102D600040F20450C2F2000000680D46FDF760FC1E
:102D700041EC100B04A022462B468DED000B02F017
:102D800095FC02B0B0BD00BF4745545F56543A2091
:102D9000543D252E33662C563D252E33660D0A00F4
:102DA00041F62800C2F2000090F9081090F90920BD
:102DB00001A002F07BBC00BF4745545F584F504113
:102DC00052414D533A2025642C25640D0A00000021
:102DD0003020C4F2020003682C20C4F20200026812
:102DE00001A002F063BC00BF4745545F5549443A17
:102DF000203078256C6C580D0A00000041F6F82050
:102E000040F20D5140F20803C2F20000C2F200018C
:102E1000C2F200034FF48072FEF724BF80B5FEF7C4
:102E200003FA28B1014605A0BDE8804002F03EBC8F
:102E300008A0BDE8804003F0B7B800BF494E495430
:102E40005F434F4E4649473A204552524F52202544
:102E5000640D0A00494E49545F434F4E4649473A74
:102E6000204F4B0D0000000010B582B041F6280441
:102E7000C2F2000494F91B000A2808D846F2301167
:102E8000C0F6000101EBC00090ED000B01E09FEDEA
:102E90001C0BA17E53EC102B1BA0009102F006FC32
:102EA00046F2E040C0F6000002F000FC94F91C007D
:102EB000042806D846F28811C0F6000151F8200017
:102EC00003E046F2BD20C0F6000003F06DF846F2C4
:102ED000E440C0F6000002F0E9FB617F46F2983062
:102EE00046F26732C0F60000C0F60002002908BFB3
:102EF000104602B0BDE8104003F056B800BF00BF56
:102F0000000000000000F0BF4C525F4745545F4D89
:102F10004F44504152414D533A0D0A42573D252EE0
:102F200031660D0A53463D25640D0A0070B541F621
:102F30002805C2F20005E98B95F824201BA002F0B9
:102F4000B5FB95F8201046F20F4046F21942C0F644
:102F50000000C0F60002002908BF104603F024F864
:102F600046F2D140C0F6000002F0A0FB95F8250023
:102F700046F29834C0F6000446F267360028204630
:102F8000C0F6000608BF304603F00EF846F2D64001
:102F9000C0F6000002F08AFB95F82600002808BF62
:102FA00034462046BDE8704002F0FEBF4C525F47F9
:102FB00045545F5041434B4554504152414D533A63
:102FC0000D0A5052455F4C454E3D25640D0A504157
:102FD000595F4C454E3D25640D0A484541444552D4
:102FE0003A00000001A002F0DFBF00BF4C525F4773
:102FF00045545F53594D544F3A20494E204445564D
:10300000454C4F504D454E540D00000041F62800F0
:10301000C2F20000418C01A002F048BB4C525F4755
:1030200045545F53594E433A203078253034580D7B
:103030000A000000000000002DE9F0412DED028B98
:1030400082B041F62806C2F20006B07A01280BD100
:1030500048680C46FEF702FE80B2092806D29FEDB2
:103060004E8B4FF000083DE05FA08DE00C2804D2AD
:103070009FED4B8B4FF0080834E0112804D29FEDF0
:103080004A8B4FF001082DE0162804D29FED488BA3
:103090004FF0090826E0202804D29FED478B4FF01F
:1030A00002081FE02B2804D29FED458B4FF00A0841
:1030B00018E0402804D29FED448B4FF0030811E044
:1030C0007E2804D29FED428B4FF004080AE0FB28D3
:1030D00041A038BF083090ED008B4FF0060838BF94
:1030E0004FF00508A068FEF7B9FDC7B200F0FE007A
:1030F0000C2F28BF0C270628E06838BF0627FEF7EC
:10310000ADFD0546C0B20428206988BF0425FEF73E
:10311000A5FDC0B286F81B80B7763577002818BFAA
:1031200001207077FDF7FBFFB17E53EC182B35A023
:10313000009102F0BBFA46F2E040C0F6000002F057
:10314000B5FA96F91C00042806D846F28811C0F694
:10315000000151F8200003E046F2BD20C0F6000057
:1031600002F022FF46F2E440C0F6000002F09EFAB0
:10317000717F46F2983046F26732C0F60000C0F622
:103180000002002908BF104602B0BDEC028BBDE86A
:10319000F04102F009BF00BF0000004033331F4080
:1031A000000000C0CCCC24400000004033332F404E
:1031B000000000C0CCCC3440000000C0CC4C3F40EC
:1031C000000000A099D944400000000000404F409A
:1031D0000000000000405F400000000000407F4011
:1031E0000000000000406F404C525F5345545F4D5B
:1031F0004F44504152414D533A204552524F520D87
:10320000000000004C525F5345545F4D4F44504105
:1032100052414D533A0D0A42573D252E31660D0A53
:1032200053463D25640D0A002DE9F04141F628057D
:10323000C2F20005A87A012860D148680C46FEF762
:103240000DFDA16880460846FEF708FDE1680646C8
:103250000846FEF703FD216907460846FEF7FEFC17
:10326000616904460846FEF7F9FC07F0010185F89C
:10327000201004F0010100F00100A5F81E8085F87F
:10328000246085F8251085F82600FDF748FFE98BB6
:1032900095F8242023A002F009FA95F8201046F2B0
:1032A0000F4046F21942C0F60000C0F600020029A5
:1032B00008BF104602F078FE46F2D140C0F600008A
:1032C00002F0F4F995F8250046F29834C0F60004AF
:1032D00046F2673600282046C0F6000608BF304692
:1032E00002F062FE46F2D640C0F6000002F0DEF9BF
:1032F00095F82600002808BF344600E002A42046C6
:10330000BDE8F04102F050BE4C525F5345545F504F
:1033100041434B4554504152414D533A204552523E
:103320004F520D004C525F5345545F5041434B4543
:1033300054504152414D533A0D0A5052455F4C454D
:103340004E3D25640D0A5041595F4C454E3D256464
:103350000D0A4845414445523A00000041F6280014
:10336000C2F20000817A0BA002A2012908BF104618
:1033700002F01ABE4C525F5345545F53594D544F9F
:103380003A20494E20444556454C4F504D454E54E9
:103390000D0000004C525F5345545F53594D544F3C
:1033A0003A204552524F520D0000000010B541F630
:1033B0002804C2F20004A07A01280AD14868FEF766
:1033C0004DFC024681B20AA06284BDE8104002F0C2
:1033D0006DB902A0BDE8104002F0E6BD4C525F534B
:1033E00045545F53594E433A204552524F520D00B7
:1033F0004C525F5345545F53594E433A2030782521
:103400003034580D0A00000080B582B0FDF7CFFBC4
:10341000C1B28DF8070051B1FF2908D041F6F8205C
:10342000C2F200000DF107010122FEF7C9FC02B053
:1034300080BD000080B54868FEF710FC80B2FDF743
:103440009EFF014602A0BDE8804002F02FB900BFF8
:10345000524541445F5245473A2030782530325832
:103460000D0A000003A002F09FFD642000F0C6FCDE
:10347000FEF7CEF952455345543A204F4B0D00000C
:1034800070B548680C46FEF7E9FB41F64035C2F2DC
:1034900000052880288808B901202880A068FEF748
:1034A000DDFB40F26846E168C2F200063080084663
:1034B000FEF7D4FB318841F6F622C2F200026329FE
:1034C00010809CBF6420308001F024FB2988328862
:1034D00002A0BDE8704002F0E9B800BF53454E4479
:1034E0005F5041434B45543A2025642C25640D0A16
:1034F00000000000F0B585B00D1D002601AC00BF36
:1035000055F82600771CFEF7A9FB44F82600042F87
:103510003E46F5D141F628010020C2F2000100BF6D
:1035200022580B18043012BA1028C3F88520F7D19E
:1035300002A005B0BDE8F04002F036BD5345545F2F
:1035400041455349563A204F4B0D0000F0B589B024
:103550000D1D002601AC00BF55F82600771CFEF7B4
:103560007DFB44F82600082F3E46F5D141F62801A0
:103570000020C2F2000100BF22580B18043012BA1A
:103580002028C3F86520F7D102A009B0BDE8F040BB
:1035900002F00ABD5345545F4145534B45593A200B
:1035A0004F4B0D00B0B548680C46FEF757FB05467B
:1035B000A068ACB2FEF752FB03464FF6FE702840FF
:1035C0004EF6602141F628058C4238BF2146C2F2F2
:1035D0000005322838BF3221A5F860109AB203A046
:1035E000A5F86230BDE8B04002F060B85345545FC2
:1035F0004155544F53454E443A2025642C3078258C
:103600003034580D0A00000010B54868FEF722FB60
:1036100040F27044C2F200042080FDF7B5FBB4F91B
:10362000001002A0BDE8104002F040B85345545FBE
:103630004348414E4E454C3A2025640D0A00000097
:1036400010B54868FEF70AFBC1B25E2988BF5E204C
:10365000C4B22046FDF782FA02A02146BDE8104020
:1036600002F024B85345545F4354554E453A202543
:10367000640D0A0010B54868FEF7F0FA41F6280418
:10368000C2F20004A08001F0F5FFA18802A0BDE80D
:10369000104002F00BB800BF5345545F44455649F3
:1036A000443A203078253034580D0A0001A002F049
:1036B0007BBC00BF5345545F454D3A20544F444FA7
:1036C0000D000000B0B548680C46FEF7C7FA41F699
:1036D0002805A168C2F20005E8600846FEF7BEFAB8
:1036E0002861FDF751FBD5E9031202A0BDE8B04007
:1036F00001F0DCBF5345545F465245513A202575D1
:103700002C25750D0A00000010B54868FEF7A6FAD2
:10371000C4B2012C0CD841F62801C2F20001887213
:10372000FDF7FDFC0EA00AA1002C08BF084600E032
:1037300002A0BDE8104002F037BC00BF5345545F03
:103740004D4F44454D3A204552524F520D00000016
:103750005345545F4D4F44454D3A2046534B0D0061
:103760005345545F4D4F44454D3A204C4F52410D07
:103770000000000010B54868FEF770FA41F6220418
:10378000C2F20004217841F62502C2F20002C0B262
:103790001170FDF70BFE94F90010C8B2072803D88A
:1037A00007A252F8214004E046F29944C0F6000412
:1037B0000520FDF7FBFD2046BDE8104002F0F4BBFC
:1037C000AF63000862620008946200087F6300082B
:1037D000B96400089964000876640008156300085D
:1037E000B0B548680C46FEF739FA054610F0F80FF8
:1037F000A06818BF0725FEF731FAECB2C5B2204623
:1038000029460022FDF707FC03A021462A46BDE811
:10381000B04001F04BBF00BF5345545F5041434F90
:103820004E4649473A2025642C25640D0A000000C5
:1038300010B54868FEF70EFA41B241F628040006BA
:1038400011F1090FD8BF6FF00801C2F20004B0F106
:10385000B05FC8BF16216175FDF7F3FB94F9151031
:1038600002A0BDE8104001F021BF00BF5345545FE6
:10387000504F5745523A2025642064426D0D0A008E
:1038800010B54868FEF7EAF9142801D20A211DE0B4
:10389000282801D2142119E0502801D2282115E04E
:1038A000C82801D2502111E0B0F5487F01D2C821CB
:1038B0000CE040F2A461884202D24FF4487105E066
:1038C00040F64851884238BF40F2A46141F62804CE
:1038D000C2F20004E182FDF7B4FBE18A02A0BDE878
:1038E000104001F0E3BE00BF5345545F52414D50BC
:1038F00054494D453A2025642075730D0A00000097
:1039000001A002F051BB00BF5345545F534C4545E5
:1039100050504152414D533A204552524F520D00A2
:10392000B0B548680C46FEF799F9A1680446084608
:10393000FEF794F9054641F62800C2F20000817AAC
:10394000582201294FF05C0108BF282208BF2C2112
:1039500084504550FDF7E3FB03A021462A46BDE80D
:10396000B04001F0A3BE00BF5345545F54494D45DC
:103970004F5554533A2025642C25640D0A0000004D
:1039800010B548680C46FEF765F9A168044608467C
:10399000FEF760F941F6280C0346C2F2000C8CF8E1
:1039A000084061B242B203A08CF80930BDE8104073
:1039B00001F07CBE5345545F584F504152414D5326
:1039C0003A2025642C25640D0A00000001A002F0B5
:1039D000EBBA00BF53544152545F5258434F554EB7
:1039E000543A20544F444F0D0000000041F61D0092
:1039F000C2F20000017849B10021017041F6133094
:103A0000C2F20000017007A002F0CEBA01A002F0DD
:103A1000CBBA00BF53544F505F54583A20455252CE
:103A20004F520D0053544F505F54583A204F4B0D96
:103A30000000000001A002F0B7BA00BF53544F507D
:103A40005F5258434F554E543A20544F444F0D0047
:103A500010B540F27044C2F20004207841F628010B
:103A6000C2F20001087501F005FEB4F9001002A0D1
:103A7000BDE8104001F01ABE53544F52455F434811
:103A8000414E4E454C3A2025640D0A0080B501F0A8
:103A9000F1FD02A0BDE8804002F086BA53544F52B7
:103AA000455F434F4E4649473A204F4B0D000000BB
:103AB000B0B548680C46FEF7D1F841F62005A1687C
:103AC000C2F2000528800846FEF7C8F841F61E023B
:103AD000E168C2F2000210800846FEF7BFF841F626
:103AE0000C34C2F200042060B0B118A002F05CFAFD
:103AF000288840F27041C2F200010880FDF744F9C5
:103B0000208801F077FD01F07BFD41F61130C2F213
:103B1000000001210170B0BD41F61130C2F2000079
:103B20000021017041F62800C2F20000007D40F241
:103B30007041C2F200010880FDF726F901F067FD2F
:103B400007A0BDE8B04002F02FBA00BF535745456B
:103B5000505F52583A2053544152540D0000000017
:103B600053574545505F52583A2053544F500D001B
:103B70002DE9F04148680C46FEF770F841F6200642
:103B8000A168C2F2000630800846FEF767F841F6E9
:103B90001E02E168C2F2000210800846FEF75EF8DD
:103BA00041F60C352169C2F2000528600846FEF78F
:103BB00055F841F61838C7B2C2F20008022F28BFE4
:103BC000022798F80000002F3ED02968E1B30028B2
:103BD0005AD131A002F0E8F941F62200C2F2000009
:103BE000007841F62501C2F200010870308840F2E9
:103BF0007041C2F200010880FDF7C6F8288801F084
:103C0000F9FC46F2544046F2E7243D46C0F6000077
:103C1000C0F60004012F18BF022508BF0446072084
:103C2000012F08BF0620FDF7C1FB204688F8005091
:103C300002F0BAF941F61230C2F20000012101701F
:103C4000BDE8F04101F0DCBCF0B141F61230C2F247
:103C500000000024047001F0DAFC41F62500C2F2F5
:103C600000000078FDF7A2FB41F62800C2F2000038
:103C7000007D40F27041C2F200010880FDF784F837
:103C80000AA088F8004003E046F2DE30C0F60000EB
:103C9000BDE8F04102F088B953574545505F54588C
:103CA0003A2053544152540D0000000053574545EB
:103CB000505F54583A204F46460D0000B0B5486852
:103CC000FDF7CCFFC1B2022988BF0220C0B2012893
:103CD00012D0022821D141F62200C2F20000007861
:103CE00041F62501C2F2000146F2E72408700225E0
:103CF000C0F6000407201EE041F62200C2F20000D8
:103D0000007841F62501C2F2000146F254440870E1
:103D10000125C0F6000406200DE041F62800C2F29D
:103D20000000807A08B9FDF700FC46F2393400251E
:103D3000C0F600040520FDF739FB204602F034F9F7
:103D400041F61830C2F200000570B0BDB0B5486849
:103D50000C46FDF783FFA16804460846FDF77EFF89
:103D60006FF31F34C5B220462946FDF7D1FB03A0EF
:103D700021462A46BDE8B04001F098BC575249544C
:103D8000455F5245473A203078253034582C3078FA
:103D9000253032580D0A000080B5012001F0ECF901
:103DA00044F24021C0F20F01884238BF80BD4DF679
:103DB0008361C4F21B31A0FB011244F6D351C1F25E
:103DC0006201A0FB0101900C40F21462C2F20002F9
:103DD00010704FF0FF3000EB91104EF21001CEF258
:103DE000000148604EF62350CEF20000E02202703F
:103DF000002088600720086080BD000080B54EF27A
:103E0000140140F21462CEF20001C2F20002D1F8B5
:103E100000C012788AB150434FF47A7200FB02FE60
:103E2000486800234A688242FCD003449B1A8242BD
:103E300028BF634473451046F4D380BD80B54EF26D
:103E4000140140F21462CEF20001C2F20002D1F875
:103E500000C012787AB102FB00FE4868002300BF60
:103E60004A688242FCD003449B1A824228BF6344C2
:103E700073451046F4D380BD4FF2080CC4F2000C19
:103E8000DCF800204AF6BF63D20444BF4FF48052EE
:103E9000CCF80020002241F21651C4F20202C8F60A
:103EA0009D43C1F2143193619161116801F4007175
:103EB000223111600021936191614FF0FF31016067
:103EC000DCF80000C00406D49068C007FCD00120D4
:103ED0009060002070474FF48050CCF800006FF0E5
:103EE000670070472DE9F04782B04FF20808C4F22E
:103EF00000081446D8F800200D46D104814644BF7E
:103F00004FF48050C8F8000000274AF6BF6041F225
:103F10001651C4F20207C8F69D40C1F21431B861CF
:103F2000B961396824F0070601F400712431396061
:103F3000B8610020B8614FF0FF30A64201900090B8
:103F400006D2A91904F007026846FCF7DFF800E082
:103F500004B3DDE900E000224FF0FF3A4FF0010C1E
:103F6000B24205D2A958AB18F960596803E000BF06
:103F70000146C7F80CE0396142F809A0D8F80010F2
:103F8000C90409D4B968C907FCD00832A242C7F8ED
:103F900008C0E5D3002005E04FF48050C8F80000C9
:103FA0006FF0670002B0BDE8F0870000B0B543F2E3
:103FB0000005C4F200050446C1B2284601F0D6FA55
:103FC0002846802101F025FA0028F9D02046B0BD0E
:103FD000012303FA01F1002A426A0CBF22EA01011F
:103FE0001143416270470000062A0FD8DFE802F053
:103FF000041D2D3F4F6081000122036802FA01F188
:1040000043EA0102026082680A4308E00122036871
:1040100002FA01F143EA0102026082688A43826087
:10402000C26822EA0101C16070470122036802FAF6
:1040300001F143EA0102026082680A438260C268B9
:104040000A43C260026911430FE00122036802FAC9
:1040500001F143EA0102026082680A438260C26899
:104060000A43C260026922EA01010161704701222C
:10407000036802FA01F123EA0102026082688A43BE
:10408000826042688A4342608269114364E001228F
:10409000036802FA01F123EA0102026082688A439E
:1040A000826042688A434260826922EA010153E0E9
:1040B0004FF6004C0122C4F2010C8A4060456FEAC1
:1040C000020331D108292FD3DCF818001840CCF8AE
:1040D0001800DCF808001840CCF80800DCF80000F4
:1040E0001043CCF80000DCF810001043CCF81000AE
:1040F00070474FF600420123C4F2010203FA01FCAB
:1041000090426FEA0C031BD1082919D3906918401B
:1041100090619068184090601068184010601069B5
:1041200040EA0C0010617047016819400160816825
:1041300019408160416811434160816911430BE07E
:10414000016819400160816819408160416841EA55
:104150000C014160816919408161704710B50829DF
:1041600013D3083901EB410E8B000F214FF60044A9
:104170009940C4F201044FF0070CA04204BF0CFAAE
:104180000EF173469A403C3004E08B000F219940B9
:104190009A403830036823EA01011143016010BDE1
:1041A000B0B582B01620012100F054FD47F20004A2
:1041B000C4F2000404F5C03528460E210322FFF79F
:1041C000CDFF28460F210322FFF7C8FF6D46284682
:1041D00000F01CF82046294600F01CF8204601217A
:1041E00000F003F8002002B0B0BD026831B142F423
:1041F00080410160016841F4005105E022F48041F2
:104200000160016821F400510160704700210180C4
:104210004160704770B50E46044640F2E93000BF79
:104220006168090402D50138FAD101E001280DD0F6
:10423000206800F480602060206840F48060206086
:1042400060686060206820F4806020607078216879
:10425000002821F0200118BF2031216047F2000121
:10426000C4F2000103208C4208BF022000F084FF4A
:1042700045F6C5224109C0F67C22A1FB021248F690
:104280005931C009C0F24F11A0FB01016FF00700C6
:1042900000EB11114FF0FF3303EB51014AF6AB2352
:1042A000CAF6AA23A1FB033500EBD210490241EA6A
:1042B0005000206168086061307810B13079A060EA
:1042C00070BD2068716820F440700843206070BDA4
:1042D00080B500F045F900F0F3F8FCF7A0FCFFF71B
:1042E0005FFFBDE8804001F046B980B504200121A0
:1042F00000F028FC4FF4A04000F0BFFF002000F0C9
:10430000A6FF0020002100F0AAFF0120C0F200203B
:1043100000F0BBFF4020012100F09CFCBDE8804084
:10432000FFF73ABD4FF20000C4F20100082103225A
:10433000FFF75ABE4FF20000C4F201000821042228
:10434000FFF752BEB0B549F20004C4F200044FF4C6
:104350000070C4F800010720022520602561D4F810
:10436000040180280BD01420FFF768FD0020C4F85A
:104370000C011420FFF762FD0120C4F80C014EF27D
:1043800000106560CEF200004FF40011016004F5EA
:10439000B6300B210322BDE8B040FFF7DFBE0000BE
:1043A00010B549F20414C4F20004206820F0200083
:1043B00020606420FFF742FD206840F0200020606C
:1043C000206820F08000206054F8040C40F02000A9
:1043D00044F8040C206840F0010020606068C005CB
:1043E000FCD410BD4FF20000C4F201000A210322E8
:1043F000FFF7FABD4FF20000C4F201000A210422C7
:10440000FFF7F2BD80B549F20801C4F2000100BF18
:10441000D1F80021D205FBD40022C1F80421B0B1AB
:1044200041F21D7C41F21D6EC2F2000CC2F2000E80
:104430001CF802300B6000BF4B6803F01103012B26
:10444000FAD10B680EF8023001328242F0D101221B
:10445000C1F80421D1F80021D205FBD480BD0000B1
:1044600080B50A20FFF7EAFC49F20810C4F2000008
:104470000168C905FCD480BDFFF737FFFFF728FFAF
:104480006420FFF7BBFC0AA001F08EFDFFF752FF8E
:1044900000F080F96420FFF7B1FCFFF743FFFEF75F
:1044A000ADFC00BF00F0C0F9FEF7AEFFFAE700BFB9
:1044B0000D0A5241303820746573740D00000000FD
:1044C00010B5002000F0B0FE1220012100F0C2FB68
:1044D0001120012100F0BEFB4FF20000C4F20100E8
:1044E0000B210722FFF780FD40F2106441F21861B2
:1044F000C2F20004C2F2000100202246FDF720FAB9
:1045000094ED000A9FED151A20EE010A84ED000AD1
:10451000FDF785FA0820FDF79AF90120FDF7C1F9AA
:104520000120FDF701FA00200121FDF7CAF9002062
:10453000FDF79FF90120FDF7E2F90120FDF77AFA76
:1045400001200121FDF7A1F94EF20010CEF200008A
:104550004FF48031C0F88011016010BD00007A4432
:1045600010B50D20012100F075FB2020012100F085
:1045700071FB2120012100F06DFB2220012100F0C0
:1045800069FB4FF20004C4F2010420460B21012212
:10459000FFF72AFD204609210122FFF725FD2046CD
:1045A00008210322FFF720FD204608210122BDE853
:1045B0001040FFF70DBDB0B584B043F20004C4F263
:1045C000000404F5E235284601210122FFF7C6FD6B
:1045D000284600210122FFF7C1FD002000F06CFEFB
:1045E0001F20012100F036FB6D46284600F0FDFE3D
:1045F0004FF4E13000902046294600F00FFF20469E
:10460000012100F0ECFE20461021012200F0F9FE0D
:104610004EF20010CEF200004021C0F8801101607F
:1046200004B0B0BD70B541F62800C2F2000041F6FA
:10463000F622808841F61C31C2F20002C2F200016B
:10464000128808804FF002304A80C1F81B00C1F880
:104650001E0091E80D50D1E90556C96940F2B444F5
:10466000C2F2000484E80D50E16120462021C4E933
:104670000556FDF733FA002020212246BDE87040A0
:10468000FCF72EBF2DE9F04F81B02DED0A8B96B0CF
:1046900041F6D028C2F20008B8F8040098F81AA031
:1046A0001590B8F8000098F806901490D8F80C000F
:1046B00098F8075098F8086098F8097098F818B0BA
:1046C000FBF7B6FF41EC180BD8F81000FBF7B0FF72
:1046D00041EC190BD8F81400FBF7AAFF41EC1A0BB8
:1046E00040F2F440C2F20000006898F91940FBF76C
:1046F0009FFF41EC1B0B40F2FC40C2F2000000683F
:10470000FBF796FF41EC1C0B40F2F840C2F20000B0
:104710000068FBF78DFF41EC100B06A8DDE91421C2
:1047200080EC068B0BA053468DED0EBB8DED10CBB0
:104730008DED120B0C94CDE90095CDE90267CDF813
:1047400010B000F0B3FF16B0BDEC0A8B01B0BDE8AD
:10475000F08F00BF25642C3078253034582C256329
:104760002C25643A25643A25642C25642C25642C78
:10477000252E34662C252E34662C252E31662C25CC
:10478000642C252E31662C252E31662C252E316683
:104790000D0A000010B5FFF7D5FD00F0A0FD41F6B1
:1047A0002804C2F20004206842F26B31CCF66C118E
:1047B000884218BFFCF738FDFCF7B1FC0DA109A237
:1047C000002808BF1146084601F0EEFB94F864008B
:1047D00018B1FDF7E8F910A000E00BA0BDE810400B
:1047E00001F0E2BB526164696F20496E6974204F29
:1047F0004B2E0D00526164696F20496E697420452B
:1048000072726F722E0D000041455320646973610E
:10481000626C65642E0D000041455320656E616237
:104820006C65642E0D0000002DE9F04383B041F665
:104830001330C2F20000017841F61C34C2F20004C9
:1048400081B10021017041F64230C2F200000088BF
:10485000A0805420A076FFF7E5FEFFF76BFD042053
:10486000FCF7A4FD40F20C59C2F2000999F80000CF
:1048700088B1002089F8000041F6F420C2F200005F
:104880000088A0805220A076FFF7CCFEFFF752FDF3
:104890000420FCF78BFD41F62300C2F200000178F2
:1048A000002900F0A78000210170FFF743FD41F6C9
:1048B0002808C2F2000898F80A00012822D10DF158
:1048C0000B000DF10A010DF106020DF10903FCF7D1
:1048D00029FABDF906109DF80A00A1F5807200EED4
:1048E000102A01EE101AB8EEC00AB8EEC11A8029DB
:1048F000B8BFB0EE410AB5EE001A9DF8091020EEDF
:10490000010A0EE00DF1050001A90DF103020DF100
:104910000203FCF7D5F99DF803009DF802109FED06
:10492000760A01EE101A03EE100AB8EE411ABEEE36
:10493000002AB8EE433A40F2F44021EE021A23EE88
:10494000022AC2F2000080ED002A40F2FC40C2F2CE
:10495000000080ED000A40F2F84040F27444C2F2D8
:104960000000C2F2000480ED001A802020212246BF
:10497000FCF7E0FC40F20D60C2F20000017841B1AA
:104980000021017046F6C530C0F6000001F00CFBB6
:104990002BE098F8640030B140F27440C2F200009D
:1049A0002021FDF797F894E8CF00D4E9065C41F6A2
:1049B000D024C2F2000484E8CF00C4E9065CFFF70B
:1049C00061FEA08841F6F421C2F20001088041F6A0
:1049D0001D00C2F20000007838B96088B8F80410F1
:1049E000884204BF012089F80000FFF79BFC0520E6
:1049F000FCF7DCFC41F62400C2F20000017831B182
:104A0000002101700520FCF7D1FCFFF78BFC41F67B
:104A10001030C2F20000017800296AD00021017034
:104A200041F61230C2F20000007840F27045C2F246
:104A3000000578B341F6C000C2F2000001782A8870
:104A400051B1531E41F62002C2F2000212881FB279
:104A500097422B800ADB0DE0531C41F61E02C2F286
:104A6000000212881FB297422B8003DD81F0010102
:104A70002A8001700220FCF799FCFCF785F941F6C9
:104A80001830C2F2000001780720012908BF062073
:104A9000FCF78CFC41F61130C2F20000007840B304
:104AA000FCF760F900EE100AB8EE400ABEEE001AFC
:104AB00020EE010AB5F9004010EE100AFBF7B8FD30
:104AC00002460B460DA0214600F0F0FD288841F675
:104AD0001E01C2F200010130098802B28A42288018
:104AE00005DD41F62000C2F2000000882880FCF7B6
:104AF0004BF903B0BDE8F0830000000043483D25BA
:104B0000642C525353493D252E31662064426D0D6D
:104B10000A00000041F61D00C2F2000001210170F0
:104B200041F64230C2F20000018041F61430C2F278
:104B300000000022026041F61330C2F20000017052
:104B400070470000052888BF7047DFE800F00312B7
:104B50001E2B395948F20800C4F2000002690029EE
:104B60005ED022F020010161D0F800124907FBD588
:104B7000704748F20800C4F200000268002922F4DD
:104B8000004208BF02F500420AE048F20800C4F201
:104B900000000268002922F4C04208BF02F5C042AA
:104BA0000260704748F20800C4F200000269102356
:104BB00022F01802002918BF0823D118016170479C
:104BC0000C22C4F20002136849F2041043F01003EF
:104BD000C4F200001360026859B3910607D401685B
:104BE00041F020010160016821F08001016001684D
:104BF00041F00401016000BF41688907FCD5B7E7B7
:104C000048F20800C4F200000269C9B122F0400174
:104C1000016100BFD0F80012B1F1FF3FFADCA7E755
:104C200042F02001016100BFD0F800124907FBD417
:104C30009EE722F00401016041688907FCD497E7F0
:104C400042F04001016100BFD0F800120029FBD4FE
:104C50008EE70000412888BF7047DFE810F042006F
:104C60007A0185019001A9014D00650080008B004B
:104C70009600A100B701C201AC00CD01D801E3014B
:104C8000FD01B700840208021302C200CD00D80063
:104C90001E02E300EE0029020701120134021D0189
:104CA0002801330184028402840284028402840283
:104CB00084028402840284028402840284023F0209
:104CC0004A023E015602490184028402840284029F
:104CD00084028402840284028402840284026401C5
:104CE0006F010C20C4F200004268002914BF42F09A
:104CF000800122F080013DE20C20C4F200004268F5
:104D000022F0080261F3C302426000BFC26902F0F0
:104D10003F023F2AFAD1826822F0010211448160E9
:104D2000C169C907FCD01EE20C20C4F20000426831
:104D3000002900F0F58142F400714160C16901F081
:104D40003F013F29FAD1816841F01001816000BF25
:104D5000C169C906FCD5416841F010010AE20C2086
:104D6000C4F20000026800290CBF22F0806142F00A
:104D70008061C8E10C20C4F20000026800290CBF69
:104D800022F0006142F00061BDE10C20C4F200009D
:104D9000026800290CBF22F0010142F00101B2E1DA
:104DA0000C20C4F20000026800290CBF22F00201AE
:104DB00042F00201A7E10C20C4F2000002680029C1
:104DC0000CBF22F0007142F000719CE10C20C4F293
:104DD0000000026800290CBF22F4807142F4807147
:104DE00091E10C20C4F20000026800290CBF22F4FB
:104DF000805142F4805186E10C20C4F200004268E8
:104E0000002914BF42F0200122F02001B2E10C2061
:104E1000C4F20000026800290CBF22F4005142F4E1
:104E2000005170E10C20C4F20000026800290CBFA0
:104E300022F4004142F4004165E10C20C4F200007C
:104E4000026822F4803261F310420260C26902F00B
:104E50003F023F2AFAD1826822F0040261F3820203
:104E6000826000BFC1694907FCD57CE10C20C4F217
:104E70000000026800290CBF22F4802142F4802146
:104E800041E10C20C4F20000026800290CBF22F4AA
:104E9000002142F4002136E10C20C4F20000026837
:104EA00000290CBF22F0807142F080712BE10C20B0
:104EB000C4F20000026800290CBF22F4000142F491
:104EC000000120E10C20C4F20000026800290CBFA0
:104ED00022F4800142F4800115E10C20C4F20000AC
:104EE0004268002914BF42F4807122F4807141E1CC
:104EF0000C20C4F200004268002900F0238142F433
:104F000080514160C16901F03F013F29FAD18168B8
:104F100041F02001816000BFC1698906FCD541686C
:104F200041F4006126E10C20C4F20000026800296F
:104F30000CBF22F4001142F40011E4E00C20C4F292
:104F40000000026800290CBF22F0004142F000413D
:104F5000D9E00C20C4F200004268002914BF42F0DE
:104F6000010122F0010105E10C20C4F200000268F9
:104F700000290CBF22F0805142F08051C3E00C2088
:104F8000C4F20000426822F0020261F34102426072
:104F9000C26902F03F023F2AFAD1826822F002027F
:104FA00061F34102826000BFC1698907FCD5DAE084
:104FB0000C20C4F200004268002900F0D58042F0C5
:104FC00004014160416841F04001D3E00C20C4F28B
:104FD0000000026800290CBF22F0040142F0040125
:104FE00091E00C20C4F20000026800290CBF22F0FE
:104FF000080142F0080186E00C20C4F200000268BB
:1050000000290CBF22F0100142F010017BE00C20BF
:10501000C4F20000026800290CBF22F0200142F017
:10502000200170E00C20C4F20000026822F040026F
:1050300061F38612026000BFC26902F03F023F2A9C
:10504000FAD1826822F0080261F3C302826000BFD5
:10505000C1690907FCD586E00C20C4F20000026893
:1050600000290CBF22F0800142F080014BE00C20AF
:10507000C4F20000026800290CBF22F4806142F4EF
:10508000806140E00C20C4F20000026800290CBFDF
:1050900022F4006142F4006135E00C20C4F200000B
:1050A000026800290CBF22F4804142F480412AE0CA
:1050B0000C20C4F20000026800290CBF22F4003169
:1050C00042F400311FE00C20C4F200000268002905
:1050D0000CBF22F4801142F4801114E00C20C4F2C1
:1050E0000000026800290CBF22F0005142F000517C
:1050F00009E00C20C4F20000026800290CBF22F075
:10510000804142F08041016070470C20C4F20000F1
:105110004268002914BF42F4806122F4806129E0D2
:1051200022F01001416000BFC16901F03F013F2939
:10513000FAD1816821F01001816000BFC169C90600
:10514000FCD510E022F40061416000BFC16901F0AC
:105150003F013F29FAD1816821F02001816000BF21
:10516000C1698906FCD5704722F00401416041689D
:1051700021F04001416070474FF080410968C1F360
:1051800002314A1E062A014603D812A050F8220016
:1051900003E043F20060C0F26E10012906D002293C
:1051A00007D0032918BF70470F2103E00F22082101
:1051B00007E005214FF080421268C2F30322D0407D
:1051C00007224FF080431B6823FA01F11140C840C9
:1051D000704700BF008000000080000000366E01B4
:1051E00000366E010048E80180EE3600006CDC02FB
:1051F0000820C4F20000006800F4C03070470820A6
:10520000C4F20000006800F4C04070470820C4F2F7
:105210000000006800F4C05070470820C4F200008D
:10522000006800F4C06070470821C4F200014A6AB7
:10523000920406D54A6822F480724A604A6A92044F
:10524000FCD40A6822F060021043086070474FF0F7
:1052500080410A6822F470621043086070474FF082
:10526000804CDCF8003047F61F72CFF6FC721A4013
:1052700008431043CCF8000070474FF080410A68A3
:1052800022F4E0421043086070470121C0F200217F
:10529000884208D14EF21000CEF20000016841F0C1
:1052A0000401016070474FF080410A6822F00072EB
:1052B00010430860704700000821C4F200014A6AE8
:1052C000520306D54A6822F480124A604A6A5203A1
:1052D000FCD40A6822F4C03210430860704780B5DD
:1052E00041F628004FF20001C2F20000C0F60001B2
:1052F0009822FAF70BFF80BD70B5144605460E469E
:1053000000B9256828463146FAF73FFF295C61B1AC
:10531000054428463146FAF746FF295C284411B176
:10532000002100F8011B206000E00025284670BD28
:1053300080B541F21D70C2F20000C0210180002141
:1053400081700320FFF75EF841F21D60C2F2000099
:10535000807880BD026922EA01010161704702681C
:1053600022F00102114401607047012AC26814BF93
:1053700022EA01011143C1607047012A426914BF4A
:1053800022EA010111434161704700690840401A57
:10539000B0FA80F0400910707047D0F800C08B88D8
:1053A0004FF6FF72934200D02BB92CF07002002B05
:1053B00008BF103202E02CF060021A438B8922F4FD
:1053C000607C23F080038A7B43EA0C03002A18BF29
:1053D000803303608A680968C26281627047026B29
:1053E00022F00102114401637047602181804FF473
:1053F000E131016000214FF04072817182600173E0
:105400007047002A826B14BF114322EA01018163B5
:1054100070478069084018BF0120704770B5044686
:10542000006B43F2000620F001002063E06AC4F242
:10543000000620F010000D46E0620020B442A06398
:1054400011D041F20000C4F2010084420FD00020CC
:10545000C4F2010084420ED0B4F1402F15D1FFF701
:10546000CEFE400B0AE0FFF7C3FEC00B06E0FFF7DD
:10547000D4FE400A02E0FFF7C9FEC00A0138032843
:1054800003D234A151F8200009E0B4F1402F01D03B
:10549000B44201D1022000E00320FFF76DFE29682D
:1054A000B0EB011F3CBF4FF0FF3070BD71B10A017E
:1054B000B0FBF2F303FB1200C000B0FBF1F000F010
:1054C000010101EB5000C0EA034000E00020010CA4
:1054D00000F03F006162A062E06A2A7920F060017A
:1054E00011436879AB792E7BE162E16A002E21F0ED
:1054F000080141EA0301E162E16A21F0100118BFED
:105500001031E16258B102280DD0012813D1E06AB0
:1055100040F00200E062E06A20F004000AE0E06A85
:1055200020F0020006E0E06A40F00200E062E06A7B
:1055300040F00400E062206B698920F44070084369
:105540002063206B298920F4404008432063002019
:1055500070BD00BF80EE36000080000000366E0196
:105560008169C906FCD40068C0B27047826992069E
:10557000FCD401607047B0B584B00C200121012536
:10558000FFF768FB4AF20004C4F200042046012140
:105590000122FFF7EAFE1F2000904FF6FF70ADF8E2
:1055A00004004FF47A7002900020ADF80C006946B8
:1055B00020468DF80E50FFF7F0FE20460121012213
:1055C000FFF7D3FE204601210122FFF7D6FE204639
:1055D0000121FFF7BFFE4EF20010CEF200004FF4A3
:1055E0000001C0F88011016020460021FFF7B7FEDE
:1055F00004B0B0BD4AF22C01C4F20001086070474B
:105600004AF20000C4F200000121FFF7A8BE4AF2EE
:105610000000C4F200000021FFF7A1BEF0B581B088
:10562000044652B100F052F8054600202860694651
:1056300020460022FAF7DDFD0CE0CF0000F046F82E
:10564000002605460660694620460022FAF709FE54
:10565000F8400CD1286808B1002608E00098051B26
:105660002046FAF77DFD281AB0FA80F04609304648
:1056700001B0F0BDB0B540F21864C2F2000441F6CA
:105680002801C2F2000120469822FAF73FFD4FF2AE
:105690000005C0F600052846FEF7EEFB2846214629
:1056A0004FF48052BDE8B040FEF71CBC0FB4054B70
:1056B00010B503A9044A029800F0DEF810BC5DF8AA
:1056C00014FB0000AD3F00080000002000487047B8
:1056D0000400002002E008C8121F08C1002AFAD105
:1056E00070477047002001E001C1121F002AFBD162
:1056F000704700002DE9FF5F82B00021DDE9043032
:10570000020DDDF840B0034318D044F61050A2F269
:10571000FF3242431514119801281FD0A5EB0B004E
:10572000401C5FEA000A4FF000064E4FDFF8389148
:10573000B046504615D5CAF1000413E01198012473
:105740004AA3012801D16FEA0B010298119AC0E91E
:105750000031C0E9024206B0BDE8F09FCBF1000085
:10576000DFE704460021404A491842EB0450CDE9E6
:10577000001012E0E00707D032463B46404649465B
:10578000FAF74FFE8046894632463B461046194698
:10579000FAF747FE06460F466410002CEAD1DDE911
:1057A0000401DDE90023BAF1000F06DAFAF739FE49
:1057B00042464B46FAF735FE05E0FAF7A4FE4246AC
:1057C0004B46FAF7A0FE04460E460022284BFBF794
:1057D000DDF803D84FF0FF30014607E00022254BEB
:1057E00020463146FAF776FDFBF7B7F8102409E0BA
:1057F000002C0ADB0A220023FAF75FFF039B3032FA
:105800001A55641E50EA0102F2D1641C039AC4F1D5
:1058100011031444119A012A03D0012208430DD127
:105820000AE0084304D000204FF0110B119072E7FA
:10583000A3EB0B056D1E0DE05B4504DD4FF0000290
:1058400005F1010504E003DA4FF00002A5F10105BE
:10585000002AECD002981199C0E90231C0E9004554
:1058600079E70000000014400000F03F3000000025
:105870000000F0430000E03F2DE9FF4F95B09B464C
:105880008946064600250FE2252877D100242746C1
:10589000F84A0121059400E0044316F8013F203B3B
:1058A00001FA03F01042F7D130782A2811D06FF0B6
:1058B0002F033078A0F13002092A16D8059A44F057
:1058C000020402EB820203EB42021044761C0590B4
:1058D000EFE759F8042B0592002A03DA504244F40A
:1058E0000054059044F00204761C30782E2816D11E
:1058F00016F8010F44F004042A280DD06FF02F028F
:105900003078A0F13003092B09D807EB870302EBAD
:105910004303C718761CF3E759F8047B761C3078EC
:105920006C280FD006DC4C2817D068280DD06A28C8
:1059300014D104E0742810D07A280FD10DE044F47B
:1059400000140AE044F4801401E044F44014727836
:10595000824202D104F58014761C761C30786628C9
:105960000BD013DC582877D009DC002875D04528E7
:10597000F6D04628F4D047281AD19DE118E06328D4
:1059800035D0642879D0652812D195E1702873D07C
:1059900008DC6728F1D069286FD06E280DD06F28F9
:1059A00006D1B5E073282CD0752875D0782874D02E
:1059B0005A46179990476D1C75E1C4F302500228AE
:1059C00009D003280DD0D9F8001004280DD00D609F
:1059D00009F1040967E1D9F80010EA17C1E900529A
:1059E000F6E7D9F800100D80F2E70D70F0E719F82E
:1059F000041B8DF8001000208DF80100EA460120FC
:105A000003E059F804AB4FF0FF3061074FF000019D
:105A100002D40DE008F101018846B9420FDA804551
:105A2000F8DB1AF808100029F4D108E008F10101A8
:105A300088468142FADB1AF808100029F6D1059849
:105A40005B46A0EB080721463846179A00F094FA07
:105A5000284400EB080507E04DE029E10DE01AF8C5
:105A6000010B5A4617999047B8F10108F7D25B46E7
:105A700021463846179A13E142E00A220092C4F305
:105A800002524FF0000A022A08D059F804CB032A28
:105A90004FEAEC710AD00DE029E02AE009F1070194
:105AA00021F00702F2E802C1914609E00FFA8CFCEE
:105AB0004FEAEC71042A03D14FFA8CFC4FEAEC71E7
:105AC000002907DA0A460021DCF1000C61EB020133
:105AD0002D2202E0220504D52B228DF8042001227C
